{
  "address": "0xE6651B246ACa02cbCc9eeA6C3576918188e3356E",
  "abi": [
    {
      "inputs": [
        {
          "internalType": "string",
          "name": "_name",
          "type": "string"
        },
        {
          "internalType": "address",
          "name": "_vault",
          "type": "address"
        },
        {
          "internalType": "address[]",
          "name": "_pools",
          "type": "address[]"
        },
        {
          "internalType": "uint256",
          "name": "_swapGasEstimate",
          "type": "uint256"
        }
      ],
      "stateMutability": "nonpayable",
      "type": "constructor"
    },
    {
      "anonymous": false,
      "inputs": [
        {
          "indexed": true,
          "internalType": "address",
          "name": "_asset",
          "type": "address"
        },
        {
          "indexed": false,
          "internalType": "uint256",
          "name": "amount",
          "type": "uint256"
        }
      ],
      "name": "Recovered",
      "type": "event"
    },
    {
      "anonymous": false,
      "inputs": [
        {
          "indexed": true,
          "internalType": "bytes32",
          "name": "role",
          "type": "bytes32"
        },
        {
          "indexed": true,
          "internalType": "bytes32",
          "name": "previousAdminRole",
          "type": "bytes32"
        },
        {
          "indexed": true,
          "internalType": "bytes32",
          "name": "newAdminRole",
          "type": "bytes32"
        }
      ],
      "name": "RoleAdminChanged",
      "type": "event"
    },
    {
      "anonymous": false,
      "inputs": [
        {
          "indexed": true,
          "internalType": "bytes32",
          "name": "role",
          "type": "bytes32"
        },
        {
          "indexed": true,
          "internalType": "address",
          "name": "account",
          "type": "address"
        },
        {
          "indexed": true,
          "internalType": "address",
          "name": "sender",
          "type": "address"
        }
      ],
      "name": "RoleGranted",
      "type": "event"
    },
    {
      "anonymous": false,
      "inputs": [
        {
          "indexed": true,
          "internalType": "bytes32",
          "name": "role",
          "type": "bytes32"
        },
        {
          "indexed": true,
          "internalType": "address",
          "name": "account",
          "type": "address"
        },
        {
          "indexed": true,
          "internalType": "address",
          "name": "sender",
          "type": "address"
        }
      ],
      "name": "RoleRevoked",
      "type": "event"
    },
    {
      "anonymous": false,
      "inputs": [
        {
          "indexed": true,
          "internalType": "address",
          "name": "_adapter",
          "type": "address"
        },
        {
          "indexed": false,
          "internalType": "uint256",
          "name": "_newEstimate",
          "type": "uint256"
        }
      ],
      "name": "UpdatedGasEstimate",
      "type": "event"
    },
    {
      "anonymous": false,
      "inputs": [
        {
          "indexed": true,
          "internalType": "address",
          "name": "_tokenFrom",
          "type": "address"
        },
        {
          "indexed": true,
          "internalType": "address",
          "name": "_tokenTo",
          "type": "address"
        },
        {
          "indexed": false,
          "internalType": "uint256",
          "name": "_amountIn",
          "type": "uint256"
        },
        {
          "indexed": false,
          "internalType": "uint256",
          "name": "_amountOut",
          "type": "uint256"
        }
      ],
      "name": "YakAdapterSwap",
      "type": "event"
    },
    {
      "inputs": [],
      "name": "DEFAULT_ADMIN_ROLE",
      "outputs": [
        {
          "internalType": "bytes32",
          "name": "",
          "type": "bytes32"
        }
      ],
      "stateMutability": "view",
      "type": "function"
    },
    {
      "inputs": [],
      "name": "MAINTAINER_ROLE",
      "outputs": [
        {
          "internalType": "bytes32",
          "name": "",
          "type": "bytes32"
        }
      ],
      "stateMutability": "view",
      "type": "function"
    },
    {
      "inputs": [
        {
          "internalType": "address",
          "name": "addedMaintainer",
          "type": "address"
        }
      ],
      "name": "addMaintainer",
      "outputs": [],
      "stateMutability": "nonpayable",
      "type": "function"
    },
    {
      "inputs": [
        {
          "internalType": "address[]",
          "name": "_pools",
          "type": "address[]"
        }
      ],
      "name": "addPools",
      "outputs": [],
      "stateMutability": "nonpayable",
      "type": "function"
    },
    {
      "inputs": [
        {
          "internalType": "address",
          "name": "tokenIn",
          "type": "address"
        },
        {
          "internalType": "address",
          "name": "tokenOut",
          "type": "address"
        }
      ],
      "name": "getPools",
      "outputs": [
        {
          "internalType": "address[]",
          "name": "",
          "type": "address[]"
        }
      ],
      "stateMutability": "view",
      "type": "function"
    },
    {
      "inputs": [
        {
          "internalType": "bytes32",
          "name": "role",
          "type": "bytes32"
        }
      ],
      "name": "getRoleAdmin",
      "outputs": [
        {
          "internalType": "bytes32",
          "name": "",
          "type": "bytes32"
        }
      ],
      "stateMutability": "view",
      "type": "function"
    },
    {
      "inputs": [
        {
          "internalType": "bytes32",
          "name": "role",
          "type": "bytes32"
        },
        {
          "internalType": "address",
          "name": "account",
          "type": "address"
        }
      ],
      "name": "grantRole",
      "outputs": [],
      "stateMutability": "nonpayable",
      "type": "function"
    },
    {
      "inputs": [
        {
          "internalType": "bytes32",
          "name": "role",
          "type": "bytes32"
        },
        {
          "internalType": "address",
          "name": "account",
          "type": "address"
        }
      ],
      "name": "hasRole",
      "outputs": [
        {
          "internalType": "bool",
          "name": "",
          "type": "bool"
        }
      ],
      "stateMutability": "view",
      "type": "function"
    },
    {
      "inputs": [],
      "name": "name",
      "outputs": [
        {
          "internalType": "string",
          "name": "",
          "type": "string"
        }
      ],
      "stateMutability": "view",
      "type": "function"
    },
    {
      "inputs": [
        {
          "internalType": "uint256",
          "name": "_amountIn",
          "type": "uint256"
        },
        {
          "internalType": "address",
          "name": "_tokenIn",
          "type": "address"
        },
        {
          "internalType": "address",
          "name": "_tokenOut",
          "type": "address"
        }
      ],
      "name": "query",
      "outputs": [
        {
          "internalType": "uint256",
          "name": "",
          "type": "uint256"
        }
      ],
      "stateMutability": "view",
      "type": "function"
    },
    {
      "inputs": [
        {
          "internalType": "uint256",
          "name": "_amount",
          "type": "uint256"
        }
      ],
      "name": "recoverAVAX",
      "outputs": [],
      "stateMutability": "nonpayable",
      "type": "function"
    },
    {
      "inputs": [
        {
          "internalType": "address",
          "name": "_tokenAddress",
          "type": "address"
        },
        {
          "internalType": "uint256",
          "name": "_tokenAmount",
          "type": "uint256"
        }
      ],
      "name": "recoverERC20",
      "outputs": [],
      "stateMutability": "nonpayable",
      "type": "function"
    },
    {
      "inputs": [
        {
          "internalType": "address",
          "name": "removedMaintainer",
          "type": "address"
        }
      ],
      "name": "removeMaintainer",
      "outputs": [],
      "stateMutability": "nonpayable",
      "type": "function"
    },
    {
      "inputs": [
        {
          "internalType": "address[]",
          "name": "_pools",
          "type": "address[]"
        }
      ],
      "name": "removePools",
      "outputs": [],
      "stateMutability": "nonpayable",
      "type": "function"
    },
    {
      "inputs": [
        {
          "internalType": "bytes32",
          "name": "role",
          "type": "bytes32"
        },
        {
          "internalType": "address",
          "name": "account",
          "type": "address"
        }
      ],
      "name": "renounceRole",
      "outputs": [],
      "stateMutability": "nonpayable",
      "type": "function"
    },
    {
      "inputs": [
        {
          "internalType": "bytes32",
          "name": "role",
          "type": "bytes32"
        }
      ],
      "name": "renounceRole",
      "outputs": [],
      "stateMutability": "nonpayable",
      "type": "function"
    },
    {
      "inputs": [
        {
          "internalType": "address",
          "name": "_token",
          "type": "address"
        },
        {
          "internalType": "address",
          "name": "_spender",
          "type": "address"
        }
      ],
      "name": "revokeAllowance",
      "outputs": [],
      "stateMutability": "nonpayable",
      "type": "function"
    },
    {
      "inputs": [
        {
          "internalType": "bytes32",
          "name": "role",
          "type": "bytes32"
        },
        {
          "internalType": "address",
          "name": "account",
          "type": "address"
        }
      ],
      "name": "revokeRole",
      "outputs": [],
      "stateMutability": "nonpayable",
      "type": "function"
    },
    {
      "inputs": [
        {
          "internalType": "uint256",
          "name": "_estimate",
          "type": "uint256"
        }
      ],
      "name": "setSwapGasEstimate",
      "outputs": [],
      "stateMutability": "nonpayable",
      "type": "function"
    },
    {
      "inputs": [
        {
          "internalType": "bytes4",
          "name": "interfaceId",
          "type": "bytes4"
        }
      ],
      "name": "supportsInterface",
      "outputs": [
        {
          "internalType": "bool",
          "name": "",
          "type": "bool"
        }
      ],
      "stateMutability": "view",
      "type": "function"
    },
    {
      "inputs": [
        {
          "internalType": "uint256",
          "name": "_amountIn",
          "type": "uint256"
        },
        {
          "internalType": "uint256",
          "name": "_amountOut",
          "type": "uint256"
        },
        {
          "internalType": "address",
          "name": "_fromToken",
          "type": "address"
        },
        {
          "internalType": "address",
          "name": "_toToken",
          "type": "address"
        },
        {
          "internalType": "address",
          "name": "_to",
          "type": "address"
        }
      ],
      "name": "swap",
      "outputs": [],
      "stateMutability": "nonpayable",
      "type": "function"
    },
    {
      "inputs": [],
      "name": "swapGasEstimate",
      "outputs": [
        {
          "internalType": "uint256",
          "name": "",
          "type": "uint256"
        }
      ],
      "stateMutability": "view",
      "type": "function"
    },
    {
      "inputs": [
        {
          "internalType": "address",
          "name": "newOwner",
          "type": "address"
        }
      ],
      "name": "transferOwnership",
      "outputs": [],
      "stateMutability": "nonpayable",
      "type": "function"
    },
    {
      "inputs": [],
      "name": "vault",
      "outputs": [
        {
          "internalType": "address",
          "name": "",
          "type": "address"
        }
      ],
      "stateMutability": "view",
      "type": "function"
    },
    {
      "stateMutability": "payable",
      "type": "receive"
    }
  ],
  "transactionHash": "0x34c0c84f86f9c6a7d5da03a769edd70c091a1e474e6d1ab6f5ad8dc4d18d4454",
  "args": [
    "BalancerV2Adapter",
    "0xBA12222222228d8Ba445958a75a0704d566BF2C8",
    [
      "0x64541216bAFFFEec8ea535BB71Fbc927831d0595"
    ],
    280000
  ],
  "solcInputHash": "3d31bd7e10bf3531f6c263bc3f164c5d",
  "bytecode": "0x60806040523480156200001157600080fd5b5060405162003bc938038062003bc9833981016040819052620000349162000c44565b83813362000044600082620000b9565b620000707f339759585899103d2ace64958e37e18ccb0504652c81d4a1b8aa80fe2126ab9582620000b9565b506200007c82620000c9565b620000878162000132565b5050600380546001600160a01b0319166001600160a01b038516179055620000af826200022e565b5050505062000e65565b620000c5828262000598565b5050565b80516200011d5760405162461bcd60e51b815260206004820152601460248201527f496e76616c69642061646170746572206e616d6500000000000000000000000060448201526064015b60405180910390fd5b8051620000c590600290602084019062000988565b33600081815260008051602062003b89833981519152602052604090205460ff16620001a15760405162461bcd60e51b8152602060048201526028602482015260008051602062003ba983398151915260448201526734b73a30b4b732b960c11b606482015260840162000114565b81620001f05760405162461bcd60e51b815260206004820152601460248201527f496e76616c6964206761732d657374696d617465000000000000000000000000604482015260640162000114565b600182905560405182815230907ff43f23b7a28e6f8ce6843a21bd7b48bce778aa913b8c8cf459edf7d770e8d38a9060200160405180910390a25050565b33600081815260008051602062003b89833981519152602052604090205460ff166200029d5760405162461bcd60e51b8152602060048201526028602482015260008051602062003ba983398151915260448201526734b73a30b4b732b960c11b606482015260840162000114565b60005b8251816001600160801b031610156200059357600083826001600160801b031681518110620002df57634e487b7160e01b600052603260045260246000fd5b602002602001015190506000816001600160a01b03166338fff2d06040518163ffffffff1660e01b815260040160206040518083038186803b1580156200032557600080fd5b505afa1580156200033a573d6000803e3d6000fd5b505050506040513d601f19601f8201168201806040525081019062000360919062000c2b565b600354604051631f29a8cd60e31b8152600481018390529192506000916001600160a01b039091169063f94d46689060240160006040518083038186803b158015620003ab57600080fd5b505afa158015620003c0573d6000803e3d6000fd5b505050506040513d6000823e601f3d908101601f19168201604052620003ea919081019062000b26565b5050905060005b8151816001600160801b031610156200057957600082826001600160801b0316815181106200043057634e487b7160e01b600052603260045260246000fd5b6020908102919091018101516001600160a01b038781166000908152600484526040808220928416825291909352822080546001600160801b0319166001600160801b03861617905591505b8351816001600160801b031610156200056157806001600160801b0316836001600160801b0316146200054c576001600160a01b0382166000908152600560205260408120855190919086906001600160801b038516908110620004f057634e487b7160e01b600052603260045260246000fd5b6020908102919091018101516001600160a01b039081168352828201939093526040909101600090812080546001810182559082529190200180546001600160a01b0319169188169190911790556200054c8260001962000638565b80620005588162000e02565b9150506200047c565b50508080620005709062000e02565b915050620003f1565b5050505080806200058a9062000e02565b915050620002a0565b505050565b6000828152602081815260408083206001600160a01b038516845290915290205460ff16620000c5576000828152602081815260408083206001600160a01b03851684529091529020805460ff19166001179055620005f43390565b6001600160a01b0316816001600160a01b0316837f2f8788117e7eff1d82e926ec794901d17c78024a50270940304540a733656f0d60405160405180910390a45050565b600354604051636eb1769f60e11b81523060048201526001600160a01b03918216602482015260009184169063dd62ed3e9060440160206040518083038186803b1580156200068657600080fd5b505afa1580156200069b573d6000803e3d6000fd5b505050506040513d601f19601f82011682018060405250810190620006c1919062000c2b565b905081811015620005935760035462000593906001600160a01b03858116911684620006f4602090811b620015fb17901c565b801580620007825750604051636eb1769f60e11b81523060048201526001600160a01b03838116602483015284169063dd62ed3e9060440160206040518083038186803b1580156200074557600080fd5b505afa1580156200075a573d6000803e3d6000fd5b505050506040513d601f19601f8201168201806040525081019062000780919062000c2b565b155b620007f65760405162461bcd60e51b815260206004820152603660248201527f5361666545524332303a20617070726f76652066726f6d206e6f6e2d7a65726f60448201527f20746f206e6f6e2d7a65726f20616c6c6f77616e636500000000000000000000606482015260840162000114565b604080516001600160a01b038416602482015260448082018490528251808303909101815260649091019091526020810180516001600160e01b0390811663095ea7b360e01b17909152620005939185916200084e16565b600080836001600160a01b0316836040516200086b919062000d1f565b6000604051808303816000865af19150503d8060008114620008aa576040519150601f19603f3d011682016040523d82523d6000602084013e620008af565b606091505b509150915081620009035760405162461bcd60e51b815260206004820181905260248201527f5361666545524332303a206c6f772d6c6576656c2063616c6c206661696c6564604482015260640162000114565b80511562000982578080602001905181019062000921919062000c02565b620009825760405162461bcd60e51b815260206004820152602a60248201527f5361666545524332303a204552433230206f7065726174696f6e20646964206e6044820152691bdd081cdd58d8d9595960b21b606482015260840162000114565b50505050565b828054620009969062000dc5565b90600052602060002090601f016020900481019282620009ba576000855562000a05565b82601f10620009d557805160ff191683800117855562000a05565b8280016001018555821562000a05579182015b8281111562000a05578251825591602001919060010190620009e8565b5062000a1392915062000a17565b5090565b5b8082111562000a13576000815560010162000a18565b805162000a3b8162000e4c565b919050565b600082601f83011262000a51578081fd5b8151602062000a6a62000a648362000d70565b62000d3d565b80838252828201915082860187848660051b890101111562000a8a578586fd5b855b8581101562000ab557815162000aa28162000e4c565b8452928401929084019060010162000a8c565b5090979650505050505050565b600082601f83011262000ad3578081fd5b8151602062000ae662000a648362000d70565b80838252828201915082860187848660051b890101111562000b06578586fd5b855b8581101562000ab55781518452928401929084019060010162000b08565b60008060006060848603121562000b3b578283fd5b83516001600160401b038082111562000b52578485fd5b818601915086601f83011262000b66578485fd5b8151602062000b7962000a648362000d70565b8083825282820191508286018b848660051b890101111562000b9957898afd5b8996505b8487101562000bc857805162000bb38162000e4c565b83526001969096019591830191830162000b9d565b509189015191975090935050508082111562000be2578384fd5b5062000bf18682870162000ac2565b925050604084015190509250925092565b60006020828403121562000c14578081fd5b8151801515811462000c24578182fd5b9392505050565b60006020828403121562000c3d578081fd5b5051919050565b6000806000806080858703121562000c5a578081fd5b84516001600160401b038082111562000c71578283fd5b818701915087601f83011262000c85578283fd5b81518181111562000c9a5762000c9a62000e36565b62000caf601f8201601f191660200162000d3d565b81815289602083860101111562000cc4578485fd5b62000cd782602083016020870162000d96565b965062000ce990506020880162000a2e565b9450604087015191508082111562000cff578283fd5b5062000d0e8782880162000a40565b606096909601519497939650505050565b6000825162000d3381846020870162000d96565b9190910192915050565b604051601f8201601f191681016001600160401b038111828210171562000d685762000d6862000e36565b604052919050565b60006001600160401b0382111562000d8c5762000d8c62000e36565b5060051b60200190565b60005b8381101562000db357818101518382015260200162000d99565b83811115620009825750506000910152565b600181811c9082168062000dda57607f821691505b6020821081141562000dfc57634e487b7160e01b600052602260045260246000fd5b50919050565b60006001600160801b038281168082141562000e2c57634e487b7160e01b83526011600452602483fd5b6001019392505050565b634e487b7160e01b600052604160045260246000fd5b6001600160a01b038116811462000e6257600080fd5b50565b612d148062000e756000396000f3fe60806040526004361061018f5760003560e01c80638980f11f116100d6578063d8baf7cf1161007f578063f2fde38b11610059578063f2fde38b1461048e578063f8742254146104ae578063fbfa77cf146104e257600080fd5b8063d8baf7cf1461042e578063eab90da61461044e578063ef99893a1461046e57600080fd5b8063a217fddf116100b0578063a217fddf146103d9578063b36a4ab1146103ee578063d547741f1461040e57600080fd5b80638980f11f146103555780638bb9c5bf1461037557806391d148541461039557600080fd5b80634ebb7916116101385780636b453c1f116101125780636b453c1f146102f55780637ae267731461031557806384a33e631461033557600080fd5b80634ebb7916146102925780635b1dc86f146102b257806369cff80d146102df57600080fd5b80632f2ff15d116101695780632f2ff15d1461023057806336568abe146102525780634b1641401461027257600080fd5b806301ffc9a71461019b57806306fdde03146101d0578063248a9ca3146101f257600080fd5b3661019657005b600080fd5b3480156101a757600080fd5b506101bb6101b63660046127a4565b61051a565b60405190151581526020015b60405180910390f35b3480156101dc57600080fd5b506101e5610583565b6040516101c791906129a3565b3480156101fe57600080fd5b5061022261020d366004612750565b60009081526020819052604090206001015490565b6040519081526020016101c7565b34801561023c57600080fd5b5061025061024b366004612780565b610611565b005b34801561025e57600080fd5b5061025061026d366004612780565b61063b565b34801561027e57600080fd5b5061025061028d3660046125c5565b6106cc565b34801561029e57600080fd5b506102506102ad366004612750565b610b43565b3480156102be57600080fd5b506102d26102cd366004612562565b610c8b565b6040516101c79190612956565b3480156102eb57600080fd5b5061022260015481565b34801561030157600080fd5b50610250610310366004612546565b610d0e565b34801561032157600080fd5b50610250610330366004612562565b610d3b565b34801561034157600080fd5b50610250610350366004612750565b610ddf565b34801561036157600080fd5b5061025061037036600461259a565b610ef2565b34801561038157600080fd5b50610250610390366004612750565b61102d565b3480156103a157600080fd5b506101bb6103b0366004612780565b6000918252602082815260408084206001600160a01b0393909316845291905290205460ff1690565b3480156103e557600080fd5b50610222600081565b3480156103fa57600080fd5b506102506104093660046125c5565b611038565b34801561041a57600080fd5b50610250610429366004612780565b6113b9565b34801561043a57600080fd5b50610250610449366004612546565b6113de565b34801561045a57600080fd5b5061025061046936600461280d565b611408565b34801561047a57600080fd5b506102226104893660046127cc565b6115cd565b34801561049a57600080fd5b506102506104a9366004612546565b6115e4565b3480156104ba57600080fd5b506102227f339759585899103d2ace64958e37e18ccb0504652c81d4a1b8aa80fe2126ab9581565b3480156104ee57600080fd5b50600354610502906001600160a01b031681565b6040516001600160a01b0390911681526020016101c7565b60006001600160e01b031982167f7965db0b00000000000000000000000000000000000000000000000000000000148061057d57507f01ffc9a7000000000000000000000000000000000000000000000000000000006001600160e01b03198316145b92915050565b6002805461059090612c20565b80601f01602080910402602001604051908101604052809291908181526020018280546105bc90612c20565b80156106095780601f106105de57610100808354040283529160200191610609565b820191906000526020600020905b8154815290600101906020018083116105ec57829003601f168201915b505050505081565b60008281526020819052604090206001015461062c81611787565b6106368383611791565b505050565b6001600160a01b03811633146106be5760405162461bcd60e51b815260206004820152602f60248201527f416363657373436f6e74726f6c3a2063616e206f6e6c792072656e6f756e636560448201527f20726f6c657320666f722073656c66000000000000000000000000000000000060648201526084015b60405180910390fd5b6106c8828261182f565b5050565b3360008181527fa54247010af6b3693b80aceddfad12e077c5de3571e6243fada502635f0d7d39602052604090205460ff1661075b5760405162461bcd60e51b815260206004820152602860248201527f4d61696e7461696e61626c653a2043616c6c6572206973206e6f742061206d6160448201526734b73a30b4b732b960c11b60648201526084016106b5565b60005b825181101561063657600083828151811061078957634e487b7160e01b600052603260045260246000fd5b602002602001015190506000816001600160a01b03166338fff2d06040518163ffffffff1660e01b815260040160206040518083038186803b1580156107ce57600080fd5b505afa1580156107e2573d6000803e3d6000fd5b505050506040513d601f19601f820116820180604052508101906108069190612768565b600354604051631f29a8cd60e31b8152600481018390529192506000916001600160a01b039091169063f94d46689060240160006040518083038186803b15801561085057600080fd5b505afa158015610864573d6000803e3d6000fd5b505050506040513d6000823e601f3d908101601f1916820160405261088c9190810190612661565b5050905060005b8151816001600160801b03161015610b2c57600082826001600160801b0316815181106108d057634e487b7160e01b600052603260045260246000fd5b6020026020010151905060005b8351816001600160801b03161015610b1757806001600160801b0316836001600160801b031614610b05576001600160a01b03821660009081526005602052604081208551829087906001600160801b03861690811061094d57634e487b7160e01b600052603260045260246000fd5b60200260200101516001600160a01b03166001600160a01b031681526020019081526020016000208054806020026020016040519081016040528092919081815260200182805480156109c957602002820191906000526020600020905b81546001600160a01b031681526001909101906020018083116109ab575b5050505050905060005b8151816001600160801b03161015610a8057876001600160a01b031682826001600160801b031681518110610a1857634e487b7160e01b600052603260045260246000fd5b60200260200101516001600160a01b03161415610a6e5781816001600160801b031681518110610a5857634e487b7160e01b600052603260045260246000fd5b6020026020010160006001600160a01b03168152505b80610a7881612c5b565b9150506109d3565b506001600160a01b0383166000908152600560205260408120865183929088906001600160801b038716908110610ac757634e487b7160e01b600052603260045260246000fd5b60200260200101516001600160a01b03166001600160a01b031681526020019081526020016000209080519060200190610b02929190612450565b50505b80610b0f81612c5b565b9150506108dd565b50508080610b2490612c5b565b915050610893565b505050508080610b3b90612c82565b91505061075e565b3360008181527fa54247010af6b3693b80aceddfad12e077c5de3571e6243fada502635f0d7d39602052604090205460ff16610bd25760405162461bcd60e51b815260206004820152602860248201527f4d61696e7461696e61626c653a2043616c6c6572206973206e6f742061206d6160448201526734b73a30b4b732b960c11b60648201526084016106b5565b60008211610c225760405162461bcd60e51b815260206004820152601e60248201527f59616b416461707465723a204e6f7468696e6720746f207265636f766572000060448201526064016106b5565b604051339083156108fc029084906000818181858888f19350505050158015610c4f573d6000803e3d6000fd5b506040518281526000907f8c1256b8896378cd5044f80c202f9772b9d77dc85c8a6eb51967210b09bfaa28906020015b60405180910390a25050565b6001600160a01b038083166000908152600560209081526040808320938516835292815290829020805483518184028101840190945280845260609392830182828015610d0157602002820191906000526020600020905b81546001600160a01b03168152600190910190602001808311610ce3575b5050505050905092915050565b610d387f339759585899103d2ace64958e37e18ccb0504652c81d4a1b8aa80fe2126ab9582610611565b50565b3360008181527fa54247010af6b3693b80aceddfad12e077c5de3571e6243fada502635f0d7d39602052604090205460ff16610dca5760405162461bcd60e51b815260206004820152602860248201527f4d61696e7461696e61626c653a2043616c6c6572206973206e6f742061206d6160448201526734b73a30b4b732b960c11b60648201526084016106b5565b6106366001600160a01b0384168360006115fb565b3360008181527fa54247010af6b3693b80aceddfad12e077c5de3571e6243fada502635f0d7d39602052604090205460ff16610e6e5760405162461bcd60e51b815260206004820152602860248201527f4d61696e7461696e61626c653a2043616c6c6572206973206e6f742061206d6160448201526734b73a30b4b732b960c11b60648201526084016106b5565b81610ebb5760405162461bcd60e51b815260206004820152601460248201527f496e76616c6964206761732d657374696d61746500000000000000000000000060448201526064016106b5565b600182905560405182815230907ff43f23b7a28e6f8ce6843a21bd7b48bce778aa913b8c8cf459edf7d770e8d38a90602001610c7f565b3360008181527fa54247010af6b3693b80aceddfad12e077c5de3571e6243fada502635f0d7d39602052604090205460ff16610f815760405162461bcd60e51b815260206004820152602860248201527f4d61696e7461696e61626c653a2043616c6c6572206973206e6f742061206d6160448201526734b73a30b4b732b960c11b60648201526084016106b5565b60008211610fd15760405162461bcd60e51b815260206004820152601e60248201527f59616b416461707465723a204e6f7468696e6720746f207265636f766572000060448201526064016106b5565b610fe56001600160a01b03841633846118ae565b826001600160a01b03167f8c1256b8896378cd5044f80c202f9772b9d77dc85c8a6eb51967210b09bfaa288360405161102091815260200190565b60405180910390a2505050565b336106c8828261063b565b3360008181527fa54247010af6b3693b80aceddfad12e077c5de3571e6243fada502635f0d7d39602052604090205460ff166110c75760405162461bcd60e51b815260206004820152602860248201527f4d61696e7461696e61626c653a2043616c6c6572206973206e6f742061206d6160448201526734b73a30b4b732b960c11b60648201526084016106b5565b60005b8251816001600160801b0316101561063657600083826001600160801b03168151811061110757634e487b7160e01b600052603260045260246000fd5b602002602001015190506000816001600160a01b03166338fff2d06040518163ffffffff1660e01b815260040160206040518083038186803b15801561114c57600080fd5b505afa158015611160573d6000803e3d6000fd5b505050506040513d601f19601f820116820180604052508101906111849190612768565b600354604051631f29a8cd60e31b8152600481018390529192506000916001600160a01b039091169063f94d46689060240160006040518083038186803b1580156111ce57600080fd5b505afa1580156111e2573d6000803e3d6000fd5b505050506040513d6000823e601f3d908101601f1916820160405261120a9190810190612661565b5050905060005b8151816001600160801b031610156113a257600082826001600160801b03168151811061124e57634e487b7160e01b600052603260045260246000fd5b6020908102919091018101516001600160a01b038781166000908152600484526040808220928416825291909352822080546fffffffffffffffffffffffffffffffff19166001600160801b03861617905591505b8351816001600160801b0316101561138d57806001600160801b0316836001600160801b03161461137b576001600160a01b0382166000908152600560205260408120855190919086906001600160801b03851690811061131457634e487b7160e01b600052603260045260246000fd5b6020908102919091018101516001600160a01b0390811683528282019390935260409091016000908120805460018101825590825291902001805473ffffffffffffffffffffffffffffffffffffffff191691881691909117905561137b826000196118f7565b8061138581612c5b565b9150506112a3565b5050808061139a90612c5b565b915050611211565b5050505080806113b190612c5b565b9150506110ca565b6000828152602081905260409020600101546113d481611787565b610636838361182f565b610d387f339759585899103d2ace64958e37e18ccb0504652c81d4a1b8aa80fe2126ab95826113b9565b6040516370a0823160e01b81526001600160a01b038281166004830152600091908416906370a082319060240160206040518083038186803b15801561144d57600080fd5b505afa158015611461573d6000803e3d6000fd5b505050506040513d601f19601f820116820180604052508101906114859190612768565b905061149486868686866119a0565b6040516370a0823160e01b81526001600160a01b03838116600483015260009183918616906370a082319060240160206040518083038186803b1580156114da57600080fd5b505afa1580156114ee573d6000803e3d6000fd5b505050506040513d601f19601f820116820180604052508101906115129190612768565b61151c9190612bc6565b90508581101561156e5760405162461bcd60e51b815260206004820152601760248201527f496e73756666696369656e7420616d6f756e742d6f757400000000000000000060448201526064016106b5565b836001600160a01b0316856001600160a01b03167fe2bdbc6b7225eb0a972ac943c485a6cc05f7c6811838bce8903f23200fb744fa89896040516115bc929190918252602082015260400190565b60405180910390a350505050505050565b60006115da848484611c32565b90505b9392505050565b336115f0600083610611565b6106c860008261063b565b8015806116845750604051636eb1769f60e11b81523060048201526001600160a01b03838116602483015284169063dd62ed3e9060440160206040518083038186803b15801561164a57600080fd5b505afa15801561165e573d6000803e3d6000fd5b505050506040513d601f19601f820116820180604052508101906116829190612768565b155b6116f65760405162461bcd60e51b815260206004820152603660248201527f5361666545524332303a20617070726f76652066726f6d206e6f6e2d7a65726f60448201527f20746f206e6f6e2d7a65726f20616c6c6f77616e63650000000000000000000060648201526084016106b5565b6040516001600160a01b0383166024820152604481018290526106369084907f095ea7b300000000000000000000000000000000000000000000000000000000906064015b60408051601f198184030181529190526020810180517bffffffffffffffffffffffffffffffffffffffffffffffffffffffff166001600160e01b031990931692909217909152611c9a565b610d388133611ddc565b6000828152602081815260408083206001600160a01b038516845290915290205460ff166106c8576000828152602081815260408083206001600160a01b03851684529091529020805460ff191660011790556117eb3390565b6001600160a01b0316816001600160a01b0316837f2f8788117e7eff1d82e926ec794901d17c78024a50270940304540a733656f0d60405160405180910390a45050565b6000828152602081815260408083206001600160a01b038516845290915290205460ff16156106c8576000828152602081815260408083206001600160a01b0385168085529252808320805460ff1916905551339285917ff6391f5c32d9c69d2a47ea670b442974b53935d1edc7fd64eb21e047a839171b9190a45050565b6040516001600160a01b0383166024820152604481018290526106369084907fa9059cbb000000000000000000000000000000000000000000000000000000009060640161173b565b600354604051636eb1769f60e11b81523060048201526001600160a01b03918216602482015260009184169063dd62ed3e9060440160206040518083038186803b15801561194457600080fd5b505afa158015611958573d6000803e3d6000fd5b505050506040513d601f19601f8201168201806040525081019061197c9190612768565b90508181101561063657600354610636906001600160a01b038581169116846115fb565b60006119ac8484610c8b565b905060008151116119ff5760405162461bcd60e51b815260206004820152601560248201527f4e6f20706f6f6c7320666f72207377617070696e67000000000000000000000060448201526064016106b5565b6000611a0d8286868a611e5a565b5090506001600160a01b038116611a665760405162461bcd60e51b815260206004820152600e60248201527f556e646566696e656420706f6f6c00000000000000000000000000000000000060448201526064016106b5565b611ab26040805160c0810190915260008082526020820190815260200160006001600160a01b0316815260200160006001600160a01b0316815260200160008152602001606081525090565b816001600160a01b03166338fff2d06040518163ffffffff1660e01b815260040160206040518083038186803b158015611aeb57600080fd5b505afa158015611aff573d6000803e3d6000fd5b505050506040513d601f19601f82011682018060405250810190611b239190612768565b8152600060208083018290526001600160a01b0388811660408086019190915288821660608087019190915260808087018e9052825180840184526002815261060f60f31b8187015260a0880152825190810183529384018590528301939093523082528681168284015260035492517f52bbbe29000000000000000000000000000000000000000000000000000000008152919216906352bbbe2990611bd490859085908d9042906004016129b6565b602060405180830381600087803b158015611bee57600080fd5b505af1158015611c02573d6000803e3d6000fd5b505050506040513d601f19601f82011682018060405250810190611c269190612768565b50505050505050505050565b6000831580611c525750816001600160a01b0316836001600160a01b0316145b15611c5f575060006115dd565b6000611c6b8484610c8b565b9050805160001415611c815760009150506115dd565b6000611c8f82868689611e5a565b979650505050505050565b600080836001600160a01b031683604051611cb591906128b9565b6000604051808303816000865af19150503d8060008114611cf2576040519150601f19603f3d011682016040523d82523d6000602084013e611cf7565b606091505b509150915081611d495760405162461bcd60e51b815260206004820181905260248201527f5361666545524332303a206c6f772d6c6576656c2063616c6c206661696c656460448201526064016106b5565b805115611dd65780806020019051810190611d649190612730565b611dd65760405162461bcd60e51b815260206004820152602a60248201527f5361666545524332303a204552433230206f7065726174696f6e20646964206e60448201527f6f7420737563636565640000000000000000000000000000000000000000000060648201526084016106b5565b50505050565b6000828152602081815260408083206001600160a01b038516845290915290205460ff166106c857611e18816001600160a01b0316601461200e565b611e2383602061200e565b604051602001611e349291906128d5565b60408051601f198184030181529082905262461bcd60e51b82526106b5916004016129a3565b600080805b8651816001600160801b0316101561200457600087826001600160801b031681518110611e9c57634e487b7160e01b600052603260045260246000fd5b6020026020010151905060006001600160a01b0316816001600160a01b03161415611ec75750611ff2565b604080516101208101825260008082526020820181905291810182905260608082018390526080820183905260a0820183905260c0820183905260e0820192909252610100810191909152816001600160a01b03166338fff2d06040518163ffffffff1660e01b815260040160206040518083038186803b158015611f4b57600080fd5b505afa158015611f5f573d6000803e3d6000fd5b505050506040513d601f19601f82011682018060405250810190611f839190612768565b608082015260008082526001600160a01b038981166020808501919091529089166040808501919091526060840189905280518082019091526002815261060f60f31b91810191909152610100830152611fdd8284612235565b905084811115611fee578094508295505b5050505b80611ffc81612c5b565b915050611e5f565b5094509492505050565b6060600061201d836002612ba7565b612028906002612b8f565b67ffffffffffffffff81111561204e57634e487b7160e01b600052604160045260246000fd5b6040519080825280601f01601f191660200182016040528015612078576020820181803683370190505b5090507f3000000000000000000000000000000000000000000000000000000000000000816000815181106120bd57634e487b7160e01b600052603260045260246000fd5b60200101906001600160f81b031916908160001a9053507f78000000000000000000000000000000000000000000000000000000000000008160018151811061211657634e487b7160e01b600052603260045260246000fd5b60200101906001600160f81b031916908160001a905350600061213a846002612ba7565b612145906001612b8f565b90505b60018111156121e6577f303132333435363738396162636465660000000000000000000000000000000085600f166010811061219457634e487b7160e01b600052603260045260246000fd5b1a60f81b8282815181106121b857634e487b7160e01b600052603260045260246000fd5b60200101906001600160f81b031916908160001a90535060049490941c936121df81612c09565b9050612148565b5083156115dd5760405162461bcd60e51b815260206004820181905260248201527f537472696e67733a20686578206c656e67746820696e73756666696369656e7460448201526064016106b5565b6003546080830151604051631f29a8cd60e31b815260009283926001600160a01b039091169163f94d4668916122719160040190815260200190565b60006040518083038186803b15801561228957600080fd5b505afa15801561229d573d6000803e3d6000fd5b505050506040513d6000823e601f3d908101601f191682016040526122c59190810190612661565b506001600160a01b0380861660009081526004602090815260408083208a830151909416835292905290812054825192945090925083916001600160801b0390911690811061232457634e487b7160e01b600052603260045260246000fd5b6020908102919091018101516001600160a01b0380871660009081526004845260408082208a820151909316825291909352822054845191935084916001600160801b0390911690811061238857634e487b7160e01b600052603260045260246000fd5b6020026020010151905061239e868383886123a8565b9695505050505050565b6040517f9d2c110c0000000000000000000000000000000000000000000000000000000081526000906001600160a01b03831690639d2c110c906123f490889088908890600401612a73565b60206040518083038186803b15801561240c57600080fd5b505afa92505050801561243c575060408051601f3d908101601f1916820190925261243991810190612768565b60015b61244557612448565b90505b949350505050565b8280548282559060005260206000209081019282156124b2579160200282015b828111156124b2578251825473ffffffffffffffffffffffffffffffffffffffff19166001600160a01b03909116178255602090920191600190910190612470565b506124be9291506124c2565b5090565b5b808211156124be57600081556001016124c3565b600082601f8301126124e7578081fd5b815160206124fc6124f783612b6b565b612b3a565b80838252828201915082860187848660051b890101111561251b578586fd5b855b858110156125395781518452928401929084019060010161251d565b5090979650505050505050565b600060208284031215612557578081fd5b81356115dd81612cc9565b60008060408385031215612574578081fd5b823561257f81612cc9565b9150602083013561258f81612cc9565b809150509250929050565b600080604083850312156125ac578182fd5b82356125b781612cc9565b946020939093013593505050565b600060208083850312156125d7578182fd5b823567ffffffffffffffff8111156125ed578283fd5b8301601f810185136125fd578283fd5b803561260b6124f782612b6b565b80828252848201915084840188868560051b870101111561262a578687fd5b8694505b8385101561265557803561264181612cc9565b83526001949094019391850191850161262e565b50979650505050505050565b600080600060608486031215612675578081fd5b835167ffffffffffffffff8082111561268c578283fd5b818601915086601f83011261269f578283fd5b815160206126af6124f783612b6b565b8083825282820191508286018b848660051b89010111156126ce578788fd5b8796505b848710156126f95780516126e581612cc9565b8352600196909601959183019183016126d2565b5091890151919750909350505080821115612712578283fd5b5061271f868287016124d7565b925050604084015190509250925092565b600060208284031215612741578081fd5b815180151581146115dd578182fd5b600060208284031215612761578081fd5b5035919050565b600060208284031215612779578081fd5b5051919050565b60008060408385031215612792578182fd5b82359150602083013561258f81612cc9565b6000602082840312156127b5578081fd5b81356001600160e01b0319811681146115dd578182fd5b6000806000606084860312156127e0578081fd5b8335925060208401356127f281612cc9565b9150604084013561280281612cc9565b809150509250925092565b600080600080600060a08688031215612824578283fd5b8535945060208601359350604086013561283d81612cc9565b9250606086013561284d81612cc9565b9150608086013561285d81612cc9565b809150509295509295909350565b60008151808452612883816020860160208601612bdd565b601f01601f19169290920160200192915050565b600281106128b557634e487b7160e01b600052602160045260246000fd5b9052565b600082516128cb818460208701612bdd565b9190910192915050565b7f416363657373436f6e74726f6c3a206163636f756e742000000000000000000081526000835161290d816017850160208801612bdd565b7f206973206d697373696e6720726f6c6520000000000000000000000000000000601791840191820152835161294a816028840160208801612bdd565b01602801949350505050565b6020808252825182820181905260009190848201906040850190845b818110156129975783516001600160a01b031683529284019291840191600101612972565b50909695505050505050565b6020815260006115dd602083018461286b565b60e08152845160e0820152600060208601516129d6610100840182612897565b5060408601516001600160a01b03908116610120840152606087015116610140830152608086015161016083015260a086015160c0610180840152612a1f6101a084018261286b565b915050612a6160208301866001600160a01b03808251168352602082015115156020840152806040830151166040840152506060810151151560608301525050565b60a082019390935260c0015292915050565b60608152612a85606082018551612897565b60006020850151612aa160808401826001600160a01b03169052565b5060408501516001600160a01b03811660a084015250606085015160c0830152608085015160e083015260a0850151610100818185015260c08701519150610120612af6818601846001600160a01b03169052565b60e08801516001600160a01b0316610140860152908701516101608501919091529050612b2761018084018261286b565b6020840195909552505060400152919050565b604051601f8201601f1916810167ffffffffffffffff81118282101715612b6357612b63612cb3565b604052919050565b600067ffffffffffffffff821115612b8557612b85612cb3565b5060051b60200190565b60008219821115612ba257612ba2612c9d565b500190565b6000816000190483118215151615612bc157612bc1612c9d565b500290565b600082821015612bd857612bd8612c9d565b500390565b60005b83811015612bf8578181015183820152602001612be0565b83811115611dd65750506000910152565b600081612c1857612c18612c9d565b506000190190565b600181811c90821680612c3457607f821691505b60208210811415612c5557634e487b7160e01b600052602260045260246000fd5b50919050565b60006001600160801b0380831681811415612c7857612c78612c9d565b6001019392505050565b6000600019821415612c9657612c96612c9d565b5060010190565b634e487b7160e01b600052601160045260246000fd5b634e487b7160e01b600052604160045260246000fd5b6001600160a01b0381168114610d3857600080fdfea2646970667358221220480729bb7d86aac270d3af2f7c609ddbe066f548b13a3b2223c34b0fc518245c64736f6c63430008040033a54247010af6b3693b80aceddfad12e077c5de3571e6243fada502635f0d7d394d61696e7461696e61626c653a2043616c6c6572206973206e6f742061206d61",
  "devdoc": {
    "kind": "dev",
    "methods": {
      "getRoleAdmin(bytes32)": {
        "details": "Returns the admin role that controls `role`. See {grantRole} and {revokeRole}. To change a role's admin, use {_setRoleAdmin}."
      },
      "grantRole(bytes32,address)": {
        "details": "Grants `role` to `account`. If `account` had not been already granted `role`, emits a {RoleGranted} event. Requirements: - the caller must have ``role``'s admin role. May emit a {RoleGranted} event."
      },
      "hasRole(bytes32,address)": {
        "details": "Returns `true` if `account` has been granted `role`."
      },
      "renounceRole(bytes32,address)": {
        "details": "Revokes `role` from the calling account. Roles are often managed via {grantRole} and {revokeRole}: this function's purpose is to provide a mechanism for accounts to lose their privileges if they are compromised (such as when a trusted device is misplaced). If the calling account had been revoked `role`, emits a {RoleRevoked} event. Requirements: - the caller must be `account`. May emit a {RoleRevoked} event."
      },
      "revokeRole(bytes32,address)": {
        "details": "Revokes `role` from `account`. If `account` had been granted `role`, emits a {RoleRevoked} event. Requirements: - the caller must have ``role``'s admin role. May emit a {RoleRevoked} event."
      },
      "supportsInterface(bytes4)": {
        "details": "See {IERC165-supportsInterface}."
      }
    },
    "version": 1
  },
  "userdoc": {
    "kind": "user",
    "methods": {},
    "version": 1
  },
  "storageLayout": {
    "storage": [
      {
        "astId": 24,
        "contract": "src/contracts/adapters/BalancerV2Adapter.sol:BalancerV2Adapter",
        "label": "_roles",
        "offset": 0,
        "slot": "0",
        "type": "t_mapping(t_bytes32,t_struct(RoleData)19_storage)"
      },
      {
        "astId": 1451,
        "contract": "src/contracts/adapters/BalancerV2Adapter.sol:BalancerV2Adapter",
        "label": "swapGasEstimate",
        "offset": 0,
        "slot": "1",
        "type": "t_uint256"
      },
      {
        "astId": 1453,
        "contract": "src/contracts/adapters/BalancerV2Adapter.sol:BalancerV2Adapter",
        "label": "name",
        "offset": 0,
        "slot": "2",
        "type": "t_string_storage"
      },
      {
        "astId": 3934,
        "contract": "src/contracts/adapters/BalancerV2Adapter.sol:BalancerV2Adapter",
        "label": "vault",
        "offset": 0,
        "slot": "3",
        "type": "t_address"
      },
      {
        "astId": 3940,
        "contract": "src/contracts/adapters/BalancerV2Adapter.sol:BalancerV2Adapter",
        "label": "poolToTokenIndex",
        "offset": 0,
        "slot": "4",
        "type": "t_mapping(t_address,t_mapping(t_address,t_uint128))"
      },
      {
        "astId": 3947,
        "contract": "src/contracts/adapters/BalancerV2Adapter.sol:BalancerV2Adapter",
        "label": "tokensToPools",
        "offset": 0,
        "slot": "5",
        "type": "t_mapping(t_address,t_mapping(t_address,t_array(t_address)dyn_storage))"
      }
    ],
    "types": {
      "t_address": {
        "encoding": "inplace",
        "label": "address",
        "numberOfBytes": "20"
      },
      "t_array(t_address)dyn_storage": {
        "base": "t_address",
        "encoding": "dynamic_array",
        "label": "address[]",
        "numberOfBytes": "32"
      },
      "t_bool": {
        "encoding": "inplace",
        "label": "bool",
        "numberOfBytes": "1"
      },
      "t_bytes32": {
        "encoding": "inplace",
        "label": "bytes32",
        "numberOfBytes": "32"
      },
      "t_mapping(t_address,t_array(t_address)dyn_storage)": {
        "encoding": "mapping",
        "key": "t_address",
        "label": "mapping(address => address[])",
        "numberOfBytes": "32",
        "value": "t_array(t_address)dyn_storage"
      },
      "t_mapping(t_address,t_bool)": {
        "encoding": "mapping",
        "key": "t_address",
        "label": "mapping(address => bool)",
        "numberOfBytes": "32",
        "value": "t_bool"
      },
      "t_mapping(t_address,t_mapping(t_address,t_array(t_address)dyn_storage))": {
        "encoding": "mapping",
        "key": "t_address",
        "label": "mapping(address => mapping(address => address[]))",
        "numberOfBytes": "32",
        "value": "t_mapping(t_address,t_array(t_address)dyn_storage)"
      },
      "t_mapping(t_address,t_mapping(t_address,t_uint128))": {
        "encoding": "mapping",
        "key": "t_address",
        "label": "mapping(address => mapping(address => uint128))",
        "numberOfBytes": "32",
        "value": "t_mapping(t_address,t_uint128)"
      },
      "t_mapping(t_address,t_uint128)": {
        "encoding": "mapping",
        "key": "t_address",
        "label": "mapping(address => uint128)",
        "numberOfBytes": "32",
        "value": "t_uint128"
      },
      "t_mapping(t_bytes32,t_struct(RoleData)19_storage)": {
        "encoding": "mapping",
        "key": "t_bytes32",
        "label": "mapping(bytes32 => struct AccessControl.RoleData)",
        "numberOfBytes": "32",
        "value": "t_struct(RoleData)19_storage"
      },
      "t_string_storage": {
        "encoding": "bytes",
        "label": "string",
        "numberOfBytes": "32"
      },
      "t_struct(RoleData)19_storage": {
        "encoding": "inplace",
        "label": "struct AccessControl.RoleData",
        "members": [
          {
            "astId": 16,
            "contract": "src/contracts/adapters/BalancerV2Adapter.sol:BalancerV2Adapter",
            "label": "members",
            "offset": 0,
            "slot": "0",
            "type": "t_mapping(t_address,t_bool)"
          },
          {
            "astId": 18,
            "contract": "src/contracts/adapters/BalancerV2Adapter.sol:BalancerV2Adapter",
            "label": "adminRole",
            "offset": 0,
            "slot": "1",
            "type": "t_bytes32"
          }
        ],
        "numberOfBytes": "64"
      },
      "t_uint128": {
        "encoding": "inplace",
        "label": "uint128",
        "numberOfBytes": "16"
      },
      "t_uint256": {
        "encoding": "inplace",
        "label": "uint256",
        "numberOfBytes": "32"
      }
    }
  }
}