{
  "address": "0x103eC3eBaF97DBd9F314a776c609f9F51D22e7b2",
  "abi": [
    {
      "inputs": [
        {
          "internalType": "string",
          "name": "_name",
          "type": "string"
        },
        {
          "internalType": "address[]",
          "name": "_pools",
          "type": "address[]"
        },
        {
          "internalType": "uint256",
          "name": "_swapGasEstimate",
          "type": "uint256"
        }
      ],
      "stateMutability": "nonpayable",
      "type": "constructor"
    },
    {
      "anonymous": false,
      "inputs": [
        {
          "indexed": true,
          "internalType": "address",
          "name": "_asset",
          "type": "address"
        },
        {
          "indexed": false,
          "internalType": "uint256",
          "name": "amount",
          "type": "uint256"
        }
      ],
      "name": "Recovered",
      "type": "event"
    },
    {
      "anonymous": false,
      "inputs": [
        {
          "indexed": true,
          "internalType": "bytes32",
          "name": "role",
          "type": "bytes32"
        },
        {
          "indexed": true,
          "internalType": "bytes32",
          "name": "previousAdminRole",
          "type": "bytes32"
        },
        {
          "indexed": true,
          "internalType": "bytes32",
          "name": "newAdminRole",
          "type": "bytes32"
        }
      ],
      "name": "RoleAdminChanged",
      "type": "event"
    },
    {
      "anonymous": false,
      "inputs": [
        {
          "indexed": true,
          "internalType": "bytes32",
          "name": "role",
          "type": "bytes32"
        },
        {
          "indexed": true,
          "internalType": "address",
          "name": "account",
          "type": "address"
        },
        {
          "indexed": true,
          "internalType": "address",
          "name": "sender",
          "type": "address"
        }
      ],
      "name": "RoleGranted",
      "type": "event"
    },
    {
      "anonymous": false,
      "inputs": [
        {
          "indexed": true,
          "internalType": "bytes32",
          "name": "role",
          "type": "bytes32"
        },
        {
          "indexed": true,
          "internalType": "address",
          "name": "account",
          "type": "address"
        },
        {
          "indexed": true,
          "internalType": "address",
          "name": "sender",
          "type": "address"
        }
      ],
      "name": "RoleRevoked",
      "type": "event"
    },
    {
      "anonymous": false,
      "inputs": [
        {
          "indexed": true,
          "internalType": "address",
          "name": "_adapter",
          "type": "address"
        },
        {
          "indexed": false,
          "internalType": "uint256",
          "name": "_newEstimate",
          "type": "uint256"
        }
      ],
      "name": "UpdatedGasEstimate",
      "type": "event"
    },
    {
      "anonymous": false,
      "inputs": [
        {
          "indexed": true,
          "internalType": "address",
          "name": "_tokenFrom",
          "type": "address"
        },
        {
          "indexed": true,
          "internalType": "address",
          "name": "_tokenTo",
          "type": "address"
        },
        {
          "indexed": false,
          "internalType": "uint256",
          "name": "_amountIn",
          "type": "uint256"
        },
        {
          "indexed": false,
          "internalType": "uint256",
          "name": "_amountOut",
          "type": "uint256"
        }
      ],
      "name": "YakAdapterSwap",
      "type": "event"
    },
    {
      "inputs": [],
      "name": "DEFAULT_ADMIN_ROLE",
      "outputs": [
        {
          "internalType": "bytes32",
          "name": "",
          "type": "bytes32"
        }
      ],
      "stateMutability": "view",
      "type": "function"
    },
    {
      "inputs": [],
      "name": "MAINTAINER_ROLE",
      "outputs": [
        {
          "internalType": "bytes32",
          "name": "",
          "type": "bytes32"
        }
      ],
      "stateMutability": "view",
      "type": "function"
    },
    {
      "inputs": [
        {
          "internalType": "address",
          "name": "addedMaintainer",
          "type": "address"
        }
      ],
      "name": "addMaintainer",
      "outputs": [],
      "stateMutability": "nonpayable",
      "type": "function"
    },
    {
      "inputs": [
        {
          "internalType": "address",
          "name": "tkn0",
          "type": "address"
        },
        {
          "internalType": "address",
          "name": "tkn1",
          "type": "address"
        }
      ],
      "name": "getPool",
      "outputs": [
        {
          "internalType": "address",
          "name": "",
          "type": "address"
        }
      ],
      "stateMutability": "view",
      "type": "function"
    },
    {
      "inputs": [
        {
          "internalType": "bytes32",
          "name": "role",
          "type": "bytes32"
        }
      ],
      "name": "getRoleAdmin",
      "outputs": [
        {
          "internalType": "bytes32",
          "name": "",
          "type": "bytes32"
        }
      ],
      "stateMutability": "view",
      "type": "function"
    },
    {
      "inputs": [
        {
          "internalType": "bytes32",
          "name": "role",
          "type": "bytes32"
        },
        {
          "internalType": "address",
          "name": "account",
          "type": "address"
        }
      ],
      "name": "grantRole",
      "outputs": [],
      "stateMutability": "nonpayable",
      "type": "function"
    },
    {
      "inputs": [
        {
          "internalType": "bytes32",
          "name": "role",
          "type": "bytes32"
        },
        {
          "internalType": "address",
          "name": "account",
          "type": "address"
        }
      ],
      "name": "hasRole",
      "outputs": [
        {
          "internalType": "bool",
          "name": "",
          "type": "bool"
        }
      ],
      "stateMutability": "view",
      "type": "function"
    },
    {
      "inputs": [],
      "name": "name",
      "outputs": [
        {
          "internalType": "string",
          "name": "",
          "type": "string"
        }
      ],
      "stateMutability": "view",
      "type": "function"
    },
    {
      "inputs": [
        {
          "internalType": "address",
          "name": "",
          "type": "address"
        },
        {
          "internalType": "address",
          "name": "",
          "type": "address"
        }
      ],
      "name": "poolForTokens",
      "outputs": [
        {
          "internalType": "address",
          "name": "",
          "type": "address"
        }
      ],
      "stateMutability": "view",
      "type": "function"
    },
    {
      "inputs": [
        {
          "internalType": "uint256",
          "name": "_amountIn",
          "type": "uint256"
        },
        {
          "internalType": "address",
          "name": "_tokenIn",
          "type": "address"
        },
        {
          "internalType": "address",
          "name": "_tokenOut",
          "type": "address"
        }
      ],
      "name": "query",
      "outputs": [
        {
          "internalType": "uint256",
          "name": "",
          "type": "uint256"
        }
      ],
      "stateMutability": "view",
      "type": "function"
    },
    {
      "inputs": [
        {
          "internalType": "uint256",
          "name": "_amount",
          "type": "uint256"
        }
      ],
      "name": "recoverAVAX",
      "outputs": [],
      "stateMutability": "nonpayable",
      "type": "function"
    },
    {
      "inputs": [
        {
          "internalType": "address",
          "name": "_tokenAddress",
          "type": "address"
        },
        {
          "internalType": "uint256",
          "name": "_tokenAmount",
          "type": "uint256"
        }
      ],
      "name": "recoverERC20",
      "outputs": [],
      "stateMutability": "nonpayable",
      "type": "function"
    },
    {
      "inputs": [
        {
          "internalType": "address",
          "name": "removedMaintainer",
          "type": "address"
        }
      ],
      "name": "removeMaintainer",
      "outputs": [],
      "stateMutability": "nonpayable",
      "type": "function"
    },
    {
      "inputs": [
        {
          "internalType": "bytes32",
          "name": "role",
          "type": "bytes32"
        },
        {
          "internalType": "address",
          "name": "account",
          "type": "address"
        }
      ],
      "name": "renounceRole",
      "outputs": [],
      "stateMutability": "nonpayable",
      "type": "function"
    },
    {
      "inputs": [
        {
          "internalType": "bytes32",
          "name": "role",
          "type": "bytes32"
        }
      ],
      "name": "renounceRole",
      "outputs": [],
      "stateMutability": "nonpayable",
      "type": "function"
    },
    {
      "inputs": [
        {
          "internalType": "address",
          "name": "_token",
          "type": "address"
        },
        {
          "internalType": "address",
          "name": "_spender",
          "type": "address"
        }
      ],
      "name": "revokeAllowance",
      "outputs": [],
      "stateMutability": "nonpayable",
      "type": "function"
    },
    {
      "inputs": [
        {
          "internalType": "bytes32",
          "name": "role",
          "type": "bytes32"
        },
        {
          "internalType": "address",
          "name": "account",
          "type": "address"
        }
      ],
      "name": "revokeRole",
      "outputs": [],
      "stateMutability": "nonpayable",
      "type": "function"
    },
    {
      "inputs": [
        {
          "internalType": "address[]",
          "name": "_pools",
          "type": "address[]"
        }
      ],
      "name": "rmPools",
      "outputs": [],
      "stateMutability": "nonpayable",
      "type": "function"
    },
    {
      "inputs": [
        {
          "internalType": "address[]",
          "name": "_pools",
          "type": "address[]"
        }
      ],
      "name": "setPools",
      "outputs": [],
      "stateMutability": "nonpayable",
      "type": "function"
    },
    {
      "inputs": [
        {
          "internalType": "uint256",
          "name": "_estimate",
          "type": "uint256"
        }
      ],
      "name": "setSwapGasEstimate",
      "outputs": [],
      "stateMutability": "nonpayable",
      "type": "function"
    },
    {
      "inputs": [
        {
          "internalType": "bytes4",
          "name": "interfaceId",
          "type": "bytes4"
        }
      ],
      "name": "supportsInterface",
      "outputs": [
        {
          "internalType": "bool",
          "name": "",
          "type": "bool"
        }
      ],
      "stateMutability": "view",
      "type": "function"
    },
    {
      "inputs": [
        {
          "internalType": "uint256",
          "name": "_amountIn",
          "type": "uint256"
        },
        {
          "internalType": "uint256",
          "name": "_amountOut",
          "type": "uint256"
        },
        {
          "internalType": "address",
          "name": "_fromToken",
          "type": "address"
        },
        {
          "internalType": "address",
          "name": "_toToken",
          "type": "address"
        },
        {
          "internalType": "address",
          "name": "_to",
          "type": "address"
        }
      ],
      "name": "swap",
      "outputs": [],
      "stateMutability": "nonpayable",
      "type": "function"
    },
    {
      "inputs": [],
      "name": "swapGasEstimate",
      "outputs": [
        {
          "internalType": "uint256",
          "name": "",
          "type": "uint256"
        }
      ],
      "stateMutability": "view",
      "type": "function"
    },
    {
      "inputs": [
        {
          "internalType": "address",
          "name": "",
          "type": "address"
        },
        {
          "internalType": "address",
          "name": "",
          "type": "address"
        }
      ],
      "name": "tokenIndexForPool",
      "outputs": [
        {
          "internalType": "int128",
          "name": "",
          "type": "int128"
        }
      ],
      "stateMutability": "view",
      "type": "function"
    },
    {
      "inputs": [
        {
          "internalType": "address",
          "name": "newOwner",
          "type": "address"
        }
      ],
      "name": "transferOwnership",
      "outputs": [],
      "stateMutability": "nonpayable",
      "type": "function"
    },
    {
      "stateMutability": "payable",
      "type": "receive"
    }
  ],
  "transactionHash": "0x2acfa1ed867eb3858959a4928ee95ee72bd9ca0f4ec0869a96d79b3ff8374f9c",
  "args": [
    "CurveMetaAdapter",
    [
      "0x30dF229cefa463e991e29D42DB0bae2e122B2AC7"
    ],
    480000
  ],
  "solcInputHash": "3d31bd7e10bf3531f6c263bc3f164c5d",
  "bytecode": "0x60806040523480156200001157600080fd5b5060405162002f8138038062002f81833981016040819052620000349162000a83565b828133620000446000826200008d565b6200005f60008051602062002f41833981519152826200008d565b506200006b826200009d565b620000768162000106565b5062000084905082620001fd565b50505062000cc4565b620000998282620002c5565b5050565b8051620000f15760405162461bcd60e51b815260206004820152601460248201527f496e76616c69642061646170746572206e616d6500000000000000000000000060448201526064015b60405180910390fd5b805162000099906002906020840190620008e6565b336200012260008051602062002f41833981519152826200034d565b620001705760405162461bcd60e51b8152602060048201526028602482015260008051602062002f6183398151915260448201526734b73a30b4b732b960c11b6064820152608401620000e8565b81620001bf5760405162461bcd60e51b815260206004820152601460248201527f496e76616c6964206761732d657374696d6174650000000000000000000000006044820152606401620000e8565b600182905560405182815230907ff43f23b7a28e6f8ce6843a21bd7b48bce778aa913b8c8cf459edf7d770e8d38a9060200160405180910390a25050565b336200021960008051602062002f41833981519152826200034d565b620002675760405162461bcd60e51b8152602060048201526028602482015260008051602062002f6183398151915260448201526734b73a30b4b732b960c11b6064820152608401620000e8565b60005b8251811015620002c057620002ad8382815181106200029957634e487b7160e01b600052603260045260246000fd5b60200260200101516200037860201b60201c565b620002b88162000c7a565b90506200026a565b505050565b620002d182826200034d565b62000099576000828152602081815260408083206001600160a01b03851684529091529020805460ff19166001179055620003093390565b6001600160a01b0316816001600160a01b0316837f2f8788117e7eff1d82e926ec794901d17c78024a50270940304540a733656f0d60405160405180910390a45050565b6000828152602081815260408083206001600160a01b038516845290915290205460ff165b92915050565b600080620003868362000402565b91509150620003b183600019846001600160a01b03166200050960201b62000fc8179092919060201c565b60005b6000620003c2838362000663565b90506001600160a01b038116620003da5750620003fc565b620003e885858385620006ed565b50620003f48162000c7a565b9050620003b4565b50505050565b60405163c661065760e01b81526000600482018190529081906001600160a01b0384169063c66106579060240160206040518083038186803b1580156200044857600080fd5b505afa1580156200045d573d6000803e3d6000fd5b505050506040513d601f19601f8201168201806040525081019062000483919062000a3d565b60405163c661065760e01b8152600160048201529092506001600160a01b0384169063c66106579060240160206040518083038186803b158015620004c757600080fd5b505afa158015620004dc573d6000803e3d6000fd5b505050506040513d601f19601f8201168201806040525081019062000502919062000a3d565b9050915091565b801580620005975750604051636eb1769f60e11b81523060048201526001600160a01b03838116602483015284169063dd62ed3e9060440160206040518083038186803b1580156200055a57600080fd5b505afa1580156200056f573d6000803e3d6000fd5b505050506040513d601f19601f8201168201806040525081019062000595919062000b4d565b155b6200060b5760405162461bcd60e51b815260206004820152603660248201527f5361666545524332303a20617070726f76652066726f6d206e6f6e2d7a65726f60448201527f20746f206e6f6e2d7a65726f20616c6c6f77616e6365000000000000000000006064820152608401620000e8565b604080516001600160a01b038416602482015260448082018490528251808303909101815260649091019091526020810180516001600160e01b0390811663095ea7b360e01b17909152620002c0918591620007b216565b60405163c661065760e01b8152600481018290526000906001600160a01b0384169063c66106579060240160206040518083038186803b158015620006a757600080fd5b505afa925050508015620006da575060408051601f3d908101601f19168201909252620006d79181019062000a3d565b60015b620006e55762000372565b905062000372565b6200071484600019846001600160a01b03166200050960201b62000fc8179092919060201c565b6200072181600162000bb7565b6001600160a01b0394851660008181526003602090815260408083209689168084529682528083208054600f9690960b6001600160801b03166001600160801b031990961695909517909455600480825284832097909816825295865282812080546001600160a01b0319908116841790915596865282812094815293909452909120805490931690911790915550565b600080836001600160a01b031683604051620007cf919062000b66565b6000604051808303816000865af19150503d80600081146200080e576040519150601f19603f3d011682016040523d82523d6000602084013e62000813565b606091505b509150915081620008675760405162461bcd60e51b815260206004820181905260248201527f5361666545524332303a206c6f772d6c6576656c2063616c6c206661696c65646044820152606401620000e8565b805115620003fc578080602001905181019062000885919062000a61565b620003fc5760405162461bcd60e51b815260206004820152602a60248201527f5361666545524332303a204552433230206f7065726174696f6e20646964206e6044820152691bdd081cdd58d8d9595960b21b6064820152608401620000e8565b828054620008f49062000c3d565b90600052602060002090601f01602090048101928262000918576000855562000963565b82601f106200093357805160ff191683800117855562000963565b8280016001018555821562000963579182015b828111156200096357825182559160200191906001019062000946565b506200097192915062000975565b5090565b5b8082111562000971576000815560010162000976565b80516001600160a01b0381168114620009a457600080fd5b919050565b600082601f830112620009ba578081fd5b815160206001600160401b03821115620009d857620009d862000cae565b8160051b620009e982820162000b84565b83815282810190868401838801850189101562000a04578687fd5b8693505b8584101562000a315762000a1c816200098c565b83526001939093019291840191840162000a08565b50979650505050505050565b60006020828403121562000a4f578081fd5b62000a5a826200098c565b9392505050565b60006020828403121562000a73578081fd5b8151801515811462000a5a578182fd5b60008060006060848603121562000a98578182fd5b83516001600160401b038082111562000aaf578384fd5b818601915086601f83011262000ac3578384fd5b81518181111562000ad85762000ad862000cae565b62000aed601f8201601f191660200162000b84565b81815288602083860101111562000b02578586fd5b62000b1582602083016020870162000c0e565b60208801519096509250508082111562000b2d578384fd5b5062000b3c86828701620009a9565b925050604084015190509250925092565b60006020828403121562000b5f578081fd5b5051919050565b6000825162000b7a81846020870162000c0e565b9190910192915050565b604051601f8201601f191681016001600160401b038111828210171562000baf5762000baf62000cae565b604052919050565b6000600f82810b9084900b828212801560016001607f1b038490038313161562000be55762000be562000c98565b60016001607f1b0319839003821281161562000c055762000c0562000c98565b50019392505050565b60005b8381101562000c2b57818101518382015260200162000c11565b83811115620003fc5750506000910152565b600181811c9082168062000c5257607f821691505b6020821081141562000c7457634e487b7160e01b600052602260045260246000fd5b50919050565b600060001982141562000c915762000c9162000c98565b5060010190565b634e487b7160e01b600052601160045260246000fd5b634e487b7160e01b600052604160045260246000fd5b61226d8062000cd46000396000f3fe60806040526004361061019a5760003560e01c806384a33e63116100e1578063a217fddf1161008a578063eab90da611610064578063eab90da614610518578063ef99893a14610538578063f2fde38b14610558578063f87422541461057857600080fd5b8063a217fddf146104c3578063d547741f146104d8578063d8baf7cf146104f857600080fd5b80638bb9c5bf116100bb5780638bb9c5bf1461041e57806391d148541461043e5780639b04b0091461048257600080fd5b806384a33e63146103be5780638544c53b146103de5780638980f11f146103fe57600080fd5b80634ebb7916116101435780636b453c1f1161011d5780636b453c1f14610330578063700123e0146103505780637ae267731461039e57600080fd5b80634ebb79161461029d578063531aa03e146102bd57806369cff80d1461031a57600080fd5b80632f2ff15d116101745780632f2ff15d1461023b57806336568abe1461025d5780634490af061461027d57600080fd5b806301ffc9a7146101a657806306fdde03146101db578063248a9ca3146101fd57600080fd5b366101a157005b600080fd5b3480156101b257600080fd5b506101c66101c1366004611ee0565b6105ac565b60405190151581526020015b60405180910390f35b3480156101e757600080fd5b506101f0610615565b6040516101d2919061205c565b34801561020957600080fd5b5061022d610218366004611ea4565b60009081526020819052604090206001015490565b6040519081526020016101d2565b34801561024757600080fd5b5061025b610256366004611ebc565b6106a3565b005b34801561026957600080fd5b5061025b610278366004611ebc565b6106cd565b34801561028957600080fd5b5061025b610298366004611dbd565b61075e565b3480156102a957600080fd5b5061025b6102b8366004611ea4565b610839565b3480156102c957600080fd5b506103026102d8366004611d5a565b6001600160a01b039182166000908152600460209081526040808320938516835292905220541690565b6040516001600160a01b0390911681526020016101d2565b34801561032657600080fd5b5061022d60015481565b34801561033c57600080fd5b5061025b61034b366004611d22565b610981565b34801561035c57600080fd5b5061038b61036b366004611d5a565b6003602090815260009283526040808420909152908252902054600f0b81565b604051600f9190910b81526020016101d2565b3480156103aa57600080fd5b5061025b6103b9366004611d5a565b6109ae565b3480156103ca57600080fd5b5061025b6103d9366004611ea4565b610a52565b3480156103ea57600080fd5b5061025b6103f9366004611dbd565b610b65565b34801561040a57600080fd5b5061025b610419366004611d92565b610c40565b34801561042a57600080fd5b5061025b610439366004611ea4565b610d7b565b34801561044a57600080fd5b506101c6610459366004611ebc565b6000918252602082815260408084206001600160a01b0393909316845291905290205460ff1690565b34801561048e57600080fd5b5061030261049d366004611d5a565b60046020908152600092835260408084209091529082529020546001600160a01b031681565b3480156104cf57600080fd5b5061022d600081565b3480156104e457600080fd5b5061025b6104f3366004611ebc565b610d86565b34801561050457600080fd5b5061025b610513366004611d22565b610dab565b34801561052457600080fd5b5061025b610533366004611f61565b610dd5565b34801561054457600080fd5b5061022d610553366004611f20565b610f9a565b34801561056457600080fd5b5061025b610573366004611d22565b610fb1565b34801561058457600080fd5b5061022d7f339759585899103d2ace64958e37e18ccb0504652c81d4a1b8aa80fe2126ab9581565b60006001600160e01b031982167f7965db0b00000000000000000000000000000000000000000000000000000000148061060f57507f01ffc9a7000000000000000000000000000000000000000000000000000000006001600160e01b03198316145b92915050565b60028054610622906121a0565b80601f016020809104026020016040519081016040528092919081815260200182805461064e906121a0565b801561069b5780601f106106705761010080835404028352916020019161069b565b820191906000526020600020905b81548152906001019060200180831161067e57829003601f168201915b505050505081565b6000828152602081905260409020600101546106be8161116d565b6106c88383611177565b505050565b6001600160a01b03811633146107505760405162461bcd60e51b815260206004820152602f60248201527f416363657373436f6e74726f6c3a2063616e206f6e6c792072656e6f756e636560448201527f20726f6c657320666f722073656c66000000000000000000000000000000000060648201526084015b60405180910390fd5b61075a8282611215565b5050565b3360008181527fa54247010af6b3693b80aceddfad12e077c5de3571e6243fada502635f0d7d39602052604090205460ff166107ed5760405162461bcd60e51b815260206004820152602860248201527f4d61696e7461696e61626c653a2043616c6c6572206973206e6f742061206d6160448201526734b73a30b4b732b960c11b6064820152608401610747565b60005b82518110156106c85761082983828151811061081c57634e487b7160e01b600052603260045260246000fd5b6020026020010151611294565b610832816121db565b90506107f0565b3360008181527fa54247010af6b3693b80aceddfad12e077c5de3571e6243fada502635f0d7d39602052604090205460ff166108c85760405162461bcd60e51b815260206004820152602860248201527f4d61696e7461696e61626c653a2043616c6c6572206973206e6f742061206d6160448201526734b73a30b4b732b960c11b6064820152608401610747565b600082116109185760405162461bcd60e51b815260206004820152601e60248201527f59616b416461707465723a204e6f7468696e6720746f207265636f76657200006044820152606401610747565b604051339083156108fc029084906000818181858888f19350505050158015610945573d6000803e3d6000fd5b506040518281526000907f8c1256b8896378cd5044f80c202f9772b9d77dc85c8a6eb51967210b09bfaa28906020015b60405180910390a25050565b6109ab7f339759585899103d2ace64958e37e18ccb0504652c81d4a1b8aa80fe2126ab95826106a3565b50565b3360008181527fa54247010af6b3693b80aceddfad12e077c5de3571e6243fada502635f0d7d39602052604090205460ff16610a3d5760405162461bcd60e51b815260206004820152602860248201527f4d61696e7461696e61626c653a2043616c6c6572206973206e6f742061206d6160448201526734b73a30b4b732b960c11b6064820152608401610747565b6106c86001600160a01b038416836000610fc8565b3360008181527fa54247010af6b3693b80aceddfad12e077c5de3571e6243fada502635f0d7d39602052604090205460ff16610ae15760405162461bcd60e51b815260206004820152602860248201527f4d61696e7461696e61626c653a2043616c6c6572206973206e6f742061206d6160448201526734b73a30b4b732b960c11b6064820152608401610747565b81610b2e5760405162461bcd60e51b815260206004820152601460248201527f496e76616c6964206761732d657374696d6174650000000000000000000000006044820152606401610747565b600182905560405182815230907ff43f23b7a28e6f8ce6843a21bd7b48bce778aa913b8c8cf459edf7d770e8d38a90602001610975565b3360008181527fa54247010af6b3693b80aceddfad12e077c5de3571e6243fada502635f0d7d39602052604090205460ff16610bf45760405162461bcd60e51b815260206004820152602860248201527f4d61696e7461696e61626c653a2043616c6c6572206973206e6f742061206d6160448201526734b73a30b4b732b960c11b6064820152608401610747565b60005b82518110156106c857610c30838281518110610c2357634e487b7160e01b600052603260045260246000fd5b602002602001015161133c565b610c39816121db565b9050610bf7565b3360008181527fa54247010af6b3693b80aceddfad12e077c5de3571e6243fada502635f0d7d39602052604090205460ff16610ccf5760405162461bcd60e51b815260206004820152602860248201527f4d61696e7461696e61626c653a2043616c6c6572206973206e6f742061206d6160448201526734b73a30b4b732b960c11b6064820152608401610747565b60008211610d1f5760405162461bcd60e51b815260206004820152601e60248201527f59616b416461707465723a204e6f7468696e6720746f207265636f76657200006044820152606401610747565b610d336001600160a01b03841633846113a5565b826001600160a01b03167f8c1256b8896378cd5044f80c202f9772b9d77dc85c8a6eb51967210b09bfaa2883604051610d6e91815260200190565b60405180910390a2505050565b3361075a82826106cd565b600082815260208190526040902060010154610da18161116d565b6106c88383611215565b6109ab7f339759585899103d2ace64958e37e18ccb0504652c81d4a1b8aa80fe2126ab9582610d86565b6040516370a0823160e01b81526001600160a01b038281166004830152600091908416906370a082319060240160206040518083038186803b158015610e1a57600080fd5b505afa158015610e2e573d6000803e3d6000fd5b505050506040513d601f19601f82011682018060405250810190610e529190611f08565b9050610e6186868686866113ee565b6040516370a0823160e01b81526001600160a01b03838116600483015260009183918616906370a082319060240160206040518083038186803b158015610ea757600080fd5b505afa158015610ebb573d6000803e3d6000fd5b505050506040513d601f19601f82011682018060405250810190610edf9190611f08565b610ee99190612146565b905085811015610f3b5760405162461bcd60e51b815260206004820152601760248201527f496e73756666696369656e7420616d6f756e742d6f75740000000000000000006044820152606401610747565b836001600160a01b0316856001600160a01b03167fe2bdbc6b7225eb0a972ac943c485a6cc05f7c6811838bce8903f23200fb744fa8989604051610f89929190918252602082015260400190565b60405180910390a350505050505050565b6000610fa7848484611553565b90505b9392505050565b33610fbd6000836106a3565b61075a6000826106cd565b80158061106a57506040517fdd62ed3e0000000000000000000000000000000000000000000000000000000081523060048201526001600160a01b03838116602483015284169063dd62ed3e9060440160206040518083038186803b15801561103057600080fd5b505afa158015611044573d6000803e3d6000fd5b505050506040513d601f19601f820116820180604052508101906110689190611f08565b155b6110dc5760405162461bcd60e51b815260206004820152603660248201527f5361666545524332303a20617070726f76652066726f6d206e6f6e2d7a65726f60448201527f20746f206e6f6e2d7a65726f20616c6c6f77616e6365000000000000000000006064820152608401610747565b6040516001600160a01b0383166024820152604481018290526106c89084907f095ea7b300000000000000000000000000000000000000000000000000000000906064015b60408051601f198184030181529190526020810180517bffffffffffffffffffffffffffffffffffffffffffffffffffffffff166001600160e01b0319909316929092179091526115dd565b6109ab8133611719565b6000828152602081815260408083206001600160a01b038516845290915290205460ff1661075a576000828152602081815260408083206001600160a01b03851684529091529020805460ff191660011790556111d13390565b6001600160a01b0316816001600160a01b0316837f2f8788117e7eff1d82e926ec794901d17c78024a50270940304540a733656f0d60405160405180910390a45050565b6000828152602081815260408083206001600160a01b038516845290915290205460ff161561075a576000828152602081815260408083206001600160a01b0385168085529252808320805460ff1916905551339285917ff6391f5c32d9c69d2a47ea670b442974b53935d1edc7fd64eb21e047a839171b9190a45050565b6000806112a083611797565b9150915060005b60006112b38383611896565b90506001600160a01b0381166112c95750611336565b6001600160a01b0390811660008181526004602081815260408084209589168452948152848320805473ffffffffffffffffffffffffffffffffffffffff1990811690915591815284832093835292909252919091208054909116905561132f816121db565b90506112a7565b50505050565b60008061134883611797565b90925090506113636001600160a01b03831684600019610fc8565b60005b60006113728383611896565b90506001600160a01b0381166113885750611336565b61139485858385611919565b5061139e816121db565b9050611366565b6040516001600160a01b0383166024820152604481018290526106c89084907fa9059cbb0000000000000000000000000000000000000000000000000000000090606401611121565b6001600160a01b038381166000818152600460208181526040808420888716808652908352818520549096168085526003835281852095855294909152808320549483528083205481517fa6417ed6000000000000000000000000000000000000000000000000000000008152600f96870b870b93810193909352850b90940b6024820152604481018990526064810188905292519192839263a6417ed69260848084019391929182900301818387803b1580156114ab57600080fd5b505af11580156114bf573d6000803e3d6000fd5b50506040516370a0823160e01b8152306004820152600092506001600160a01b03861691506370a082319060240160206040518083038186803b15801561150557600080fd5b505afa158015611519573d6000803e3d6000fd5b505050506040513d601f19601f8201168201806040525081019061153d9190611f08565b905061154a8482856119ea565b50505050505050565b60008061158584846001600160a01b039182166000908152600460209081526040808320938516835292905220541690565b90506001600160a01b038116158061159b575084155b156115aa576000915050610faa565b60006115b882878787611a0e565b90506127106115c98261270f612127565b6115d39190612107565b9695505050505050565b600080836001600160a01b0316836040516115f89190611fbf565b6000604051808303816000865af19150503d8060008114611635576040519150601f19603f3d011682016040523d82523d6000602084013e61163a565b606091505b50915091508161168c5760405162461bcd60e51b815260206004820181905260248201527f5361666545524332303a206c6f772d6c6576656c2063616c6c206661696c65646044820152606401610747565b80511561133657808060200190518101906116a79190611e84565b6113365760405162461bcd60e51b815260206004820152602a60248201527f5361666545524332303a204552433230206f7065726174696f6e20646964206e60448201527f6f742073756363656564000000000000000000000000000000000000000000006064820152608401610747565b6000828152602081815260408083206001600160a01b038516845290915290205460ff1661075a57611755816001600160a01b03166014611aeb565b611760836020611aeb565b604051602001611771929190611fdb565b60408051601f198184030181529082905262461bcd60e51b82526107479160040161205c565b60405163c661065760e01b81526000600482018190529081906001600160a01b0384169063c66106579060240160206040518083038186803b1580156117dc57600080fd5b505afa1580156117f0573d6000803e3d6000fd5b505050506040513d601f19601f820116820180604052508101906118149190611d3e565b60405163c661065760e01b8152600160048201529092506001600160a01b0384169063c66106579060240160206040518083038186803b15801561185757600080fd5b505afa15801561186b573d6000803e3d6000fd5b505050506040513d601f19601f8201168201806040525081019061188f9190611d3e565b9050915091565b60405163c661065760e01b8152600481018290526000906001600160a01b0384169063c66106579060240160206040518083038186803b1580156118d957600080fd5b505afa925050508015611909575060408051601f3d908101601f1916820190925261190691810190611d3e565b60015b6119125761060f565b905061060f565b61192f6001600160a01b03831685600019610fc8565b61193a81600161208f565b6001600160a01b0394851660008181526003602090815260408083209689168084529682528083208054600f9690960b6fffffffffffffffffffffffffffffffff166fffffffffffffffffffffffffffffffff19909616959095179094556004808252848320979098168252958652828120805473ffffffffffffffffffffffffffffffffffffffff19908116841790915596865282812094815293909452909120805490931690911790915550565b306001600160a01b038216146106c8576106c86001600160a01b03841682846113a5565b6001600160a01b03848116600081815260036020908152604080832087861684529091528082205493851682528082205490517f07211ef7000000000000000000000000000000000000000000000000000000008152600f94850b850b600482015290840b90930b602484015260448301869052916307211ef79060640160206040518083038186803b158015611aa457600080fd5b505afa925050508015611ad4575060408051601f3d908101601f19168201909252611ad191810190611f08565b60015b611ae057506000611ae3565b90505b949350505050565b60606000611afa836002612127565b611b059060026120ef565b67ffffffffffffffff811115611b2b57634e487b7160e01b600052604160045260246000fd5b6040519080825280601f01601f191660200182016040528015611b55576020820181803683370190505b5090507f300000000000000000000000000000000000000000000000000000000000000081600081518110611b9a57634e487b7160e01b600052603260045260246000fd5b60200101906001600160f81b031916908160001a9053507f780000000000000000000000000000000000000000000000000000000000000081600181518110611bf357634e487b7160e01b600052603260045260246000fd5b60200101906001600160f81b031916908160001a9053506000611c17846002612127565b611c229060016120ef565b90505b6001811115611cc3577f303132333435363738396162636465660000000000000000000000000000000085600f1660108110611c7157634e487b7160e01b600052603260045260246000fd5b1a60f81b828281518110611c9557634e487b7160e01b600052603260045260246000fd5b60200101906001600160f81b031916908160001a90535060049490941c93611cbc81612189565b9050611c25565b508315610faa5760405162461bcd60e51b815260206004820181905260248201527f537472696e67733a20686578206c656e67746820696e73756666696369656e746044820152606401610747565b8035611d1d81612222565b919050565b600060208284031215611d33578081fd5b8135610faa81612222565b600060208284031215611d4f578081fd5b8151610faa81612222565b60008060408385031215611d6c578081fd5b8235611d7781612222565b91506020830135611d8781612222565b809150509250929050565b60008060408385031215611da4578182fd5b8235611daf81612222565b946020939093013593505050565b60006020808385031215611dcf578182fd5b823567ffffffffffffffff80821115611de6578384fd5b818501915085601f830112611df9578384fd5b813581811115611e0b57611e0b61220c565b8060051b604051601f19603f83011681018181108582111715611e3057611e3061220c565b604052828152858101935084860182860187018a1015611e4e578788fd5b8795505b83861015611e7757611e6381611d12565b855260019590950194938601938601611e52565b5098975050505050505050565b600060208284031215611e95578081fd5b81518015158114610faa578182fd5b600060208284031215611eb5578081fd5b5035919050565b60008060408385031215611ece578182fd5b823591506020830135611d8781612222565b600060208284031215611ef1578081fd5b81356001600160e01b031981168114610faa578182fd5b600060208284031215611f19578081fd5b5051919050565b600080600060608486031215611f34578081fd5b833592506020840135611f4681612222565b91506040840135611f5681612222565b809150509250925092565b600080600080600060a08688031215611f78578081fd5b85359450602086013593506040860135611f9181612222565b92506060860135611fa181612222565b91506080860135611fb181612222565b809150509295509295909350565b60008251611fd181846020870161215d565b9190910192915050565b7f416363657373436f6e74726f6c3a206163636f756e742000000000000000000081526000835161201381601785016020880161215d565b7f206973206d697373696e6720726f6c6520000000000000000000000000000000601791840191820152835161205081602884016020880161215d565b01602801949350505050565b602081526000825180602084015261207b81604085016020870161215d565b601f01601f19169190910160400192915050565b600081600f0b83600f0b828212826f7fffffffffffffffffffffffffffffff038213811516156120c1576120c16121f6565b826f7fffffffffffffffffffffffffffffff190382128116156120e6576120e66121f6565b50019392505050565b60008219821115612102576121026121f6565b500190565b60008261212257634e487b7160e01b81526012600452602481fd5b500490565b6000816000190483118215151615612141576121416121f6565b500290565b600082821015612158576121586121f6565b500390565b60005b83811015612178578181015183820152602001612160565b838111156113365750506000910152565b600081612198576121986121f6565b506000190190565b600181811c908216806121b457607f821691505b602082108114156121d557634e487b7160e01b600052602260045260246000fd5b50919050565b60006000198214156121ef576121ef6121f6565b5060010190565b634e487b7160e01b600052601160045260246000fd5b634e487b7160e01b600052604160045260246000fd5b6001600160a01b03811681146109ab57600080fdfea26469706673582212209e7f57ea3e1bfd353cae4b12d24ed3e732888b1afd857637a26172e787b55ad864736f6c63430008040033339759585899103d2ace64958e37e18ccb0504652c81d4a1b8aa80fe2126ab954d61696e7461696e61626c653a2043616c6c6572206973206e6f742061206d61",
  "devdoc": {
    "kind": "dev",
    "methods": {
      "getRoleAdmin(bytes32)": {
        "details": "Returns the admin role that controls `role`. See {grantRole} and {revokeRole}. To change a role's admin, use {_setRoleAdmin}."
      },
      "grantRole(bytes32,address)": {
        "details": "Grants `role` to `account`. If `account` had not been already granted `role`, emits a {RoleGranted} event. Requirements: - the caller must have ``role``'s admin role. May emit a {RoleGranted} event."
      },
      "hasRole(bytes32,address)": {
        "details": "Returns `true` if `account` has been granted `role`."
      },
      "renounceRole(bytes32,address)": {
        "details": "Revokes `role` from the calling account. Roles are often managed via {grantRole} and {revokeRole}: this function's purpose is to provide a mechanism for accounts to lose their privileges if they are compromised (such as when a trusted device is misplaced). If the calling account had been revoked `role`, emits a {RoleRevoked} event. Requirements: - the caller must be `account`. May emit a {RoleRevoked} event."
      },
      "revokeRole(bytes32,address)": {
        "details": "Revokes `role` from `account`. If `account` had been granted `role`, emits a {RoleRevoked} event. Requirements: - the caller must have ``role``'s admin role. May emit a {RoleRevoked} event."
      },
      "supportsInterface(bytes4)": {
        "details": "See {IERC165-supportsInterface}."
      }
    },
    "version": 1
  },
  "userdoc": {
    "kind": "user",
    "methods": {},
    "version": 1
  },
  "storageLayout": {
    "storage": [
      {
        "astId": 24,
        "contract": "src/contracts/adapters/CurveMetaV3Adapter.sol:CurveMetaV3Adapter",
        "label": "_roles",
        "offset": 0,
        "slot": "0",
        "type": "t_mapping(t_bytes32,t_struct(RoleData)19_storage)"
      },
      {
        "astId": 1451,
        "contract": "src/contracts/adapters/CurveMetaV3Adapter.sol:CurveMetaV3Adapter",
        "label": "swapGasEstimate",
        "offset": 0,
        "slot": "1",
        "type": "t_uint256"
      },
      {
        "astId": 1453,
        "contract": "src/contracts/adapters/CurveMetaV3Adapter.sol:CurveMetaV3Adapter",
        "label": "name",
        "offset": 0,
        "slot": "2",
        "type": "t_string_storage"
      },
      {
        "astId": 6346,
        "contract": "src/contracts/adapters/CurveMetaV3Adapter.sol:CurveMetaV3Adapter",
        "label": "tokenIndexForPool",
        "offset": 0,
        "slot": "3",
        "type": "t_mapping(t_address,t_mapping(t_address,t_int128))"
      },
      {
        "astId": 6352,
        "contract": "src/contracts/adapters/CurveMetaV3Adapter.sol:CurveMetaV3Adapter",
        "label": "poolForTokens",
        "offset": 0,
        "slot": "4",
        "type": "t_mapping(t_address,t_mapping(t_address,t_address))"
      }
    ],
    "types": {
      "t_address": {
        "encoding": "inplace",
        "label": "address",
        "numberOfBytes": "20"
      },
      "t_bool": {
        "encoding": "inplace",
        "label": "bool",
        "numberOfBytes": "1"
      },
      "t_bytes32": {
        "encoding": "inplace",
        "label": "bytes32",
        "numberOfBytes": "32"
      },
      "t_int128": {
        "encoding": "inplace",
        "label": "int128",
        "numberOfBytes": "16"
      },
      "t_mapping(t_address,t_address)": {
        "encoding": "mapping",
        "key": "t_address",
        "label": "mapping(address => address)",
        "numberOfBytes": "32",
        "value": "t_address"
      },
      "t_mapping(t_address,t_bool)": {
        "encoding": "mapping",
        "key": "t_address",
        "label": "mapping(address => bool)",
        "numberOfBytes": "32",
        "value": "t_bool"
      },
      "t_mapping(t_address,t_int128)": {
        "encoding": "mapping",
        "key": "t_address",
        "label": "mapping(address => int128)",
        "numberOfBytes": "32",
        "value": "t_int128"
      },
      "t_mapping(t_address,t_mapping(t_address,t_address))": {
        "encoding": "mapping",
        "key": "t_address",
        "label": "mapping(address => mapping(address => address))",
        "numberOfBytes": "32",
        "value": "t_mapping(t_address,t_address)"
      },
      "t_mapping(t_address,t_mapping(t_address,t_int128))": {
        "encoding": "mapping",
        "key": "t_address",
        "label": "mapping(address => mapping(address => int128))",
        "numberOfBytes": "32",
        "value": "t_mapping(t_address,t_int128)"
      },
      "t_mapping(t_bytes32,t_struct(RoleData)19_storage)": {
        "encoding": "mapping",
        "key": "t_bytes32",
        "label": "mapping(bytes32 => struct AccessControl.RoleData)",
        "numberOfBytes": "32",
        "value": "t_struct(RoleData)19_storage"
      },
      "t_string_storage": {
        "encoding": "bytes",
        "label": "string",
        "numberOfBytes": "32"
      },
      "t_struct(RoleData)19_storage": {
        "encoding": "inplace",
        "label": "struct AccessControl.RoleData",
        "members": [
          {
            "astId": 16,
            "contract": "src/contracts/adapters/CurveMetaV3Adapter.sol:CurveMetaV3Adapter",
            "label": "members",
            "offset": 0,
            "slot": "0",
            "type": "t_mapping(t_address,t_bool)"
          },
          {
            "astId": 18,
            "contract": "src/contracts/adapters/CurveMetaV3Adapter.sol:CurveMetaV3Adapter",
            "label": "adminRole",
            "offset": 0,
            "slot": "1",
            "type": "t_bytes32"
          }
        ],
        "numberOfBytes": "64"
      },
      "t_uint256": {
        "encoding": "inplace",
        "label": "uint256",
        "numberOfBytes": "32"
      }
    }
  }
}