{
  "address": "0x82BCE96ba7F1740903aC9A93F87C47fc1238Cc76",
  "abi": [
    {
      "inputs": [
        {
          "internalType": "string",
          "name": "_name",
          "type": "string"
        },
        {
          "internalType": "address[]",
          "name": "_pools",
          "type": "address[]"
        },
        {
          "internalType": "address",
          "name": "_helper",
          "type": "address"
        },
        {
          "internalType": "uint256",
          "name": "_gasEstimate",
          "type": "uint256"
        }
      ],
      "stateMutability": "nonpayable",
      "type": "constructor"
    },
    {
      "anonymous": false,
      "inputs": [
        {
          "indexed": true,
          "internalType": "address",
          "name": "_asset",
          "type": "address"
        },
        {
          "indexed": false,
          "internalType": "uint256",
          "name": "amount",
          "type": "uint256"
        }
      ],
      "name": "Recovered",
      "type": "event"
    },
    {
      "anonymous": false,
      "inputs": [
        {
          "indexed": true,
          "internalType": "bytes32",
          "name": "role",
          "type": "bytes32"
        },
        {
          "indexed": true,
          "internalType": "bytes32",
          "name": "previousAdminRole",
          "type": "bytes32"
        },
        {
          "indexed": true,
          "internalType": "bytes32",
          "name": "newAdminRole",
          "type": "bytes32"
        }
      ],
      "name": "RoleAdminChanged",
      "type": "event"
    },
    {
      "anonymous": false,
      "inputs": [
        {
          "indexed": true,
          "internalType": "bytes32",
          "name": "role",
          "type": "bytes32"
        },
        {
          "indexed": true,
          "internalType": "address",
          "name": "account",
          "type": "address"
        },
        {
          "indexed": true,
          "internalType": "address",
          "name": "sender",
          "type": "address"
        }
      ],
      "name": "RoleGranted",
      "type": "event"
    },
    {
      "anonymous": false,
      "inputs": [
        {
          "indexed": true,
          "internalType": "bytes32",
          "name": "role",
          "type": "bytes32"
        },
        {
          "indexed": true,
          "internalType": "address",
          "name": "account",
          "type": "address"
        },
        {
          "indexed": true,
          "internalType": "address",
          "name": "sender",
          "type": "address"
        }
      ],
      "name": "RoleRevoked",
      "type": "event"
    },
    {
      "anonymous": false,
      "inputs": [
        {
          "indexed": true,
          "internalType": "address",
          "name": "_adapter",
          "type": "address"
        },
        {
          "indexed": false,
          "internalType": "uint256",
          "name": "_newEstimate",
          "type": "uint256"
        }
      ],
      "name": "UpdatedGasEstimate",
      "type": "event"
    },
    {
      "anonymous": false,
      "inputs": [
        {
          "indexed": true,
          "internalType": "address",
          "name": "_tokenFrom",
          "type": "address"
        },
        {
          "indexed": true,
          "internalType": "address",
          "name": "_tokenTo",
          "type": "address"
        },
        {
          "indexed": false,
          "internalType": "uint256",
          "name": "_amountIn",
          "type": "uint256"
        },
        {
          "indexed": false,
          "internalType": "uint256",
          "name": "_amountOut",
          "type": "uint256"
        }
      ],
      "name": "YakAdapterSwap",
      "type": "event"
    },
    {
      "inputs": [],
      "name": "DEFAULT_ADMIN_ROLE",
      "outputs": [
        {
          "internalType": "bytes32",
          "name": "",
          "type": "bytes32"
        }
      ],
      "stateMutability": "view",
      "type": "function"
    },
    {
      "inputs": [],
      "name": "HELPER",
      "outputs": [
        {
          "internalType": "address",
          "name": "",
          "type": "address"
        }
      ],
      "stateMutability": "view",
      "type": "function"
    },
    {
      "inputs": [],
      "name": "MAINTAINER_ROLE",
      "outputs": [
        {
          "internalType": "bytes32",
          "name": "",
          "type": "bytes32"
        }
      ],
      "stateMutability": "view",
      "type": "function"
    },
    {
      "inputs": [
        {
          "internalType": "address[]",
          "name": "_pools",
          "type": "address[]"
        }
      ],
      "name": "_rmPools",
      "outputs": [],
      "stateMutability": "nonpayable",
      "type": "function"
    },
    {
      "inputs": [
        {
          "internalType": "address",
          "name": "addedMaintainer",
          "type": "address"
        }
      ],
      "name": "addMaintainer",
      "outputs": [],
      "stateMutability": "nonpayable",
      "type": "function"
    },
    {
      "inputs": [
        {
          "internalType": "bytes32",
          "name": "role",
          "type": "bytes32"
        }
      ],
      "name": "getRoleAdmin",
      "outputs": [
        {
          "internalType": "bytes32",
          "name": "",
          "type": "bytes32"
        }
      ],
      "stateMutability": "view",
      "type": "function"
    },
    {
      "inputs": [
        {
          "internalType": "bytes32",
          "name": "role",
          "type": "bytes32"
        },
        {
          "internalType": "address",
          "name": "account",
          "type": "address"
        }
      ],
      "name": "grantRole",
      "outputs": [],
      "stateMutability": "nonpayable",
      "type": "function"
    },
    {
      "inputs": [
        {
          "internalType": "bytes32",
          "name": "role",
          "type": "bytes32"
        },
        {
          "internalType": "address",
          "name": "account",
          "type": "address"
        }
      ],
      "name": "hasRole",
      "outputs": [
        {
          "internalType": "bool",
          "name": "",
          "type": "bool"
        }
      ],
      "stateMutability": "view",
      "type": "function"
    },
    {
      "inputs": [],
      "name": "name",
      "outputs": [
        {
          "internalType": "string",
          "name": "",
          "type": "string"
        }
      ],
      "stateMutability": "view",
      "type": "function"
    },
    {
      "inputs": [
        {
          "internalType": "uint256",
          "name": "_amountIn",
          "type": "uint256"
        },
        {
          "internalType": "address",
          "name": "_tokenIn",
          "type": "address"
        },
        {
          "internalType": "address",
          "name": "_tokenOut",
          "type": "address"
        }
      ],
      "name": "query",
      "outputs": [
        {
          "internalType": "uint256",
          "name": "",
          "type": "uint256"
        }
      ],
      "stateMutability": "view",
      "type": "function"
    },
    {
      "inputs": [
        {
          "internalType": "uint256",
          "name": "_amount",
          "type": "uint256"
        }
      ],
      "name": "recoverAVAX",
      "outputs": [],
      "stateMutability": "nonpayable",
      "type": "function"
    },
    {
      "inputs": [
        {
          "internalType": "address",
          "name": "_tokenAddress",
          "type": "address"
        },
        {
          "internalType": "uint256",
          "name": "_tokenAmount",
          "type": "uint256"
        }
      ],
      "name": "recoverERC20",
      "outputs": [],
      "stateMutability": "nonpayable",
      "type": "function"
    },
    {
      "inputs": [
        {
          "internalType": "address",
          "name": "removedMaintainer",
          "type": "address"
        }
      ],
      "name": "removeMaintainer",
      "outputs": [],
      "stateMutability": "nonpayable",
      "type": "function"
    },
    {
      "inputs": [
        {
          "internalType": "bytes32",
          "name": "role",
          "type": "bytes32"
        },
        {
          "internalType": "address",
          "name": "account",
          "type": "address"
        }
      ],
      "name": "renounceRole",
      "outputs": [],
      "stateMutability": "nonpayable",
      "type": "function"
    },
    {
      "inputs": [
        {
          "internalType": "bytes32",
          "name": "role",
          "type": "bytes32"
        }
      ],
      "name": "renounceRole",
      "outputs": [],
      "stateMutability": "nonpayable",
      "type": "function"
    },
    {
      "inputs": [
        {
          "internalType": "address",
          "name": "_token",
          "type": "address"
        },
        {
          "internalType": "address",
          "name": "_spender",
          "type": "address"
        }
      ],
      "name": "revokeAllowance",
      "outputs": [],
      "stateMutability": "nonpayable",
      "type": "function"
    },
    {
      "inputs": [
        {
          "internalType": "bytes32",
          "name": "role",
          "type": "bytes32"
        },
        {
          "internalType": "address",
          "name": "account",
          "type": "address"
        }
      ],
      "name": "revokeRole",
      "outputs": [],
      "stateMutability": "nonpayable",
      "type": "function"
    },
    {
      "inputs": [
        {
          "internalType": "address[]",
          "name": "_pools",
          "type": "address[]"
        },
        {
          "internalType": "bool",
          "name": "overwrite",
          "type": "bool"
        }
      ],
      "name": "setPools",
      "outputs": [],
      "stateMutability": "nonpayable",
      "type": "function"
    },
    {
      "inputs": [
        {
          "internalType": "uint256",
          "name": "_estimate",
          "type": "uint256"
        }
      ],
      "name": "setSwapGasEstimate",
      "outputs": [],
      "stateMutability": "nonpayable",
      "type": "function"
    },
    {
      "inputs": [
        {
          "internalType": "bytes4",
          "name": "interfaceId",
          "type": "bytes4"
        }
      ],
      "name": "supportsInterface",
      "outputs": [
        {
          "internalType": "bool",
          "name": "",
          "type": "bool"
        }
      ],
      "stateMutability": "view",
      "type": "function"
    },
    {
      "inputs": [
        {
          "internalType": "uint256",
          "name": "_amountIn",
          "type": "uint256"
        },
        {
          "internalType": "uint256",
          "name": "_amountOut",
          "type": "uint256"
        },
        {
          "internalType": "address",
          "name": "_fromToken",
          "type": "address"
        },
        {
          "internalType": "address",
          "name": "_toToken",
          "type": "address"
        },
        {
          "internalType": "address",
          "name": "_to",
          "type": "address"
        }
      ],
      "name": "swap",
      "outputs": [],
      "stateMutability": "nonpayable",
      "type": "function"
    },
    {
      "inputs": [],
      "name": "swapGasEstimate",
      "outputs": [
        {
          "internalType": "uint256",
          "name": "",
          "type": "uint256"
        }
      ],
      "stateMutability": "view",
      "type": "function"
    },
    {
      "inputs": [
        {
          "internalType": "address",
          "name": "newOwner",
          "type": "address"
        }
      ],
      "name": "transferOwnership",
      "outputs": [],
      "stateMutability": "nonpayable",
      "type": "function"
    },
    {
      "stateMutability": "payable",
      "type": "receive"
    }
  ],
  "transactionHash": "0x561844c6b6dde4e47b1fbfb8c5a062d5a2972f8d7a38f7038cb7bfb7e098fdf9",
  "args": [
    "DodoV1Adapter",
    [
      "0xb42a054D950daFD872808B3c839Fbb7AFb86E14C",
      "0xe4B2Dfc82977dd2DCE7E8d37895a6A8F50CbB4fB",
      "0xFE176A2b1e1F67250d2903B8d25f56C0DaBcd6b2"
    ],
    "0xA5F36E822540eFD11FcD77ec46626b916B217c3e",
    335000
  ],
  "solcInputHash": "3d31bd7e10bf3531f6c263bc3f164c5d",
  "bytecode": "0x60a06040523480156200001157600080fd5b5060405162002d0038038062002d008339810160408190526200003491620009c1565b83813362000044600082620000b1565b620000707f339759585899103d2ace64958e37e18ccb0504652c81d4a1b8aa80fe2126ab9582620000b1565b506200007c82620000c1565b62000087816200012a565b5062000097905083600162000248565b5060601b6001600160601b0319166080525062000bb09050565b620000bd8282620002a7565b5050565b8051620001155760405162461bcd60e51b815260206004820152601460248201527f496e76616c69642061646170746572206e616d6500000000000000000000000060448201526064015b60405180910390fd5b8051620000bd90600290602084019062000824565b3360008181527fa54247010af6b3693b80aceddfad12e077c5de3571e6243fada502635f0d7d39602052604090205460ff16620001bb5760405162461bcd60e51b815260206004820152602860248201527f4d61696e7461696e61626c653a2043616c6c6572206973206e6f742061206d6160448201526734b73a30b4b732b960c11b60648201526084016200010c565b816200020a5760405162461bcd60e51b815260206004820152601460248201527f496e76616c6964206761732d657374696d61746500000000000000000000000060448201526064016200010c565b600182905560405182815230907ff43f23b7a28e6f8ce6843a21bd7b48bce778aa913b8c8cf459edf7d770e8d38a9060200160405180910390a25050565b60005b8251811015620002a2576200028f8382815181106200027a57634e487b7160e01b600052603260045260246000fd5b6020026020010151836200034760201b60201c565b6200029a8162000b72565b90506200024b565b505050565b6000828152602081815260408083206001600160a01b038516845290915290205460ff16620000bd576000828152602081815260408083206001600160a01b03851684529091529020805460ff19166001179055620003033390565b6001600160a01b0316816001600160a01b0316837f2f8788117e7eff1d82e926ec794901d17c78024a50270940304540a733656f0d60405160405180910390a45050565b6000806200035584620003b7565b91509150826200036c576200036c828286620004ad565b6200037982828662000548565b6001600160a01b0391821660009081526003602090815260408083209385168352929052208054919093166001600160a01b03199091161790915550565b600080826001600160a01b0316634a248d2a6040518163ffffffff1660e01b815260040160206040518083038186803b158015620003f457600080fd5b505afa15801562000409573d6000803e3d6000fd5b505050506040513d601f19601f820116820180604052508101906200042f91906200097b565b9150826001600160a01b031663d4b970466040518163ffffffff1660e01b815260040160206040518083038186803b1580156200046b57600080fd5b505afa15801562000480573d6000803e3d6000fd5b505050506040513d601f19601f82011682018060405250810190620004a691906200097b565b9050915091565b6001600160a01b038084166000908152600360209081526040808320868516845290915290205416801580620004f45750816001600160a01b0316816001600160a01b0316145b620005425760405162461bcd60e51b815260206004820152601860248201527f4e6f7420616c6c6f77656420746f206f7665727772697465000000000000000060448201526064016200010c565b50505050565b6200056f81600019856001600160a01b03166200059660201b62000f18179092919060201c565b620002a281600019846001600160a01b03166200059660201b62000f18179092919060201c565b801580620006245750604051636eb1769f60e11b81523060048201526001600160a01b03838116602483015284169063dd62ed3e9060440160206040518083038186803b158015620005e757600080fd5b505afa158015620005fc573d6000803e3d6000fd5b505050506040513d601f19601f8201168201806040525081019062000622919062000a9c565b155b620006985760405162461bcd60e51b815260206004820152603660248201527f5361666545524332303a20617070726f76652066726f6d206e6f6e2d7a65726f60448201527f20746f206e6f6e2d7a65726f20616c6c6f77616e63650000000000000000000060648201526084016200010c565b604080516001600160a01b038416602482015260448082018490528251808303909101815260649091019091526020810180516001600160e01b0390811663095ea7b360e01b17909152620002a2918591620006f016565b600080836001600160a01b0316836040516200070d919062000ab5565b6000604051808303816000865af19150503d80600081146200074c576040519150601f19603f3d011682016040523d82523d6000602084013e62000751565b606091505b509150915081620007a55760405162461bcd60e51b815260206004820181905260248201527f5361666545524332303a206c6f772d6c6576656c2063616c6c206661696c656460448201526064016200010c565b805115620005425780806020019051810190620007c391906200099f565b620005425760405162461bcd60e51b815260206004820152602a60248201527f5361666545524332303a204552433230206f7065726174696f6e20646964206e6044820152691bdd081cdd58d8d9595960b21b60648201526084016200010c565b828054620008329062000b35565b90600052602060002090601f016020900481019282620008565760008555620008a1565b82601f106200087157805160ff1916838001178555620008a1565b82800160010185558215620008a1579182015b82811115620008a157825182559160200191906001019062000884565b50620008af929150620008b3565b5090565b5b80821115620008af5760008155600101620008b4565b80516001600160a01b0381168114620008e257600080fd5b919050565b600082601f830112620008f8578081fd5b815160206001600160401b0382111562000916576200091662000b9a565b8160051b6200092782820162000ad3565b83815282810190868401838801850189101562000942578687fd5b8693505b858410156200096f576200095a81620008ca565b83526001939093019291840191840162000946565b50979650505050505050565b6000602082840312156200098d578081fd5b6200099882620008ca565b9392505050565b600060208284031215620009b1578081fd5b8151801515811462000998578182fd5b60008060008060808587031215620009d7578283fd5b84516001600160401b0380821115620009ee578485fd5b818701915087601f83011262000a02578485fd5b81518181111562000a175762000a1762000b9a565b62000a2c601f8201601f191660200162000ad3565b81815289602083860101111562000a41578687fd5b62000a5482602083016020870162000b06565b60208901519097509250508082111562000a6c578485fd5b5062000a7b87828801620008e7565b93505062000a8c60408601620008ca565b6060959095015193969295505050565b60006020828403121562000aae578081fd5b5051919050565b6000825162000ac981846020870162000b06565b9190910192915050565b604051601f8201601f191681016001600160401b038111828210171562000afe5762000afe62000b9a565b604052919050565b60005b8381101562000b2357818101518382015260200162000b09565b83811115620005425750506000910152565b600181811c9082168062000b4a57607f821691505b6020821081141562000b6c57634e487b7160e01b600052602260045260246000fd5b50919050565b600060001982141562000b9357634e487b7160e01b81526011600452602481fd5b5060010190565b634e487b7160e01b600052604160045260246000fd5b60805160601c61212a62000bd6600039600081816104880152611671015261212a6000f3fe6080604052600436106101845760003560e01c80638980f11f116100d6578063d8baf7cf1161007f578063f2fde38b11610059578063f2fde38b14610456578063f551bf2014610476578063f8742254146104c257600080fd5b8063d8baf7cf146103f6578063eab90da614610416578063ef99893a1461043657600080fd5b8063a217fddf116100b0578063a217fddf146103a1578063a746e4b2146103b6578063d547741f146103d657600080fd5b80638980f11f1461031d5780638bb9c5bf1461033d57806391d148541461035d57600080fd5b806349e38f32116101385780636b453c1f116101125780636b453c1f146102bd5780637ae26773146102dd57806384a33e63146102fd57600080fd5b806349e38f32146102675780634ebb79161461028757806369cff80d146102a757600080fd5b8063248a9ca311610169578063248a9ca3146101e75780632f2ff15d1461022557806336568abe1461024757600080fd5b806301ffc9a71461019057806306fdde03146101c557600080fd5b3661018b57005b600080fd5b34801561019c57600080fd5b506101b06101ab366004611e0f565b6104f6565b60405190151581526020015b60405180910390f35b3480156101d157600080fd5b506101da61055f565b6040516101bc9190611f8b565b3480156101f357600080fd5b50610217610202366004611dd3565b60009081526020819052604090206001015490565b6040519081526020016101bc565b34801561023157600080fd5b50610245610240366004611deb565b6105ed565b005b34801561025357600080fd5b50610245610262366004611deb565b610617565b34801561027357600080fd5b50610245610282366004611d72565b6106a8565b34801561029357600080fd5b506102456102a2366004611dd3565b610741565b3480156102b357600080fd5b5061021760015481565b3480156102c957600080fd5b506102456102d8366004611c9c565b610889565b3480156102e957600080fd5b506102456102f8366004611cd4565b6108b6565b34801561030957600080fd5b50610245610318366004611dd3565b61095a565b34801561032957600080fd5b50610245610338366004611d0c565b610a6d565b34801561034957600080fd5b50610245610358366004611dd3565b610ba8565b34801561036957600080fd5b506101b0610378366004611deb565b6000918252602082815260408084206001600160a01b0393909316845291905290205460ff1690565b3480156103ad57600080fd5b50610217600081565b3480156103c257600080fd5b506102456103d1366004611d37565b610bb3565b3480156103e257600080fd5b506102456103f1366004611deb565b610cd6565b34801561040257600080fd5b50610245610411366004611c9c565b610cfb565b34801561042257600080fd5b50610245610431366004611e90565b610d25565b34801561044257600080fd5b50610217610451366004611e4f565b610eea565b34801561046257600080fd5b50610245610471366004611c9c565b610f01565b34801561048257600080fd5b506104aa7f000000000000000000000000000000000000000000000000000000000000000081565b6040516001600160a01b0390911681526020016101bc565b3480156104ce57600080fd5b506102177f339759585899103d2ace64958e37e18ccb0504652c81d4a1b8aa80fe2126ab9581565b60006001600160e01b031982167f7965db0b00000000000000000000000000000000000000000000000000000000148061055957507f01ffc9a7000000000000000000000000000000000000000000000000000000006001600160e01b03198316145b92915050565b6002805461056c9061204f565b80601f01602080910402602001604051908101604052809291908181526020018280546105989061204f565b80156105e55780601f106105ba576101008083540402835291602001916105e5565b820191906000526020600020905b8154815290600101906020018083116105c857829003601f168201915b505050505081565b600082815260208190526040902060010154610608816110bd565b61061283836110c7565b505050565b6001600160a01b038116331461069a5760405162461bcd60e51b815260206004820152602f60248201527f416363657373436f6e74726f6c3a2063616e206f6e6c792072656e6f756e636560448201527f20726f6c657320666f722073656c66000000000000000000000000000000000060648201526084015b60405180910390fd5b6106a48282611165565b5050565b3360008181527fa54247010af6b3693b80aceddfad12e077c5de3571e6243fada502635f0d7d39602052604090205460ff166107375760405162461bcd60e51b815260206004820152602860248201527f4d61696e7461696e61626c653a2043616c6c6572206973206e6f742061206d6160448201526734b73a30b4b732b960c11b6064820152608401610691565b61061283836111e4565b3360008181527fa54247010af6b3693b80aceddfad12e077c5de3571e6243fada502635f0d7d39602052604090205460ff166107d05760405162461bcd60e51b815260206004820152602860248201527f4d61696e7461696e61626c653a2043616c6c6572206973206e6f742061206d6160448201526734b73a30b4b732b960c11b6064820152608401610691565b600082116108205760405162461bcd60e51b815260206004820152601e60248201527f59616b416461707465723a204e6f7468696e6720746f207265636f76657200006044820152606401610691565b604051339083156108fc029084906000818181858888f1935050505015801561084d573d6000803e3d6000fd5b506040518281526000907f8c1256b8896378cd5044f80c202f9772b9d77dc85c8a6eb51967210b09bfaa28906020015b60405180910390a25050565b6108b37f339759585899103d2ace64958e37e18ccb0504652c81d4a1b8aa80fe2126ab95826105ed565b50565b3360008181527fa54247010af6b3693b80aceddfad12e077c5de3571e6243fada502635f0d7d39602052604090205460ff166109455760405162461bcd60e51b815260206004820152602860248201527f4d61696e7461696e61626c653a2043616c6c6572206973206e6f742061206d6160448201526734b73a30b4b732b960c11b6064820152608401610691565b6106126001600160a01b038416836000610f18565b3360008181527fa54247010af6b3693b80aceddfad12e077c5de3571e6243fada502635f0d7d39602052604090205460ff166109e95760405162461bcd60e51b815260206004820152602860248201527f4d61696e7461696e61626c653a2043616c6c6572206973206e6f742061206d6160448201526734b73a30b4b732b960c11b6064820152608401610691565b81610a365760405162461bcd60e51b815260206004820152601460248201527f496e76616c6964206761732d657374696d6174650000000000000000000000006044820152606401610691565b600182905560405182815230907ff43f23b7a28e6f8ce6843a21bd7b48bce778aa913b8c8cf459edf7d770e8d38a9060200161087d565b3360008181527fa54247010af6b3693b80aceddfad12e077c5de3571e6243fada502635f0d7d39602052604090205460ff16610afc5760405162461bcd60e51b815260206004820152602860248201527f4d61696e7461696e61626c653a2043616c6c6572206973206e6f742061206d6160448201526734b73a30b4b732b960c11b6064820152608401610691565b60008211610b4c5760405162461bcd60e51b815260206004820152601e60248201527f59616b416461707465723a204e6f7468696e6720746f207265636f76657200006044820152606401610691565b610b606001600160a01b0384163384611231565b826001600160a01b03167f8c1256b8896378cd5044f80c202f9772b9d77dc85c8a6eb51967210b09bfaa2883604051610b9b91815260200190565b60405180910390a2505050565b336106a48282610617565b3360008181527fa54247010af6b3693b80aceddfad12e077c5de3571e6243fada502635f0d7d39602052604090205460ff16610c425760405162461bcd60e51b815260206004820152602860248201527f4d61696e7461696e61626c653a2043616c6c6572206973206e6f742061206d6160448201526734b73a30b4b732b960c11b6064820152608401610691565b60005b825181101561061257600080610c81858481518110610c7457634e487b7160e01b600052603260045260246000fd5b602002602001015161127a565b6001600160a01b0391821660009081526003602090815260408083209390941682529190915220805473ffffffffffffffffffffffffffffffffffffffff1916905550610ccf90508161208a565b9050610c45565b600082815260208190526040902060010154610cf1816110bd565b6106128383611165565b6108b37f339759585899103d2ace64958e37e18ccb0504652c81d4a1b8aa80fe2126ab9582610cd6565b6040516370a0823160e01b81526001600160a01b038281166004830152600091908416906370a082319060240160206040518083038186803b158015610d6a57600080fd5b505afa158015610d7e573d6000803e3d6000fd5b505050506040513d601f19601f82011682018060405250810190610da29190611e37565b9050610db18686868686611368565b6040516370a0823160e01b81526001600160a01b03838116600483015260009183918616906370a082319060240160206040518083038186803b158015610df757600080fd5b505afa158015610e0b573d6000803e3d6000fd5b505050506040513d601f19601f82011682018060405250810190610e2f9190611e37565b610e399190611ff5565b905085811015610e8b5760405162461bcd60e51b815260206004820152601760248201527f496e73756666696369656e7420616d6f756e742d6f75740000000000000000006044820152606401610691565b836001600160a01b0316856001600160a01b03167fe2bdbc6b7225eb0a972ac943c485a6cc05f7c6811838bce8903f23200fb744fa8989604051610ed9929190918252602082015260400190565b60405180910390a350505050505050565b6000610ef784848461152c565b90505b9392505050565b33610f0d6000836105ed565b6106a4600082610617565b801580610fba57506040517fdd62ed3e0000000000000000000000000000000000000000000000000000000081523060048201526001600160a01b03838116602483015284169063dd62ed3e9060440160206040518083038186803b158015610f8057600080fd5b505afa158015610f94573d6000803e3d6000fd5b505050506040513d601f19601f82011682018060405250810190610fb89190611e37565b155b61102c5760405162461bcd60e51b815260206004820152603660248201527f5361666545524332303a20617070726f76652066726f6d206e6f6e2d7a65726f60448201527f20746f206e6f6e2d7a65726f20616c6c6f77616e6365000000000000000000006064820152608401610691565b6040516001600160a01b0383166024820152604481018290526106129084907f095ea7b300000000000000000000000000000000000000000000000000000000906064015b60408051601f198184030181529190526020810180517bffffffffffffffffffffffffffffffffffffffffffffffffffffffff166001600160e01b0319909316929092179091526116a8565b6108b381336117ea565b6000828152602081815260408083206001600160a01b038516845290915290205460ff166106a4576000828152602081815260408083206001600160a01b03851684529091529020805460ff191660011790556111213390565b6001600160a01b0316816001600160a01b0316837f2f8788117e7eff1d82e926ec794901d17c78024a50270940304540a733656f0d60405160405180910390a45050565b6000828152602081815260408083206001600160a01b038516845290915290205460ff16156106a4576000828152602081815260408083206001600160a01b0385168085529252808320805460ff1916905551339285917ff6391f5c32d9c69d2a47ea670b442974b53935d1edc7fd64eb21e047a839171b9190a45050565b60005b82518110156106125761122183828151811061121357634e487b7160e01b600052603260045260246000fd5b602002602001015183611868565b61122a8161208a565b90506111e7565b6040516001600160a01b0383166024820152604481018290526106129084907fa9059cbb0000000000000000000000000000000000000000000000000000000090606401611071565b600080826001600160a01b0316634a248d2a6040518163ffffffff1660e01b815260040160206040518083038186803b1580156112b657600080fd5b505afa1580156112ca573d6000803e3d6000fd5b505050506040513d601f19601f820116820180604052508101906112ee9190611cb8565b9150826001600160a01b031663d4b970466040518163ffffffff1660e01b815260040160206040518083038186803b15801561132957600080fd5b505afa15801561133d573d6000803e3d6000fd5b505050506040513d601f19601f820116820180604052508101906113619190611cb8565b9050915091565b6001600160a01b0380841660009081526003602090815260408083208685168452909152902054168015611440576040517f8dae7333000000000000000000000000000000000000000000000000000000008152600481018790526024810186905260606044820152600060648201526001600160a01b03821690638dae733390608401602060405180830381600087803b15801561140657600080fd5b505af115801561141a573d6000803e3d6000fd5b505050506040513d601f19601f8201168201806040525081019061143e9190611e37565b505b506001600160a01b0380831660009081526003602090815260408083208785168452909152902054168015611519576040517fe67ce706000000000000000000000000000000000000000000000000000000008152600481018690526024810187905260606044820152600060648201526001600160a01b0382169063e67ce70690608401602060405180830381600087803b1580156114df57600080fd5b505af11580156114f3573d6000803e3d6000fd5b505050506040513d601f19601f820116820180604052508101906115179190611e37565b505b6115248386846118de565b505050505050565b60008361153b57506000610efa565b6001600160a01b0380841660009081526003602090815260408083208685168452909152902054168015611603576040517fa2801e16000000000000000000000000000000000000000000000000000000008152600481018690526001600160a01b0382169063a2801e16906024015b60206040518083038186803b1580156115c357600080fd5b505afa1580156115d7573d6000803e3d6000fd5b505050506040513d601f19601f820116820180604052508101906115fb9190611e37565b915050610efa565b506001600160a01b03808316600090815260036020908152604080832087851684529091529020541680156116a0576040517fca19ebd90000000000000000000000000000000000000000000000000000000081526001600160a01b038281166004830152602482018790527f0000000000000000000000000000000000000000000000000000000000000000169063ca19ebd9906044016115ab565b509392505050565b600080836001600160a01b0316836040516116c39190611eee565b6000604051808303816000865af19150503d8060008114611700576040519150601f19603f3d011682016040523d82523d6000602084013e611705565b606091505b5091509150816117575760405162461bcd60e51b815260206004820181905260248201527f5361666545524332303a206c6f772d6c6576656c2063616c6c206661696c65646044820152606401610691565b8051156117e457808060200190518101906117729190611db7565b6117e45760405162461bcd60e51b815260206004820152602a60248201527f5361666545524332303a204552433230206f7065726174696f6e20646964206e60448201527f6f742073756363656564000000000000000000000000000000000000000000006064820152608401610691565b50505050565b6000828152602081815260408083206001600160a01b038516845290915290205460ff166106a457611826816001600160a01b03166014611902565b611831836020611902565b604051602001611842929190611f0a565b60408051601f198184030181529082905262461bcd60e51b825261069191600401611f8b565b6000806118748461127a565b915091508261188857611888828286611b29565b611893828286611bbb565b6001600160a01b03918216600090815260036020908152604080832093851683529290522080549190931673ffffffffffffffffffffffffffffffffffffffff199091161790915550565b306001600160a01b03821614610612576106126001600160a01b0384168284611231565b60606000611911836002611fd6565b61191c906002611fbe565b67ffffffffffffffff81111561194257634e487b7160e01b600052604160045260246000fd5b6040519080825280601f01601f19166020018201604052801561196c576020820181803683370190505b5090507f3000000000000000000000000000000000000000000000000000000000000000816000815181106119b157634e487b7160e01b600052603260045260246000fd5b60200101906001600160f81b031916908160001a9053507f780000000000000000000000000000000000000000000000000000000000000081600181518110611a0a57634e487b7160e01b600052603260045260246000fd5b60200101906001600160f81b031916908160001a9053506000611a2e846002611fd6565b611a39906001611fbe565b90505b6001811115611ada577f303132333435363738396162636465660000000000000000000000000000000085600f1660108110611a8857634e487b7160e01b600052603260045260246000fd5b1a60f81b828281518110611aac57634e487b7160e01b600052603260045260246000fd5b60200101906001600160f81b031916908160001a90535060049490941c93611ad381612038565b9050611a3c565b508315610efa5760405162461bcd60e51b815260206004820181905260248201527f537472696e67733a20686578206c656e67746820696e73756666696369656e746044820152606401610691565b6001600160a01b038084166000908152600360209081526040808320868516845290915290205416801580611b6f5750816001600160a01b0316816001600160a01b0316145b6117e45760405162461bcd60e51b815260206004820152601860248201527f4e6f7420616c6c6f77656420746f206f766572777269746500000000000000006044820152606401610691565b611bd16001600160a01b03841682600019610f18565b6106126001600160a01b03831682600019610f18565b8035611bf2816120d1565b919050565b600082601f830112611c07578081fd5b8135602067ffffffffffffffff80831115611c2457611c246120bb565b8260051b604051601f19603f83011681018181108482111715611c4957611c496120bb565b60405284815283810192508684018288018501891015611c67578687fd5b8692505b85831015611c9057611c7c81611be7565b845292840192600192909201918401611c6b565b50979650505050505050565b600060208284031215611cad578081fd5b8135610efa816120d1565b600060208284031215611cc9578081fd5b8151610efa816120d1565b60008060408385031215611ce6578081fd5b8235611cf1816120d1565b91506020830135611d01816120d1565b809150509250929050565b60008060408385031215611d1e578182fd5b8235611d29816120d1565b946020939093013593505050565b600060208284031215611d48578081fd5b813567ffffffffffffffff811115611d5e578182fd5b611d6a84828501611bf7565b949350505050565b60008060408385031215611d84578182fd5b823567ffffffffffffffff811115611d9a578283fd5b611da685828601611bf7565b9250506020830135611d01816120e6565b600060208284031215611dc8578081fd5b8151610efa816120e6565b600060208284031215611de4578081fd5b5035919050565b60008060408385031215611dfd578182fd5b823591506020830135611d01816120d1565b600060208284031215611e20578081fd5b81356001600160e01b031981168114610efa578182fd5b600060208284031215611e48578081fd5b5051919050565b600080600060608486031215611e63578081fd5b833592506020840135611e75816120d1565b91506040840135611e85816120d1565b809150509250925092565b600080600080600060a08688031215611ea7578081fd5b85359450602086013593506040860135611ec0816120d1565b92506060860135611ed0816120d1565b91506080860135611ee0816120d1565b809150509295509295909350565b60008251611f0081846020870161200c565b9190910192915050565b7f416363657373436f6e74726f6c3a206163636f756e7420000000000000000000815260008351611f4281601785016020880161200c565b7f206973206d697373696e6720726f6c65200000000000000000000000000000006017918401918201528351611f7f81602884016020880161200c565b01602801949350505050565b6020815260008251806020840152611faa81604085016020870161200c565b601f01601f19169190910160400192915050565b60008219821115611fd157611fd16120a5565b500190565b6000816000190483118215151615611ff057611ff06120a5565b500290565b600082821015612007576120076120a5565b500390565b60005b8381101561202757818101518382015260200161200f565b838111156117e45750506000910152565b600081612047576120476120a5565b506000190190565b600181811c9082168061206357607f821691505b6020821081141561208457634e487b7160e01b600052602260045260246000fd5b50919050565b600060001982141561209e5761209e6120a5565b5060010190565b634e487b7160e01b600052601160045260246000fd5b634e487b7160e01b600052604160045260246000fd5b6001600160a01b03811681146108b357600080fd5b80151581146108b357600080fdfea264697066735822122016a2e9912f1011198a76625a920902395ef52061945d394a3f63bbd4d0e3f5b164736f6c63430008040033",
  "devdoc": {
    "kind": "dev",
    "methods": {
      "getRoleAdmin(bytes32)": {
        "details": "Returns the admin role that controls `role`. See {grantRole} and {revokeRole}. To change a role's admin, use {_setRoleAdmin}."
      },
      "grantRole(bytes32,address)": {
        "details": "Grants `role` to `account`. If `account` had not been already granted `role`, emits a {RoleGranted} event. Requirements: - the caller must have ``role``'s admin role. May emit a {RoleGranted} event."
      },
      "hasRole(bytes32,address)": {
        "details": "Returns `true` if `account` has been granted `role`."
      },
      "renounceRole(bytes32,address)": {
        "details": "Revokes `role` from the calling account. Roles are often managed via {grantRole} and {revokeRole}: this function's purpose is to provide a mechanism for accounts to lose their privileges if they are compromised (such as when a trusted device is misplaced). If the calling account had been revoked `role`, emits a {RoleRevoked} event. Requirements: - the caller must be `account`. May emit a {RoleRevoked} event."
      },
      "revokeRole(bytes32,address)": {
        "details": "Revokes `role` from `account`. If `account` had been granted `role`, emits a {RoleRevoked} event. Requirements: - the caller must have ``role``'s admin role. May emit a {RoleRevoked} event."
      },
      "supportsInterface(bytes4)": {
        "details": "See {IERC165-supportsInterface}."
      }
    },
    "version": 1
  },
  "userdoc": {
    "kind": "user",
    "methods": {},
    "version": 1
  },
  "storageLayout": {
    "storage": [
      {
        "astId": 24,
        "contract": "src/contracts/adapters/DodoV1Adapter.sol:DodoV1Adapter",
        "label": "_roles",
        "offset": 0,
        "slot": "0",
        "type": "t_mapping(t_bytes32,t_struct(RoleData)19_storage)"
      },
      {
        "astId": 1451,
        "contract": "src/contracts/adapters/DodoV1Adapter.sol:DodoV1Adapter",
        "label": "swapGasEstimate",
        "offset": 0,
        "slot": "1",
        "type": "t_uint256"
      },
      {
        "astId": 1453,
        "contract": "src/contracts/adapters/DodoV1Adapter.sol:DodoV1Adapter",
        "label": "name",
        "offset": 0,
        "slot": "2",
        "type": "t_string_storage"
      },
      {
        "astId": 8065,
        "contract": "src/contracts/adapters/DodoV1Adapter.sol:DodoV1Adapter",
        "label": "tknsToPool",
        "offset": 0,
        "slot": "3",
        "type": "t_mapping(t_address,t_mapping(t_address,t_address))"
      }
    ],
    "types": {
      "t_address": {
        "encoding": "inplace",
        "label": "address",
        "numberOfBytes": "20"
      },
      "t_bool": {
        "encoding": "inplace",
        "label": "bool",
        "numberOfBytes": "1"
      },
      "t_bytes32": {
        "encoding": "inplace",
        "label": "bytes32",
        "numberOfBytes": "32"
      },
      "t_mapping(t_address,t_address)": {
        "encoding": "mapping",
        "key": "t_address",
        "label": "mapping(address => address)",
        "numberOfBytes": "32",
        "value": "t_address"
      },
      "t_mapping(t_address,t_bool)": {
        "encoding": "mapping",
        "key": "t_address",
        "label": "mapping(address => bool)",
        "numberOfBytes": "32",
        "value": "t_bool"
      },
      "t_mapping(t_address,t_mapping(t_address,t_address))": {
        "encoding": "mapping",
        "key": "t_address",
        "label": "mapping(address => mapping(address => address))",
        "numberOfBytes": "32",
        "value": "t_mapping(t_address,t_address)"
      },
      "t_mapping(t_bytes32,t_struct(RoleData)19_storage)": {
        "encoding": "mapping",
        "key": "t_bytes32",
        "label": "mapping(bytes32 => struct AccessControl.RoleData)",
        "numberOfBytes": "32",
        "value": "t_struct(RoleData)19_storage"
      },
      "t_string_storage": {
        "encoding": "bytes",
        "label": "string",
        "numberOfBytes": "32"
      },
      "t_struct(RoleData)19_storage": {
        "encoding": "inplace",
        "label": "struct AccessControl.RoleData",
        "members": [
          {
            "astId": 16,
            "contract": "src/contracts/adapters/DodoV1Adapter.sol:DodoV1Adapter",
            "label": "members",
            "offset": 0,
            "slot": "0",
            "type": "t_mapping(t_address,t_bool)"
          },
          {
            "astId": 18,
            "contract": "src/contracts/adapters/DodoV1Adapter.sol:DodoV1Adapter",
            "label": "adminRole",
            "offset": 0,
            "slot": "1",
            "type": "t_bytes32"
          }
        ],
        "numberOfBytes": "64"
      },
      "t_uint256": {
        "encoding": "inplace",
        "label": "uint256",
        "numberOfBytes": "32"
      }
    }
  }
}