{
  "address": "0x6ba31f7EDe9359C2bBf4D835484881E6B501f874",
  "abi": [
    {
      "inputs": [
        {
          "internalType": "string",
          "name": "_name",
          "type": "string"
        },
        {
          "internalType": "address[]",
          "name": "_pools",
          "type": "address[]"
        },
        {
          "internalType": "uint256",
          "name": "_gasEstimate",
          "type": "uint256"
        }
      ],
      "stateMutability": "nonpayable",
      "type": "constructor"
    },
    {
      "anonymous": false,
      "inputs": [
        {
          "indexed": true,
          "internalType": "address",
          "name": "_asset",
          "type": "address"
        },
        {
          "indexed": false,
          "internalType": "uint256",
          "name": "amount",
          "type": "uint256"
        }
      ],
      "name": "Recovered",
      "type": "event"
    },
    {
      "anonymous": false,
      "inputs": [
        {
          "indexed": true,
          "internalType": "bytes32",
          "name": "role",
          "type": "bytes32"
        },
        {
          "indexed": true,
          "internalType": "bytes32",
          "name": "previousAdminRole",
          "type": "bytes32"
        },
        {
          "indexed": true,
          "internalType": "bytes32",
          "name": "newAdminRole",
          "type": "bytes32"
        }
      ],
      "name": "RoleAdminChanged",
      "type": "event"
    },
    {
      "anonymous": false,
      "inputs": [
        {
          "indexed": true,
          "internalType": "bytes32",
          "name": "role",
          "type": "bytes32"
        },
        {
          "indexed": true,
          "internalType": "address",
          "name": "account",
          "type": "address"
        },
        {
          "indexed": true,
          "internalType": "address",
          "name": "sender",
          "type": "address"
        }
      ],
      "name": "RoleGranted",
      "type": "event"
    },
    {
      "anonymous": false,
      "inputs": [
        {
          "indexed": true,
          "internalType": "bytes32",
          "name": "role",
          "type": "bytes32"
        },
        {
          "indexed": true,
          "internalType": "address",
          "name": "account",
          "type": "address"
        },
        {
          "indexed": true,
          "internalType": "address",
          "name": "sender",
          "type": "address"
        }
      ],
      "name": "RoleRevoked",
      "type": "event"
    },
    {
      "anonymous": false,
      "inputs": [
        {
          "indexed": true,
          "internalType": "address",
          "name": "_adapter",
          "type": "address"
        },
        {
          "indexed": false,
          "internalType": "uint256",
          "name": "_newEstimate",
          "type": "uint256"
        }
      ],
      "name": "UpdatedGasEstimate",
      "type": "event"
    },
    {
      "anonymous": false,
      "inputs": [
        {
          "indexed": true,
          "internalType": "address",
          "name": "_tokenFrom",
          "type": "address"
        },
        {
          "indexed": true,
          "internalType": "address",
          "name": "_tokenTo",
          "type": "address"
        },
        {
          "indexed": false,
          "internalType": "uint256",
          "name": "_amountIn",
          "type": "uint256"
        },
        {
          "indexed": false,
          "internalType": "uint256",
          "name": "_amountOut",
          "type": "uint256"
        }
      ],
      "name": "YakAdapterSwap",
      "type": "event"
    },
    {
      "inputs": [],
      "name": "DEFAULT_ADMIN_ROLE",
      "outputs": [
        {
          "internalType": "bytes32",
          "name": "",
          "type": "bytes32"
        }
      ],
      "stateMutability": "view",
      "type": "function"
    },
    {
      "inputs": [],
      "name": "MAINTAINER_ROLE",
      "outputs": [
        {
          "internalType": "bytes32",
          "name": "",
          "type": "bytes32"
        }
      ],
      "stateMutability": "view",
      "type": "function"
    },
    {
      "inputs": [
        {
          "internalType": "address[]",
          "name": "_pools",
          "type": "address[]"
        }
      ],
      "name": "_rmPools",
      "outputs": [],
      "stateMutability": "nonpayable",
      "type": "function"
    },
    {
      "inputs": [
        {
          "internalType": "address",
          "name": "addedMaintainer",
          "type": "address"
        }
      ],
      "name": "addMaintainer",
      "outputs": [],
      "stateMutability": "nonpayable",
      "type": "function"
    },
    {
      "inputs": [
        {
          "internalType": "bytes32",
          "name": "role",
          "type": "bytes32"
        }
      ],
      "name": "getRoleAdmin",
      "outputs": [
        {
          "internalType": "bytes32",
          "name": "",
          "type": "bytes32"
        }
      ],
      "stateMutability": "view",
      "type": "function"
    },
    {
      "inputs": [
        {
          "internalType": "bytes32",
          "name": "role",
          "type": "bytes32"
        },
        {
          "internalType": "address",
          "name": "account",
          "type": "address"
        }
      ],
      "name": "grantRole",
      "outputs": [],
      "stateMutability": "nonpayable",
      "type": "function"
    },
    {
      "inputs": [
        {
          "internalType": "bytes32",
          "name": "role",
          "type": "bytes32"
        },
        {
          "internalType": "address",
          "name": "account",
          "type": "address"
        }
      ],
      "name": "hasRole",
      "outputs": [
        {
          "internalType": "bool",
          "name": "",
          "type": "bool"
        }
      ],
      "stateMutability": "view",
      "type": "function"
    },
    {
      "inputs": [],
      "name": "name",
      "outputs": [
        {
          "internalType": "string",
          "name": "",
          "type": "string"
        }
      ],
      "stateMutability": "view",
      "type": "function"
    },
    {
      "inputs": [
        {
          "internalType": "uint256",
          "name": "_amountIn",
          "type": "uint256"
        },
        {
          "internalType": "address",
          "name": "_tokenIn",
          "type": "address"
        },
        {
          "internalType": "address",
          "name": "_tokenOut",
          "type": "address"
        }
      ],
      "name": "query",
      "outputs": [
        {
          "internalType": "uint256",
          "name": "",
          "type": "uint256"
        }
      ],
      "stateMutability": "view",
      "type": "function"
    },
    {
      "inputs": [
        {
          "internalType": "uint256",
          "name": "_amount",
          "type": "uint256"
        }
      ],
      "name": "recoverAVAX",
      "outputs": [],
      "stateMutability": "nonpayable",
      "type": "function"
    },
    {
      "inputs": [
        {
          "internalType": "address",
          "name": "_tokenAddress",
          "type": "address"
        },
        {
          "internalType": "uint256",
          "name": "_tokenAmount",
          "type": "uint256"
        }
      ],
      "name": "recoverERC20",
      "outputs": [],
      "stateMutability": "nonpayable",
      "type": "function"
    },
    {
      "inputs": [
        {
          "internalType": "address",
          "name": "removedMaintainer",
          "type": "address"
        }
      ],
      "name": "removeMaintainer",
      "outputs": [],
      "stateMutability": "nonpayable",
      "type": "function"
    },
    {
      "inputs": [
        {
          "internalType": "bytes32",
          "name": "role",
          "type": "bytes32"
        },
        {
          "internalType": "address",
          "name": "account",
          "type": "address"
        }
      ],
      "name": "renounceRole",
      "outputs": [],
      "stateMutability": "nonpayable",
      "type": "function"
    },
    {
      "inputs": [
        {
          "internalType": "bytes32",
          "name": "role",
          "type": "bytes32"
        }
      ],
      "name": "renounceRole",
      "outputs": [],
      "stateMutability": "nonpayable",
      "type": "function"
    },
    {
      "inputs": [
        {
          "internalType": "address",
          "name": "_token",
          "type": "address"
        },
        {
          "internalType": "address",
          "name": "_spender",
          "type": "address"
        }
      ],
      "name": "revokeAllowance",
      "outputs": [],
      "stateMutability": "nonpayable",
      "type": "function"
    },
    {
      "inputs": [
        {
          "internalType": "bytes32",
          "name": "role",
          "type": "bytes32"
        },
        {
          "internalType": "address",
          "name": "account",
          "type": "address"
        }
      ],
      "name": "revokeRole",
      "outputs": [],
      "stateMutability": "nonpayable",
      "type": "function"
    },
    {
      "inputs": [
        {
          "internalType": "address[]",
          "name": "_pools",
          "type": "address[]"
        },
        {
          "internalType": "bool",
          "name": "overwrite",
          "type": "bool"
        }
      ],
      "name": "setPools",
      "outputs": [],
      "stateMutability": "nonpayable",
      "type": "function"
    },
    {
      "inputs": [
        {
          "internalType": "uint256",
          "name": "_estimate",
          "type": "uint256"
        }
      ],
      "name": "setSwapGasEstimate",
      "outputs": [],
      "stateMutability": "nonpayable",
      "type": "function"
    },
    {
      "inputs": [
        {
          "internalType": "bytes4",
          "name": "interfaceId",
          "type": "bytes4"
        }
      ],
      "name": "supportsInterface",
      "outputs": [
        {
          "internalType": "bool",
          "name": "",
          "type": "bool"
        }
      ],
      "stateMutability": "view",
      "type": "function"
    },
    {
      "inputs": [
        {
          "internalType": "uint256",
          "name": "_amountIn",
          "type": "uint256"
        },
        {
          "internalType": "uint256",
          "name": "_amountOut",
          "type": "uint256"
        },
        {
          "internalType": "address",
          "name": "_fromToken",
          "type": "address"
        },
        {
          "internalType": "address",
          "name": "_toToken",
          "type": "address"
        },
        {
          "internalType": "address",
          "name": "_to",
          "type": "address"
        }
      ],
      "name": "swap",
      "outputs": [],
      "stateMutability": "nonpayable",
      "type": "function"
    },
    {
      "inputs": [],
      "name": "swapGasEstimate",
      "outputs": [
        {
          "internalType": "uint256",
          "name": "",
          "type": "uint256"
        }
      ],
      "stateMutability": "view",
      "type": "function"
    },
    {
      "inputs": [
        {
          "internalType": "address",
          "name": "",
          "type": "address"
        },
        {
          "internalType": "address",
          "name": "",
          "type": "address"
        }
      ],
      "name": "tknsToPool",
      "outputs": [
        {
          "internalType": "address",
          "name": "",
          "type": "address"
        }
      ],
      "stateMutability": "view",
      "type": "function"
    },
    {
      "inputs": [
        {
          "internalType": "address",
          "name": "newOwner",
          "type": "address"
        }
      ],
      "name": "transferOwnership",
      "outputs": [],
      "stateMutability": "nonpayable",
      "type": "function"
    },
    {
      "stateMutability": "payable",
      "type": "receive"
    }
  ],
  "transactionHash": "0x31519acb90af4e8c8458ba87ac0ca6da84c11741201541592e5271623c2dacd3",
  "args": [
    "DodoV2Adapter",
    [
      "0x6a58c68FF5C4e4D90EB6561449CC74A64F818dA5"
    ],
    290000
  ],
  "solcInputHash": "3d31bd7e10bf3531f6c263bc3f164c5d",
  "bytecode": "0x60806040523480156200001157600080fd5b506040516200296b3803806200296b8339810160408190526200003491620006a5565b82813362000044600082620000a0565b620000707f339759585899103d2ace64958e37e18ccb0504652c81d4a1b8aa80fe2126ab9582620000a0565b506200007c82620000b0565b620000878162000119565b5062000097905082600162000237565b5050506200083a565b620000ac828262000296565b5050565b8051620001045760405162461bcd60e51b815260206004820152601460248201527f496e76616c69642061646170746572206e616d6500000000000000000000000060448201526064015b60405180910390fd5b8051620000ac9060029060208401906200052a565b3360008181527fa54247010af6b3693b80aceddfad12e077c5de3571e6243fada502635f0d7d39602052604090205460ff16620001aa5760405162461bcd60e51b815260206004820152602860248201527f4d61696e7461696e61626c653a2043616c6c6572206973206e6f742061206d6160448201526734b73a30b4b732b960c11b6064820152608401620000fb565b81620001f95760405162461bcd60e51b815260206004820152601460248201527f496e76616c6964206761732d657374696d6174650000000000000000000000006044820152606401620000fb565b600182905560405182815230907ff43f23b7a28e6f8ce6843a21bd7b48bce778aa913b8c8cf459edf7d770e8d38a9060200160405180910390a25050565b60005b825181101562000291576200027e8382815181106200026957634e487b7160e01b600052603260045260246000fd5b6020026020010151836200033660201b60201c565b6200028981620007fc565b90506200023a565b505050565b6000828152602081815260408083206001600160a01b038516845290915290205460ff16620000ac576000828152602081815260408083206001600160a01b03851684529091529020805460ff19166001179055620002f23390565b6001600160a01b0316816001600160a01b0316837f2f8788117e7eff1d82e926ec794901d17c78024a50270940304540a733656f0d60405160405180910390a45050565b600080620003448462000399565b91509150826200035b576200035b8282866200048f565b6001600160a01b0391821660009081526003602090815260408083209385168352929052208054919093166001600160a01b03199091161790915550565b600080826001600160a01b0316634a248d2a6040518163ffffffff1660e01b815260040160206040518083038186803b158015620003d657600080fd5b505afa158015620003eb573d6000803e3d6000fd5b505050506040513d601f19601f8201168201806040525081019062000411919062000681565b9150826001600160a01b031663d4b970466040518163ffffffff1660e01b815260040160206040518083038186803b1580156200044d57600080fd5b505afa15801562000462573d6000803e3d6000fd5b505050506040513d601f19601f8201168201806040525081019062000488919062000681565b9050915091565b6001600160a01b038084166000908152600360209081526040808320868516845290915290205416801580620004d65750816001600160a01b0316816001600160a01b0316145b620005245760405162461bcd60e51b815260206004820152601860248201527f4e6f7420616c6c6f77656420746f206f766572777269746500000000000000006044820152606401620000fb565b50505050565b8280546200053890620007bf565b90600052602060002090601f0160209004810192826200055c5760008555620005a7565b82601f106200057757805160ff1916838001178555620005a7565b82800160010185558215620005a7579182015b82811115620005a75782518255916020019190600101906200058a565b50620005b5929150620005b9565b5090565b5b80821115620005b55760008155600101620005ba565b80516001600160a01b0381168114620005e857600080fd5b919050565b600082601f830112620005fe578081fd5b815160206001600160401b038211156200061c576200061c62000824565b8160051b6200062d8282016200078c565b83815282810190868401838801850189101562000648578687fd5b8693505b8584101562000675576200066081620005d0565b8352600193909301929184019184016200064c565b50979650505050505050565b60006020828403121562000693578081fd5b6200069e82620005d0565b9392505050565b600080600060608486031215620006ba578182fd5b83516001600160401b0380821115620006d1578384fd5b818601915086601f830112620006e5578384fd5b815181811115620006fa57620006fa62000824565b602062000710601f8301601f191682016200078c565b828152898284870101111562000724578687fd5b865b838110156200074357858101830151828201840152820162000726565b838111156200075457878385840101525b5090880151909650925050808211156200076c578384fd5b506200077b86828701620005ed565b925050604084015190509250925092565b604051601f8201601f191681016001600160401b0381118282101715620007b757620007b762000824565b604052919050565b600181811c90821680620007d457607f821691505b60208210811415620007f657634e487b7160e01b600052602260045260246000fd5b50919050565b60006000198214156200081d57634e487b7160e01b81526011600452602481fd5b5060010190565b634e487b7160e01b600052604160045260246000fd5b612121806200084a6000396000f3fe6080604052600436106101845760003560e01c806384a33e63116100d6578063d547741f1161007f578063ef99893a11610059578063ef99893a1461048f578063f2fde38b146104af578063f8742254146104cf57600080fd5b8063d547741f1461042f578063d8baf7cf1461044f578063eab90da61461046f57600080fd5b806391d14854116100b057806391d14854146103b6578063a217fddf146103fa578063a746e4b21461040f57600080fd5b806384a33e63146103565780638980f11f146103765780638bb9c5bf1461039657600080fd5b806349e38f32116101385780636b453c1f116101125780636b453c1f146102bd57806372d52c0b146102dd5780637ae267731461033657600080fd5b806349e38f32146102675780634ebb79161461028757806369cff80d146102a757600080fd5b8063248a9ca311610169578063248a9ca3146101e75780632f2ff15d1461022557806336568abe1461024757600080fd5b806301ffc9a71461019057806306fdde03146101c557600080fd5b3661018b57005b600080fd5b34801561019c57600080fd5b506101b06101ab366004611e06565b610503565b60405190151581526020015b60405180910390f35b3480156101d157600080fd5b506101da61056c565b6040516101bc9190611f82565b3480156101f357600080fd5b50610217610202366004611dca565b60009081526020819052604090206001015490565b6040519081526020016101bc565b34801561023157600080fd5b50610245610240366004611de2565b6105fa565b005b34801561025357600080fd5b50610245610262366004611de2565b610624565b34801561027357600080fd5b50610245610282366004611d69565b6106b5565b34801561029357600080fd5b506102456102a2366004611dca565b61074e565b3480156102b357600080fd5b5061021760015481565b3480156102c957600080fd5b506102456102d8366004611c93565b610896565b3480156102e957600080fd5b5061031e6102f8366004611ccb565b60036020908152600092835260408084209091529082529020546001600160a01b031681565b6040516001600160a01b0390911681526020016101bc565b34801561034257600080fd5b50610245610351366004611ccb565b6108c3565b34801561036257600080fd5b50610245610371366004611dca565b610967565b34801561038257600080fd5b50610245610391366004611d03565b610a7a565b3480156103a257600080fd5b506102456103b1366004611dca565b610bb5565b3480156103c257600080fd5b506101b06103d1366004611de2565b6000918252602082815260408084206001600160a01b0393909316845291905290205460ff1690565b34801561040657600080fd5b50610217600081565b34801561041b57600080fd5b5061024561042a366004611d2e565b610bc0565b34801561043b57600080fd5b5061024561044a366004611de2565b610ce3565b34801561045b57600080fd5b5061024561046a366004611c93565b610d08565b34801561047b57600080fd5b5061024561048a366004611e87565b610d32565b34801561049b57600080fd5b506102176104aa366004611e46565b610ef7565b3480156104bb57600080fd5b506102456104ca366004611c93565b610f0e565b3480156104db57600080fd5b506102177f339759585899103d2ace64958e37e18ccb0504652c81d4a1b8aa80fe2126ab9581565b60006001600160e01b031982167f7965db0b00000000000000000000000000000000000000000000000000000000148061056657507f01ffc9a7000000000000000000000000000000000000000000000000000000006001600160e01b03198316145b92915050565b6002805461057990612046565b80601f01602080910402602001604051908101604052809291908181526020018280546105a590612046565b80156105f25780601f106105c7576101008083540402835291602001916105f2565b820191906000526020600020905b8154815290600101906020018083116105d557829003601f168201915b505050505081565b60008281526020819052604090206001015461061581610f25565b61061f8383610f2f565b505050565b6001600160a01b03811633146106a75760405162461bcd60e51b815260206004820152602f60248201527f416363657373436f6e74726f6c3a2063616e206f6e6c792072656e6f756e636560448201527f20726f6c657320666f722073656c66000000000000000000000000000000000060648201526084015b60405180910390fd5b6106b18282610fcd565b5050565b3360008181527fa54247010af6b3693b80aceddfad12e077c5de3571e6243fada502635f0d7d39602052604090205460ff166107445760405162461bcd60e51b815260206004820152602860248201527f4d61696e7461696e61626c653a2043616c6c6572206973206e6f742061206d6160448201526734b73a30b4b732b960c11b606482015260840161069e565b61061f838361104c565b3360008181527fa54247010af6b3693b80aceddfad12e077c5de3571e6243fada502635f0d7d39602052604090205460ff166107dd5760405162461bcd60e51b815260206004820152602860248201527f4d61696e7461696e61626c653a2043616c6c6572206973206e6f742061206d6160448201526734b73a30b4b732b960c11b606482015260840161069e565b6000821161082d5760405162461bcd60e51b815260206004820152601e60248201527f59616b416461707465723a204e6f7468696e6720746f207265636f7665720000604482015260640161069e565b604051339083156108fc029084906000818181858888f1935050505015801561085a573d6000803e3d6000fd5b506040518281526000907f8c1256b8896378cd5044f80c202f9772b9d77dc85c8a6eb51967210b09bfaa28906020015b60405180910390a25050565b6108c07f339759585899103d2ace64958e37e18ccb0504652c81d4a1b8aa80fe2126ab95826105fa565b50565b3360008181527fa54247010af6b3693b80aceddfad12e077c5de3571e6243fada502635f0d7d39602052604090205460ff166109525760405162461bcd60e51b815260206004820152602860248201527f4d61696e7461696e61626c653a2043616c6c6572206973206e6f742061206d6160448201526734b73a30b4b732b960c11b606482015260840161069e565b61061f6001600160a01b038416836000611099565b3360008181527fa54247010af6b3693b80aceddfad12e077c5de3571e6243fada502635f0d7d39602052604090205460ff166109f65760405162461bcd60e51b815260206004820152602860248201527f4d61696e7461696e61626c653a2043616c6c6572206973206e6f742061206d6160448201526734b73a30b4b732b960c11b606482015260840161069e565b81610a435760405162461bcd60e51b815260206004820152601460248201527f496e76616c6964206761732d657374696d617465000000000000000000000000604482015260640161069e565b600182905560405182815230907ff43f23b7a28e6f8ce6843a21bd7b48bce778aa913b8c8cf459edf7d770e8d38a9060200161088a565b3360008181527fa54247010af6b3693b80aceddfad12e077c5de3571e6243fada502635f0d7d39602052604090205460ff16610b095760405162461bcd60e51b815260206004820152602860248201527f4d61696e7461696e61626c653a2043616c6c6572206973206e6f742061206d6160448201526734b73a30b4b732b960c11b606482015260840161069e565b60008211610b595760405162461bcd60e51b815260206004820152601e60248201527f59616b416461707465723a204e6f7468696e6720746f207265636f7665720000604482015260640161069e565b610b6d6001600160a01b038416338461123e565b826001600160a01b03167f8c1256b8896378cd5044f80c202f9772b9d77dc85c8a6eb51967210b09bfaa2883604051610ba891815260200190565b60405180910390a2505050565b336106b18282610624565b3360008181527fa54247010af6b3693b80aceddfad12e077c5de3571e6243fada502635f0d7d39602052604090205460ff16610c4f5760405162461bcd60e51b815260206004820152602860248201527f4d61696e7461696e61626c653a2043616c6c6572206973206e6f742061206d6160448201526734b73a30b4b732b960c11b606482015260840161069e565b60005b825181101561061f57600080610c8e858481518110610c8157634e487b7160e01b600052603260045260246000fd5b6020026020010151611287565b6001600160a01b0391821660009081526003602090815260408083209390941682529190915220805473ffffffffffffffffffffffffffffffffffffffff1916905550610cdc905081612081565b9050610c52565b600082815260208190526040902060010154610cfe81610f25565b61061f8383610fcd565b6108c07f339759585899103d2ace64958e37e18ccb0504652c81d4a1b8aa80fe2126ab9582610ce3565b6040516370a0823160e01b81526001600160a01b038281166004830152600091908416906370a082319060240160206040518083038186803b158015610d7757600080fd5b505afa158015610d8b573d6000803e3d6000fd5b505050506040513d601f19601f82011682018060405250810190610daf9190611e2e565b9050610dbe8686868686611375565b6040516370a0823160e01b81526001600160a01b03838116600483015260009183918616906370a082319060240160206040518083038186803b158015610e0457600080fd5b505afa158015610e18573d6000803e3d6000fd5b505050506040513d601f19601f82011682018060405250810190610e3c9190611e2e565b610e469190611fec565b905085811015610e985760405162461bcd60e51b815260206004820152601760248201527f496e73756666696369656e7420616d6f756e742d6f7574000000000000000000604482015260640161069e565b836001600160a01b0316856001600160a01b03167fe2bdbc6b7225eb0a972ac943c485a6cc05f7c6811838bce8903f23200fb744fa8989604051610ee6929190918252602082015260400190565b60405180910390a350505050505050565b6000610f048484846113e7565b90505b9392505050565b33610f1a6000836105fa565b6106b1600082610624565b6108c08133611547565b6000828152602081815260408083206001600160a01b038516845290915290205460ff166106b1576000828152602081815260408083206001600160a01b03851684529091529020805460ff19166001179055610f893390565b6001600160a01b0316816001600160a01b0316837f2f8788117e7eff1d82e926ec794901d17c78024a50270940304540a733656f0d60405160405180910390a45050565b6000828152602081815260408083206001600160a01b038516845290915290205460ff16156106b1576000828152602081815260408083206001600160a01b0385168085529252808320805460ff1916905551339285917ff6391f5c32d9c69d2a47ea670b442974b53935d1edc7fd64eb21e047a839171b9190a45050565b60005b825181101561061f5761108983828151811061107b57634e487b7160e01b600052603260045260246000fd5b6020026020010151836115c5565b61109281612081565b905061104f565b80158061113b57506040517fdd62ed3e0000000000000000000000000000000000000000000000000000000081523060048201526001600160a01b03838116602483015284169063dd62ed3e9060440160206040518083038186803b15801561110157600080fd5b505afa158015611115573d6000803e3d6000fd5b505050506040513d601f19601f820116820180604052508101906111399190611e2e565b155b6111ad5760405162461bcd60e51b815260206004820152603660248201527f5361666545524332303a20617070726f76652066726f6d206e6f6e2d7a65726f60448201527f20746f206e6f6e2d7a65726f20616c6c6f77616e636500000000000000000000606482015260840161069e565b6040516001600160a01b03831660248201526044810182905261061f9084907f095ea7b300000000000000000000000000000000000000000000000000000000906064015b60408051601f198184030181529190526020810180517bffffffffffffffffffffffffffffffffffffffffffffffffffffffff166001600160e01b031990931692909217909152611630565b6040516001600160a01b03831660248201526044810182905261061f9084907fa9059cbb00000000000000000000000000000000000000000000000000000000906064016111f2565b600080826001600160a01b0316634a248d2a6040518163ffffffff1660e01b815260040160206040518083038186803b1580156112c357600080fd5b505afa1580156112d7573d6000803e3d6000fd5b505050506040513d601f19601f820116820180604052508101906112fb9190611caf565b9150826001600160a01b031663d4b970466040518163ffffffff1660e01b815260040160206040518083038186803b15801561133657600080fd5b505afa15801561134a573d6000803e3d6000fd5b505050506040513d601f19601f8201168201806040525081019061136e9190611caf565b9050915091565b6000611382868585611772565b9050848110156113d45760405162461bcd60e51b815260206004820152601760248201527f496e73756666696369656e7420616d6f756e742d6f7574000000000000000000604482015260640161069e565b6113df83828461181b565b505050505050565b6000836113f657506000610f07565b6001600160a01b03808416600090815260036020908152604080832086851684529091529020541680156114c4576040517f79a04876000000000000000000000000000000000000000000000000000000008152306004820152602481018690526001600160a01b038216906379a04876906044015b60206040518083038186803b15801561148457600080fd5b505afa158015611498573d6000803e3d6000fd5b505050506040513d601f19601f820116820180604052508101906114bc9190611e2e565b915050610f07565b506001600160a01b038083166000908152600360209081526040808320878516845290915290205416801561153f576040517f66410a21000000000000000000000000000000000000000000000000000000008152306004820152602481018690526001600160a01b038216906366410a219060440161146c565b509392505050565b6000828152602081815260408083206001600160a01b038516845290915290205460ff166106b157611583816001600160a01b0316601461183f565b61158e83602061183f565b60405160200161159f929190611f01565b60408051601f198184030181529082905262461bcd60e51b825261069e91600401611f82565b6000806115d184611287565b91509150826115e5576115e5828286611a66565b6001600160a01b03918216600090815260036020908152604080832093851683529290522080549190931673ffffffffffffffffffffffffffffffffffffffff199091161790915550565b600080836001600160a01b03168360405161164b9190611ee5565b6000604051808303816000865af19150503d8060008114611688576040519150601f19603f3d011682016040523d82523d6000602084013e61168d565b606091505b5091509150816116df5760405162461bcd60e51b815260206004820181905260248201527f5361666545524332303a206c6f772d6c6576656c2063616c6c206661696c6564604482015260640161069e565b80511561176c57808060200190518101906116fa9190611dae565b61176c5760405162461bcd60e51b815260206004820152602a60248201527f5361666545524332303a204552433230206f7065726174696f6e20646964206e60448201527f6f74207375636365656400000000000000000000000000000000000000000000606482015260840161069e565b50505050565b6000806000806117828686611af8565b9194509250905061179d6001600160a01b038716828961123e565b6040516001600160e01b031960e084901b16815230600482015283908390602401602060405180830381600087803b1580156117d857600080fd5b505af11580156117ec573d6000803e3d6000fd5b505050506040513d601f19601f820116820180604052508101906118109190611e2e565b979650505050505050565b306001600160a01b0382161461061f5761061f6001600160a01b038416828461123e565b6060600061184e836002611fcd565b611859906002611fb5565b67ffffffffffffffff81111561187f57634e487b7160e01b600052604160045260246000fd5b6040519080825280601f01601f1916602001820160405280156118a9576020820181803683370190505b5090507f3000000000000000000000000000000000000000000000000000000000000000816000815181106118ee57634e487b7160e01b600052603260045260246000fd5b60200101906001600160f81b031916908160001a9053507f78000000000000000000000000000000000000000000000000000000000000008160018151811061194757634e487b7160e01b600052603260045260246000fd5b60200101906001600160f81b031916908160001a905350600061196b846002611fcd565b611976906001611fb5565b90505b6001811115611a17577f303132333435363738396162636465660000000000000000000000000000000085600f16601081106119c557634e487b7160e01b600052603260045260246000fd5b1a60f81b8282815181106119e957634e487b7160e01b600052603260045260246000fd5b60200101906001600160f81b031916908160001a90535060049490941c93611a108161202f565b9050611979565b508315610f075760405162461bcd60e51b815260206004820181905260248201527f537472696e67733a20686578206c656e67746820696e73756666696369656e74604482015260640161069e565b6001600160a01b038084166000908152600360209081526040808320868516845290915290205416801580611aac5750816001600160a01b0316816001600160a01b0316145b61176c5760405162461bcd60e51b815260206004820152601860248201527f4e6f7420616c6c6f77656420746f206f76657277726974650000000000000000604482015260640161069e565b6001600160a01b0380831660009081526003602090815260408083208585168452909152812054909182918291168015611b46576001600160a01b038116935063bd6015b492509050611bd7565b506001600160a01b0380851660009081526003602090815260408083208985168452909152902054168015611b8f576001600160a01b038116935063dd93f59a92509050611bd7565b60405162461bcd60e51b815260206004820152601860248201527f546f6b656e2070616972206e6f7420737570706f727465640000000000000000604482015260640161069e565b9250925092565b8035611be9816120c8565b919050565b600082601f830112611bfe578081fd5b8135602067ffffffffffffffff80831115611c1b57611c1b6120b2565b8260051b604051601f19603f83011681018181108482111715611c4057611c406120b2565b60405284815283810192508684018288018501891015611c5e578687fd5b8692505b85831015611c8757611c7381611bde565b845292840192600192909201918401611c62565b50979650505050505050565b600060208284031215611ca4578081fd5b8135610f07816120c8565b600060208284031215611cc0578081fd5b8151610f07816120c8565b60008060408385031215611cdd578081fd5b8235611ce8816120c8565b91506020830135611cf8816120c8565b809150509250929050565b60008060408385031215611d15578182fd5b8235611d20816120c8565b946020939093013593505050565b600060208284031215611d3f578081fd5b813567ffffffffffffffff811115611d55578182fd5b611d6184828501611bee565b949350505050565b60008060408385031215611d7b578182fd5b823567ffffffffffffffff811115611d91578283fd5b611d9d85828601611bee565b9250506020830135611cf8816120dd565b600060208284031215611dbf578081fd5b8151610f07816120dd565b600060208284031215611ddb578081fd5b5035919050565b60008060408385031215611df4578182fd5b823591506020830135611cf8816120c8565b600060208284031215611e17578081fd5b81356001600160e01b031981168114610f07578182fd5b600060208284031215611e3f578081fd5b5051919050565b600080600060608486031215611e5a578081fd5b833592506020840135611e6c816120c8565b91506040840135611e7c816120c8565b809150509250925092565b600080600080600060a08688031215611e9e578081fd5b85359450602086013593506040860135611eb7816120c8565b92506060860135611ec7816120c8565b91506080860135611ed7816120c8565b809150509295509295909350565b60008251611ef7818460208701612003565b9190910192915050565b7f416363657373436f6e74726f6c3a206163636f756e7420000000000000000000815260008351611f39816017850160208801612003565b7f206973206d697373696e6720726f6c65200000000000000000000000000000006017918401918201528351611f76816028840160208801612003565b01602801949350505050565b6020815260008251806020840152611fa1816040850160208701612003565b601f01601f19169190910160400192915050565b60008219821115611fc857611fc861209c565b500190565b6000816000190483118215151615611fe757611fe761209c565b500290565b600082821015611ffe57611ffe61209c565b500390565b60005b8381101561201e578181015183820152602001612006565b8381111561176c5750506000910152565b60008161203e5761203e61209c565b506000190190565b600181811c9082168061205a57607f821691505b6020821081141561207b57634e487b7160e01b600052602260045260246000fd5b50919050565b60006000198214156120955761209561209c565b5060010190565b634e487b7160e01b600052601160045260246000fd5b634e487b7160e01b600052604160045260246000fd5b6001600160a01b03811681146108c057600080fd5b80151581146108c057600080fdfea264697066735822122057a3e87e9609ca4f67d1ac9eb71fb58575daf84792209e315e53d4b2637c688f64736f6c63430008040033",
  "devdoc": {
    "kind": "dev",
    "methods": {
      "getRoleAdmin(bytes32)": {
        "details": "Returns the admin role that controls `role`. See {grantRole} and {revokeRole}. To change a role's admin, use {_setRoleAdmin}."
      },
      "grantRole(bytes32,address)": {
        "details": "Grants `role` to `account`. If `account` had not been already granted `role`, emits a {RoleGranted} event. Requirements: - the caller must have ``role``'s admin role. May emit a {RoleGranted} event."
      },
      "hasRole(bytes32,address)": {
        "details": "Returns `true` if `account` has been granted `role`."
      },
      "renounceRole(bytes32,address)": {
        "details": "Revokes `role` from the calling account. Roles are often managed via {grantRole} and {revokeRole}: this function's purpose is to provide a mechanism for accounts to lose their privileges if they are compromised (such as when a trusted device is misplaced). If the calling account had been revoked `role`, emits a {RoleRevoked} event. Requirements: - the caller must be `account`. May emit a {RoleRevoked} event."
      },
      "revokeRole(bytes32,address)": {
        "details": "Revokes `role` from `account`. If `account` had been granted `role`, emits a {RoleRevoked} event. Requirements: - the caller must have ``role``'s admin role. May emit a {RoleRevoked} event."
      },
      "supportsInterface(bytes4)": {
        "details": "See {IERC165-supportsInterface}."
      }
    },
    "version": 1
  },
  "userdoc": {
    "kind": "user",
    "methods": {},
    "version": 1
  },
  "storageLayout": {
    "storage": [
      {
        "astId": 24,
        "contract": "src/contracts/adapters/DodoV2Adapter.sol:DodoV2Adapter",
        "label": "_roles",
        "offset": 0,
        "slot": "0",
        "type": "t_mapping(t_bytes32,t_struct(RoleData)19_storage)"
      },
      {
        "astId": 1451,
        "contract": "src/contracts/adapters/DodoV2Adapter.sol:DodoV2Adapter",
        "label": "swapGasEstimate",
        "offset": 0,
        "slot": "1",
        "type": "t_uint256"
      },
      {
        "astId": 1453,
        "contract": "src/contracts/adapters/DodoV2Adapter.sol:DodoV2Adapter",
        "label": "name",
        "offset": 0,
        "slot": "2",
        "type": "t_string_storage"
      },
      {
        "astId": 8451,
        "contract": "src/contracts/adapters/DodoV2Adapter.sol:DodoV2Adapter",
        "label": "tknsToPool",
        "offset": 0,
        "slot": "3",
        "type": "t_mapping(t_address,t_mapping(t_address,t_address))"
      }
    ],
    "types": {
      "t_address": {
        "encoding": "inplace",
        "label": "address",
        "numberOfBytes": "20"
      },
      "t_bool": {
        "encoding": "inplace",
        "label": "bool",
        "numberOfBytes": "1"
      },
      "t_bytes32": {
        "encoding": "inplace",
        "label": "bytes32",
        "numberOfBytes": "32"
      },
      "t_mapping(t_address,t_address)": {
        "encoding": "mapping",
        "key": "t_address",
        "label": "mapping(address => address)",
        "numberOfBytes": "32",
        "value": "t_address"
      },
      "t_mapping(t_address,t_bool)": {
        "encoding": "mapping",
        "key": "t_address",
        "label": "mapping(address => bool)",
        "numberOfBytes": "32",
        "value": "t_bool"
      },
      "t_mapping(t_address,t_mapping(t_address,t_address))": {
        "encoding": "mapping",
        "key": "t_address",
        "label": "mapping(address => mapping(address => address))",
        "numberOfBytes": "32",
        "value": "t_mapping(t_address,t_address)"
      },
      "t_mapping(t_bytes32,t_struct(RoleData)19_storage)": {
        "encoding": "mapping",
        "key": "t_bytes32",
        "label": "mapping(bytes32 => struct AccessControl.RoleData)",
        "numberOfBytes": "32",
        "value": "t_struct(RoleData)19_storage"
      },
      "t_string_storage": {
        "encoding": "bytes",
        "label": "string",
        "numberOfBytes": "32"
      },
      "t_struct(RoleData)19_storage": {
        "encoding": "inplace",
        "label": "struct AccessControl.RoleData",
        "members": [
          {
            "astId": 16,
            "contract": "src/contracts/adapters/DodoV2Adapter.sol:DodoV2Adapter",
            "label": "members",
            "offset": 0,
            "slot": "0",
            "type": "t_mapping(t_address,t_bool)"
          },
          {
            "astId": 18,
            "contract": "src/contracts/adapters/DodoV2Adapter.sol:DodoV2Adapter",
            "label": "adminRole",
            "offset": 0,
            "slot": "1",
            "type": "t_bytes32"
          }
        ],
        "numberOfBytes": "64"
      },
      "t_uint256": {
        "encoding": "inplace",
        "label": "uint256",
        "numberOfBytes": "32"
      }
    }
  }
}