{
  "address": "0x15dE58Fd944b1074499D9828B5B53C4FC18A6e3E",
  "abi": [
    {
      "inputs": [
        {
          "internalType": "string",
          "name": "_name",
          "type": "string"
        },
        {
          "internalType": "address",
          "name": "_vault",
          "type": "address"
        },
        {
          "internalType": "uint256",
          "name": "_swapGasEstimate",
          "type": "uint256"
        }
      ],
      "stateMutability": "nonpayable",
      "type": "constructor"
    },
    {
      "anonymous": false,
      "inputs": [
        {
          "indexed": true,
          "internalType": "address",
          "name": "_asset",
          "type": "address"
        },
        {
          "indexed": false,
          "internalType": "uint256",
          "name": "amount",
          "type": "uint256"
        }
      ],
      "name": "Recovered",
      "type": "event"
    },
    {
      "anonymous": false,
      "inputs": [
        {
          "indexed": true,
          "internalType": "bytes32",
          "name": "role",
          "type": "bytes32"
        },
        {
          "indexed": true,
          "internalType": "bytes32",
          "name": "previousAdminRole",
          "type": "bytes32"
        },
        {
          "indexed": true,
          "internalType": "bytes32",
          "name": "newAdminRole",
          "type": "bytes32"
        }
      ],
      "name": "RoleAdminChanged",
      "type": "event"
    },
    {
      "anonymous": false,
      "inputs": [
        {
          "indexed": true,
          "internalType": "bytes32",
          "name": "role",
          "type": "bytes32"
        },
        {
          "indexed": true,
          "internalType": "address",
          "name": "account",
          "type": "address"
        },
        {
          "indexed": true,
          "internalType": "address",
          "name": "sender",
          "type": "address"
        }
      ],
      "name": "RoleGranted",
      "type": "event"
    },
    {
      "anonymous": false,
      "inputs": [
        {
          "indexed": true,
          "internalType": "bytes32",
          "name": "role",
          "type": "bytes32"
        },
        {
          "indexed": true,
          "internalType": "address",
          "name": "account",
          "type": "address"
        },
        {
          "indexed": true,
          "internalType": "address",
          "name": "sender",
          "type": "address"
        }
      ],
      "name": "RoleRevoked",
      "type": "event"
    },
    {
      "anonymous": false,
      "inputs": [
        {
          "indexed": true,
          "internalType": "address",
          "name": "_adapter",
          "type": "address"
        },
        {
          "indexed": false,
          "internalType": "uint256",
          "name": "_newEstimate",
          "type": "uint256"
        }
      ],
      "name": "UpdatedGasEstimate",
      "type": "event"
    },
    {
      "anonymous": false,
      "inputs": [
        {
          "indexed": true,
          "internalType": "address",
          "name": "_tokenFrom",
          "type": "address"
        },
        {
          "indexed": true,
          "internalType": "address",
          "name": "_tokenTo",
          "type": "address"
        },
        {
          "indexed": false,
          "internalType": "uint256",
          "name": "_amountIn",
          "type": "uint256"
        },
        {
          "indexed": false,
          "internalType": "uint256",
          "name": "_amountOut",
          "type": "uint256"
        }
      ],
      "name": "YakAdapterSwap",
      "type": "event"
    },
    {
      "inputs": [],
      "name": "BASIS_POINTS_DIVISOR",
      "outputs": [
        {
          "internalType": "uint256",
          "name": "",
          "type": "uint256"
        }
      ],
      "stateMutability": "view",
      "type": "function"
    },
    {
      "inputs": [],
      "name": "DEFAULT_ADMIN_ROLE",
      "outputs": [
        {
          "internalType": "bytes32",
          "name": "",
          "type": "bytes32"
        }
      ],
      "stateMutability": "view",
      "type": "function"
    },
    {
      "inputs": [],
      "name": "MAINTAINER_ROLE",
      "outputs": [
        {
          "internalType": "bytes32",
          "name": "",
          "type": "bytes32"
        }
      ],
      "stateMutability": "view",
      "type": "function"
    },
    {
      "inputs": [],
      "name": "PRICE_PRECISION",
      "outputs": [
        {
          "internalType": "uint256",
          "name": "",
          "type": "uint256"
        }
      ],
      "stateMutability": "view",
      "type": "function"
    },
    {
      "inputs": [],
      "name": "USDG_DECIMALS",
      "outputs": [
        {
          "internalType": "uint256",
          "name": "",
          "type": "uint256"
        }
      ],
      "stateMutability": "view",
      "type": "function"
    },
    {
      "inputs": [],
      "name": "VAULT",
      "outputs": [
        {
          "internalType": "address",
          "name": "",
          "type": "address"
        }
      ],
      "stateMutability": "view",
      "type": "function"
    },
    {
      "inputs": [
        {
          "internalType": "address",
          "name": "addedMaintainer",
          "type": "address"
        }
      ],
      "name": "addMaintainer",
      "outputs": [],
      "stateMutability": "nonpayable",
      "type": "function"
    },
    {
      "inputs": [
        {
          "internalType": "address[]",
          "name": "_tokens",
          "type": "address[]"
        }
      ],
      "name": "addPoolTkns",
      "outputs": [],
      "stateMutability": "nonpayable",
      "type": "function"
    },
    {
      "inputs": [
        {
          "internalType": "bytes32",
          "name": "role",
          "type": "bytes32"
        }
      ],
      "name": "getRoleAdmin",
      "outputs": [
        {
          "internalType": "bytes32",
          "name": "",
          "type": "bytes32"
        }
      ],
      "stateMutability": "view",
      "type": "function"
    },
    {
      "inputs": [
        {
          "internalType": "bytes32",
          "name": "role",
          "type": "bytes32"
        },
        {
          "internalType": "address",
          "name": "account",
          "type": "address"
        }
      ],
      "name": "grantRole",
      "outputs": [],
      "stateMutability": "nonpayable",
      "type": "function"
    },
    {
      "inputs": [
        {
          "internalType": "bytes32",
          "name": "role",
          "type": "bytes32"
        },
        {
          "internalType": "address",
          "name": "account",
          "type": "address"
        }
      ],
      "name": "hasRole",
      "outputs": [
        {
          "internalType": "bool",
          "name": "",
          "type": "bool"
        }
      ],
      "stateMutability": "view",
      "type": "function"
    },
    {
      "inputs": [
        {
          "internalType": "address",
          "name": "",
          "type": "address"
        }
      ],
      "name": "isPoolTkn",
      "outputs": [
        {
          "internalType": "bool",
          "name": "",
          "type": "bool"
        }
      ],
      "stateMutability": "view",
      "type": "function"
    },
    {
      "inputs": [],
      "name": "name",
      "outputs": [
        {
          "internalType": "string",
          "name": "",
          "type": "string"
        }
      ],
      "stateMutability": "view",
      "type": "function"
    },
    {
      "inputs": [
        {
          "internalType": "uint256",
          "name": "_amountIn",
          "type": "uint256"
        },
        {
          "internalType": "address",
          "name": "_tokenIn",
          "type": "address"
        },
        {
          "internalType": "address",
          "name": "_tokenOut",
          "type": "address"
        }
      ],
      "name": "query",
      "outputs": [
        {
          "internalType": "uint256",
          "name": "",
          "type": "uint256"
        }
      ],
      "stateMutability": "view",
      "type": "function"
    },
    {
      "inputs": [
        {
          "internalType": "uint256",
          "name": "_amount",
          "type": "uint256"
        }
      ],
      "name": "recoverAVAX",
      "outputs": [],
      "stateMutability": "nonpayable",
      "type": "function"
    },
    {
      "inputs": [
        {
          "internalType": "address",
          "name": "_tokenAddress",
          "type": "address"
        },
        {
          "internalType": "uint256",
          "name": "_tokenAmount",
          "type": "uint256"
        }
      ],
      "name": "recoverERC20",
      "outputs": [],
      "stateMutability": "nonpayable",
      "type": "function"
    },
    {
      "inputs": [
        {
          "internalType": "address",
          "name": "removedMaintainer",
          "type": "address"
        }
      ],
      "name": "removeMaintainer",
      "outputs": [],
      "stateMutability": "nonpayable",
      "type": "function"
    },
    {
      "inputs": [
        {
          "internalType": "bytes32",
          "name": "role",
          "type": "bytes32"
        },
        {
          "internalType": "address",
          "name": "account",
          "type": "address"
        }
      ],
      "name": "renounceRole",
      "outputs": [],
      "stateMutability": "nonpayable",
      "type": "function"
    },
    {
      "inputs": [
        {
          "internalType": "bytes32",
          "name": "role",
          "type": "bytes32"
        }
      ],
      "name": "renounceRole",
      "outputs": [],
      "stateMutability": "nonpayable",
      "type": "function"
    },
    {
      "inputs": [
        {
          "internalType": "address",
          "name": "_token",
          "type": "address"
        },
        {
          "internalType": "address",
          "name": "_spender",
          "type": "address"
        }
      ],
      "name": "revokeAllowance",
      "outputs": [],
      "stateMutability": "nonpayable",
      "type": "function"
    },
    {
      "inputs": [
        {
          "internalType": "bytes32",
          "name": "role",
          "type": "bytes32"
        },
        {
          "internalType": "address",
          "name": "account",
          "type": "address"
        }
      ],
      "name": "revokeRole",
      "outputs": [],
      "stateMutability": "nonpayable",
      "type": "function"
    },
    {
      "inputs": [
        {
          "internalType": "address[]",
          "name": "_tokens",
          "type": "address[]"
        }
      ],
      "name": "rmPoolTkns",
      "outputs": [],
      "stateMutability": "nonpayable",
      "type": "function"
    },
    {
      "inputs": [
        {
          "internalType": "uint256",
          "name": "_estimate",
          "type": "uint256"
        }
      ],
      "name": "setSwapGasEstimate",
      "outputs": [],
      "stateMutability": "nonpayable",
      "type": "function"
    },
    {
      "inputs": [
        {
          "internalType": "bytes4",
          "name": "interfaceId",
          "type": "bytes4"
        }
      ],
      "name": "supportsInterface",
      "outputs": [
        {
          "internalType": "bool",
          "name": "",
          "type": "bool"
        }
      ],
      "stateMutability": "view",
      "type": "function"
    },
    {
      "inputs": [
        {
          "internalType": "uint256",
          "name": "_amountIn",
          "type": "uint256"
        },
        {
          "internalType": "uint256",
          "name": "_amountOut",
          "type": "uint256"
        },
        {
          "internalType": "address",
          "name": "_fromToken",
          "type": "address"
        },
        {
          "internalType": "address",
          "name": "_toToken",
          "type": "address"
        },
        {
          "internalType": "address",
          "name": "_to",
          "type": "address"
        }
      ],
      "name": "swap",
      "outputs": [],
      "stateMutability": "nonpayable",
      "type": "function"
    },
    {
      "inputs": [],
      "name": "swapGasEstimate",
      "outputs": [
        {
          "internalType": "uint256",
          "name": "",
          "type": "uint256"
        }
      ],
      "stateMutability": "view",
      "type": "function"
    },
    {
      "inputs": [
        {
          "internalType": "address",
          "name": "newOwner",
          "type": "address"
        }
      ],
      "name": "transferOwnership",
      "outputs": [],
      "stateMutability": "nonpayable",
      "type": "function"
    },
    {
      "stateMutability": "payable",
      "type": "receive"
    }
  ],
  "transactionHash": "0x728ad14c29ee483c8c1b7768b4d6dddb9b95f14cfeb2aebdc3df2951da4175b0",
  "args": [
    "GmxAdapter",
    "0x489ee077994B6658eAfA855C308275EAd8097C4A",
    630000
  ],
  "solcInputHash": "3d31bd7e10bf3531f6c263bc3f164c5d",
  "bytecode": "0x60e06040523480156200001157600080fd5b50604051620038d9380380620038d98339810160408190526200003491620006ba565b8281336200004460008262000148565b620000707f339759585899103d2ace64958e37e18ccb0504652c81d4a1b8aa80fe2126ab958262000148565b506200007c8262000158565b6200008781620001c1565b5062000095905082620002df565b620000a0826200040b565b151560a081151560f81b81525050816001600160a01b031663f5b91b7b6040518163ffffffff1660e01b815260040160206040518083038186803b158015620000e857600080fd5b505afa158015620000fd573d6000803e3d6000fd5b505050506040513d601f19601f8201168201806040525081019062000123919062000694565b6001600160601b0319606091821b811660c05292901b909116608052506200087e9050565b62000154828262000495565b5050565b8051620001ac5760405162461bcd60e51b815260206004820152601460248201527f496e76616c69642061646170746572206e616d6500000000000000000000000060448201526064015b60405180910390fd5b805162000154906002906020840190620005e1565b3360008181527fa54247010af6b3693b80aceddfad12e077c5de3571e6243fada502635f0d7d39602052604090205460ff16620002525760405162461bcd60e51b815260206004820152602860248201527f4d61696e7461696e61626c653a2043616c6c6572206973206e6f742061206d6160448201526734b73a30b4b732b960c11b6064820152608401620001a3565b81620002a15760405162461bcd60e51b815260206004820152601460248201527f496e76616c6964206761732d657374696d6174650000000000000000000000006044820152606401620001a3565b600182905560405182815230907ff43f23b7a28e6f8ce6843a21bd7b48bce778aa913b8c8cf459edf7d770e8d38a9060200160405180910390a25050565b6000816001600160a01b0316630842b0766040518163ffffffff1660e01b815260040160206040518083038186803b1580156200031b57600080fd5b505afa15801562000330573d6000803e3d6000fd5b505050506040513d601f19601f82011682018060405250810190620003569190620007ae565b905060005b818110156200040657604051630e468baf60e41b8152600481018290526000906001600160a01b0385169063e468baf09060240160206040518083038186803b158015620003a857600080fd5b505afa158015620003bd573d6000803e3d6000fd5b505050506040513d601f19601f82011682018060405250810190620003e3919062000694565b9050620003f08162000535565b5080620003fd8162000827565b9150506200035b565b505050565b6000816001600160a01b0316636abbe0c86040518163ffffffff1660e01b815260040160206040518083038186803b1580156200044757600080fd5b505afa9250505080156200047a575060408051601f3d908101601f19168201909252620004779181019062000694565b60015b6200048757506000919050565b50600192915050565b919050565b6000828152602081815260408083206001600160a01b038516845290915290205460ff1662000154576000828152602081815260408083206001600160a01b03851684529091529020805460ff19166001179055620004f13390565b6001600160a01b0316816001600160a01b0316837f2f8788117e7eff1d82e926ec794901d17c78024a50270940304540a733656f0d60405160405180910390a45050565b806001600160a01b031663313ce5676040518163ffffffff1660e01b815260040160206040518083038186803b1580156200056f57600080fd5b505afa15801562000584573d6000803e3d6000fd5b505050506040513d601f19601f82011682018060405250810190620005aa9190620007c7565b6001600160a01b03909116600090815260046020908152604080832060ff949094169093556003905220805460ff19166001179055565b828054620005ef90620007ea565b90600052602060002090601f0160209004810192826200061357600085556200065e565b82601f106200062e57805160ff19168380011785556200065e565b828001600101855582156200065e579182015b828111156200065e57825182559160200191906001019062000641565b506200066c92915062000670565b5090565b5b808211156200066c576000815560010162000671565b8051620004908162000865565b600060208284031215620006a6578081fd5b8151620006b38162000865565b9392505050565b600080600060608486031215620006cf578182fd5b83516001600160401b0380821115620006e6578384fd5b818601915086601f830112620006fa578384fd5b8151818111156200070f576200070f6200084f565b604051601f8201601f19908116603f011681019083821181831017156200073a576200073a6200084f565b8160405282815260209350898484870101111562000756578687fd5b8691505b828210156200077957848201840151818301850152908301906200075a565b828211156200078a57868484830101525b96506200079c91505086820162000687565b93505050604084015190509250925092565b600060208284031215620007c0578081fd5b5051919050565b600060208284031215620007d9578081fd5b815160ff81168114620006b3578182fd5b600181811c90821680620007ff57607f821691505b602082108114156200082157634e487b7160e01b600052602260045260246000fd5b50919050565b60006000198214156200084857634e487b7160e01b81526011600452602481fd5b5060010190565b634e487b7160e01b600052604160045260246000fd5b6001600160a01b03811681146200087b57600080fd5b50565b60805160601c60a05160f81c60c05160601c612f816200095860003960008181611e3101528181611e8f0152611f4001526000611f680152600081816102bb015281816113ca0152818161143501528181611712015281816117b20152818161183501528181611b3e01528181611c6f01528181611f8e0152818161212b01528181612227015281816122c70152818161234c015281816123e20152818161247c01528181612512015281816125e20152818161269c01528181612771015281816128330152818161289f01526129670152612f816000f3fe6080604052600436106101b05760003560e01c8063870d917c116100ec578063d8baf7cf1161008a578063eab90da611610064578063eab90da61461050a578063ef99893a1461052a578063f2fde38b1461054a578063f87422541461056a57600080fd5b8063d8baf7cf146104aa578063e2eba5f0146104ca578063e98f45f0146104ea57600080fd5b806391d14854116100c657806391d148541461041057806395082d2514610454578063a217fddf14610475578063d547741f1461048a57600080fd5b8063870d917c146103bb5780638980f11f146103d05780638bb9c5bf146103f057600080fd5b8063411557d11161015957806369cff80d1161013357806369cff80d146103455780636b453c1f1461035b5780637ae267731461037b57806384a33e631461039b57600080fd5b8063411557d1146102a95780634ebb7916146102f557806367818e3d1461031557600080fd5b8063248a9ca31161018a578063248a9ca3146102375780632f2ff15d1461026757806336568abe1461028957600080fd5b806301ffc9a7146101bc57806306fdde03146101f1578063126082cf1461021357600080fd5b366101b757005b600080fd5b3480156101c857600080fd5b506101dc6101d7366004612b42565b61059e565b60405190151581526020015b60405180910390f35b3480156101fd57600080fd5b50610206610607565b6040516101e89190612cfb565b34801561021f57600080fd5b5061022961271081565b6040519081526020016101e8565b34801561024357600080fd5b50610229610252366004612b06565b60009081526020819052604090206001015490565b34801561027357600080fd5b50610287610282366004612b1e565b610695565b005b34801561029557600080fd5b506102876102a4366004612b1e565b6106bf565b3480156102b557600080fd5b506102dd7f000000000000000000000000000000000000000000000000000000000000000081565b6040516001600160a01b0390911681526020016101e8565b34801561030157600080fd5b50610287610310366004612b06565b610750565b34801561032157600080fd5b506101dc6103303660046129f7565b60036020526000908152604090205460ff1681565b34801561035157600080fd5b5061022960015481565b34801561036757600080fd5b506102876103763660046129f7565b610898565b34801561038757600080fd5b50610287610396366004612a13565b6108c5565b3480156103a757600080fd5b506102876103b6366004612b06565b610969565b3480156103c757600080fd5b50610229601281565b3480156103dc57600080fd5b506102876103eb366004612a4b565b610a7c565b3480156103fc57600080fd5b5061028761040b366004612b06565b610bb7565b34801561041c57600080fd5b506101dc61042b366004612b1e565b6000918252602082815260408084206001600160a01b0393909316845291905290205460ff1690565b34801561046057600080fd5b506102296c0c9f2c9cd04674edea4000000081565b34801561048157600080fd5b50610229600081565b34801561049657600080fd5b506102876104a5366004612b1e565b610bc2565b3480156104b657600080fd5b506102876104c53660046129f7565b610be7565b3480156104d657600080fd5b506102876104e5366004612a76565b610c11565b3480156104f657600080fd5b50610287610505366004612a76565b610cfe565b34801561051657600080fd5b50610287610525366004612bdf565b610e0b565b34801561053657600080fd5b50610229610545366004612b9e565b610fd0565b34801561055657600080fd5b506102876105653660046129f7565b610fe7565b34801561057657600080fd5b506102297f339759585899103d2ace64958e37e18ccb0504652c81d4a1b8aa80fe2126ab9581565b60006001600160e01b031982167f7965db0b00000000000000000000000000000000000000000000000000000000148061060157507f01ffc9a7000000000000000000000000000000000000000000000000000000006001600160e01b03198316145b92915050565b6002805461061490612eca565b80601f016020809104026020016040519081016040528092919081815260200182805461064090612eca565b801561068d5780601f106106625761010080835404028352916020019161068d565b820191906000526020600020905b81548152906001019060200180831161067057829003601f168201915b505050505081565b6000828152602081905260409020600101546106b081610ffe565b6106ba8383611008565b505050565b6001600160a01b03811633146107425760405162461bcd60e51b815260206004820152602f60248201527f416363657373436f6e74726f6c3a2063616e206f6e6c792072656e6f756e636560448201527f20726f6c657320666f722073656c66000000000000000000000000000000000060648201526084015b60405180910390fd5b61074c82826110a6565b5050565b3360008181527fa54247010af6b3693b80aceddfad12e077c5de3571e6243fada502635f0d7d39602052604090205460ff166107df5760405162461bcd60e51b815260206004820152602860248201527f4d61696e7461696e61626c653a2043616c6c6572206973206e6f742061206d6160448201526734b73a30b4b732b960c11b6064820152608401610739565b6000821161082f5760405162461bcd60e51b815260206004820152601e60248201527f59616b416461707465723a204e6f7468696e6720746f207265636f76657200006044820152606401610739565b604051339083156108fc029084906000818181858888f1935050505015801561085c573d6000803e3d6000fd5b506040518281526000907f8c1256b8896378cd5044f80c202f9772b9d77dc85c8a6eb51967210b09bfaa28906020015b60405180910390a25050565b6108c27f339759585899103d2ace64958e37e18ccb0504652c81d4a1b8aa80fe2126ab9582610695565b50565b3360008181527fa54247010af6b3693b80aceddfad12e077c5de3571e6243fada502635f0d7d39602052604090205460ff166109545760405162461bcd60e51b815260206004820152602860248201527f4d61696e7461696e61626c653a2043616c6c6572206973206e6f742061206d6160448201526734b73a30b4b732b960c11b6064820152608401610739565b6106ba6001600160a01b038416836000611125565b3360008181527fa54247010af6b3693b80aceddfad12e077c5de3571e6243fada502635f0d7d39602052604090205460ff166109f85760405162461bcd60e51b815260206004820152602860248201527f4d61696e7461696e61626c653a2043616c6c6572206973206e6f742061206d6160448201526734b73a30b4b732b960c11b6064820152608401610739565b81610a455760405162461bcd60e51b815260206004820152601460248201527f496e76616c6964206761732d657374696d6174650000000000000000000000006044820152606401610739565b600182905560405182815230907ff43f23b7a28e6f8ce6843a21bd7b48bce778aa913b8c8cf459edf7d770e8d38a9060200161088c565b3360008181527fa54247010af6b3693b80aceddfad12e077c5de3571e6243fada502635f0d7d39602052604090205460ff16610b0b5760405162461bcd60e51b815260206004820152602860248201527f4d61696e7461696e61626c653a2043616c6c6572206973206e6f742061206d6160448201526734b73a30b4b732b960c11b6064820152608401610739565b60008211610b5b5760405162461bcd60e51b815260206004820152601e60248201527f59616b416461707465723a204e6f7468696e6720746f207265636f76657200006044820152606401610739565b610b6f6001600160a01b03841633846112ca565b826001600160a01b03167f8c1256b8896378cd5044f80c202f9772b9d77dc85c8a6eb51967210b09bfaa2883604051610baa91815260200190565b60405180910390a2505050565b3361074c82826106bf565b600082815260208190526040902060010154610bdd81610ffe565b6106ba83836110a6565b6108c27f339759585899103d2ace64958e37e18ccb0504652c81d4a1b8aa80fe2126ab9582610bc2565b3360008181527fa54247010af6b3693b80aceddfad12e077c5de3571e6243fada502635f0d7d39602052604090205460ff16610ca05760405162461bcd60e51b815260206004820152602860248201527f4d61696e7461696e61626c653a2043616c6c6572206973206e6f742061206d6160448201526734b73a30b4b732b960c11b6064820152608401610739565b60005b82811015610cf857610ce8848483818110610cce57634e487b7160e01b600052603260045260246000fd5b9050602002016020810190610ce391906129f7565b611313565b610cf181612f05565b9050610ca3565b50505050565b3360008181527fa54247010af6b3693b80aceddfad12e077c5de3571e6243fada502635f0d7d39602052604090205460ff16610d8d5760405162461bcd60e51b815260206004820152602860248201527f4d61696e7461696e61626c653a2043616c6c6572206973206e6f742061206d6160448201526734b73a30b4b732b960c11b6064820152608401610739565b60005b82811015610cf857600060036000868685818110610dbe57634e487b7160e01b600052603260045260246000fd5b9050602002016020810190610dd391906129f7565b6001600160a01b031681526020810191909152604001600020805460ff1916911515919091179055610e0481612f05565b9050610d90565b6040516370a0823160e01b81526001600160a01b038281166004830152600091908416906370a082319060240160206040518083038186803b158015610e5057600080fd5b505afa158015610e64573d6000803e3d6000fd5b505050506040513d601f19601f82011682018060405250810190610e889190612b86565b9050610e9786868686866113bb565b6040516370a0823160e01b81526001600160a01b03838116600483015260009183918616906370a082319060240160206040518083038186803b158015610edd57600080fd5b505afa158015610ef1573d6000803e3d6000fd5b505050506040513d601f19601f82011682018060405250810190610f159190612b86565b610f1f9190612e70565b905085811015610f715760405162461bcd60e51b815260206004820152601760248201527f496e73756666696369656e7420616d6f756e742d6f75740000000000000000006044820152606401610739565b836001600160a01b0316856001600160a01b03167fe2bdbc6b7225eb0a972ac943c485a6cc05f7c6811838bce8903f23200fb744fa8989604051610fbf929190918252602082015260400190565b60405180910390a350505050505050565b6000610fdd8484846114a3565b90505b9392505050565b33610ff3600083610695565b61074c6000826106bf565b6108c281336114c7565b6000828152602081815260408083206001600160a01b038516845290915290205460ff1661074c576000828152602081815260408083206001600160a01b03851684529091529020805460ff191660011790556110623390565b6001600160a01b0316816001600160a01b0316837f2f8788117e7eff1d82e926ec794901d17c78024a50270940304540a733656f0d60405160405180910390a45050565b6000828152602081815260408083206001600160a01b038516845290915290205460ff161561074c576000828152602081815260408083206001600160a01b0385168085529252808320805460ff1916905551339285917ff6391f5c32d9c69d2a47ea670b442974b53935d1edc7fd64eb21e047a839171b9190a45050565b8015806111c757506040517fdd62ed3e0000000000000000000000000000000000000000000000000000000081523060048201526001600160a01b03838116602483015284169063dd62ed3e9060440160206040518083038186803b15801561118d57600080fd5b505afa1580156111a1573d6000803e3d6000fd5b505050506040513d601f19601f820116820180604052508101906111c59190612b86565b155b6112395760405162461bcd60e51b815260206004820152603660248201527f5361666545524332303a20617070726f76652066726f6d206e6f6e2d7a65726f60448201527f20746f206e6f6e2d7a65726f20616c6c6f77616e6365000000000000000000006064820152608401610739565b6040516001600160a01b0383166024820152604481018290526106ba9084907f095ea7b300000000000000000000000000000000000000000000000000000000906064015b60408051601f198184030181529190526020810180517bffffffffffffffffffffffffffffffffffffffffffffffffffffffff166001600160e01b031990931692909217909152611545565b6040516001600160a01b0383166024820152604481018290526106ba9084907fa9059cbb000000000000000000000000000000000000000000000000000000009060640161127e565b806001600160a01b031663313ce5676040518163ffffffff1660e01b815260040160206040518083038186803b15801561134c57600080fd5b505afa158015611360573d6000803e3d6000fd5b505050506040513d601f19601f820116820180604052508101906113849190612c3d565b6001600160a01b03909116600090815260046020908152604080832060ff949094169093556003905220805460ff19166001179055565b6113ef6001600160a01b0384167f0000000000000000000000000000000000000000000000000000000000000000876112ca565b6040517f933162120000000000000000000000000000000000000000000000000000000081526001600160a01b03848116600483015283811660248301523060448301527f00000000000000000000000000000000000000000000000000000000000000001690639331621290606401600060405180830381600087803b15801561147957600080fd5b505af115801561148d573d6000803e3d6000fd5b5050505061149c828583611681565b5050505050565b60006114b08484846116a5565b15610fe0576114c08484846118d6565b9050610fe0565b6000828152602081815260408083206001600160a01b038516845290915290205460ff1661074c57611503816001600160a01b03166014611900565b61150e836020611900565b60405160200161151f929190612c7a565b60408051601f198184030181529082905262461bcd60e51b825261073991600401612cfb565b600080836001600160a01b0316836040516115609190612c5e565b6000604051808303816000865af19150503d806000811461159d576040519150601f19603f3d011682016040523d82523d6000602084013e6115a2565b606091505b5091509150816115f45760405162461bcd60e51b815260206004820181905260248201527f5361666545524332303a206c6f772d6c6576656c2063616c6c206661696c65646044820152606401610739565b805115610cf8578080602001905181019061160f9190612ae6565b610cf85760405162461bcd60e51b815260206004820152602a60248201527f5361666545524332303a204552433230206f7065726174696f6e20646964206e60448201527f6f742073756363656564000000000000000000000000000000000000000000006064820152608401610739565b306001600160a01b038216146106ba576106ba6001600160a01b03841682846112ca565b600083158015906116c85750816001600160a01b0316836001600160a01b031614155b80156116ec57506001600160a01b03831660009081526003602052604090205460ff165b801561178c5750604051630daf9c2160e41b81526001600160a01b0384811660048301527f0000000000000000000000000000000000000000000000000000000000000000169063daf9c2109060240160206040518083038186803b15801561175457600080fd5b505afa158015611768573d6000803e3d6000fd5b505050506040513d601f19601f8201168201806040525081019061178c9190612ae6565b801561182c5750604051630daf9c2160e41b81526001600160a01b0383811660048301527f0000000000000000000000000000000000000000000000000000000000000000169063daf9c2109060240160206040518083038186803b1580156117f457600080fd5b505afa158015611808573d6000803e3d6000fd5b505050506040513d601f19601f8201168201806040525081019061182c9190612ae6565b80156118c457507f00000000000000000000000000000000000000000000000000000000000000006001600160a01b031663351a964d6040518163ffffffff1660e01b815260040160206040518083038186803b15801561188c57600080fd5b505afa1580156118a0573d6000803e3d6000fd5b505050506040513d601f19601f820116820180604052508101906118c49190612ae6565b8015610fdd5750610fdd836001611b27565b60008060006118e6868686611bce565b915091506118f685858484611c1e565b9695505050505050565b6060600061190f836002612e51565b61191a906002612d2e565b67ffffffffffffffff81111561194057634e487b7160e01b600052604160045260246000fd5b6040519080825280601f01601f19166020018201604052801561196a576020820181803683370190505b5090507f3000000000000000000000000000000000000000000000000000000000000000816000815181106119af57634e487b7160e01b600052603260045260246000fd5b60200101906001600160f81b031916908160001a9053507f780000000000000000000000000000000000000000000000000000000000000081600181518110611a0857634e487b7160e01b600052603260045260246000fd5b60200101906001600160f81b031916908160001a9053506000611a2c846002612e51565b611a37906001612d2e565b90505b6001811115611ad8577f303132333435363738396162636465660000000000000000000000000000000085600f1660108110611a8657634e487b7160e01b600052603260045260246000fd5b1a60f81b828281518110611aaa57634e487b7160e01b600052603260045260246000fd5b60200101906001600160f81b031916908160001a90535060049490941c93611ad181612eb3565b9050611a3a565b508315610fe05760405162461bcd60e51b815260206004820181905260248201527f537472696e67733a20686578206c656e67746820696e73756666696369656e746044820152606401610739565b6040516370a0823160e01b81526001600160a01b037f00000000000000000000000000000000000000000000000000000000000000008116600483015260009183918516906370a082319060240160206040518083038186803b158015611b8d57600080fd5b505afa158015611ba1573d6000803e3d6000fd5b505050506040513d601f19601f82011682018060405250810190611bc59190612b86565b10159392505050565b600080600080611bde8686611c68565b909250905080611bee8389612e51565b611bf89190612d46565b9350611c05848787611e2c565b9350611c12878388611f13565b92505050935093915050565b600080611c2c868685611f64565b90506000611c3a85836120cb565b90506000611c4a888887856120ee565b90508015611c5c57509150611c609050565b5050505b949350505050565b60008060007f00000000000000000000000000000000000000000000000000000000000000006001600160a01b031663741bef1a6040518163ffffffff1660e01b815260040160206040518083038186803b158015611cc657600080fd5b505afa158015611cda573d6000803e3d6000fd5b505050506040513d601f19601f82011682018060405250810190611cfe9190612b6a565b6040516317e1d38560e11b81526001600160a01b03878116600483015260006024830152600160448301819052606483015291925090821690632fc3a70a9060840160206040518083038186803b158015611d5857600080fd5b505afa158015611d6c573d6000803e3d6000fd5b505050506040513d601f19601f82011682018060405250810190611d909190612b86565b6040516317e1d38560e11b81526001600160a01b03868116600483015260016024830181905260448301819052606483015291945090821690632fc3a70a9060840160206040518083038186803b158015611dea57600080fd5b505afa158015611dfe573d6000803e3d6000fd5b505050506040513d601f19601f82011682018060405250810190611e229190612b86565b9150509250929050565b6000807f00000000000000000000000000000000000000000000000000000000000000006001600160a01b0316846001600160a01b031614611e86576001600160a01b038416600090815260046020526040902054611e89565b60125b905060007f00000000000000000000000000000000000000000000000000000000000000006001600160a01b0316846001600160a01b031614611ee4576001600160a01b038416600090815260046020526040902054611ee7565b60125b9050611ef482600a612da9565b611eff82600a612da9565b611f099088612e51565b6118f69190612d46565b60006c0c9f2c9cd04674edea40000000611f2d8486612e51565b611f379190612d46565b9050610fdd81837f0000000000000000000000000000000000000000000000000000000000000000611e2c565b60007f0000000000000000000000000000000000000000000000000000000000000000156120c0577f00000000000000000000000000000000000000000000000000000000000000006001600160a01b0316636abbe0c86040518163ffffffff1660e01b815260040160206040518083038186803b158015611fe557600080fd5b505afa158015611ff9573d6000803e3d6000fd5b505050506040513d601f19601f8201168201806040525081019061201d9190612b6a565b6040517fda1338160000000000000000000000000000000000000000000000000000000081526001600160a01b038681166004830152858116602483015260448201859052919091169063da1338169060640160206040518083038186803b15801561208857600080fd5b505afa15801561209c573d6000803e3d6000fd5b505050506040513d601f19601f820116820180604052508101906114c09190612b86565b610fdd848484612203565b60006127106120da8382612e70565b6120e49085612e51565b610fe09190612d46565b6040517f52f55eed0000000000000000000000000000000000000000000000000000000081526001600160a01b03848116600483015260009182917f000000000000000000000000000000000000000000000000000000000000000016906352f55eed9060240160206040518083038186803b15801561216d57600080fd5b505afa158015612181573d6000803e3d6000fd5b505050506040513d601f19601f820116820180604052508101906121a59190612b86565b9050828110156121b9576000915050611c60565b60006121c58483612e70565b90506121d18187612734565b1580156121e557506121e381876127f6565b155b80156121f857506121f68588612862565b155b979650505050505050565b6040516342b60b0360e01b81526001600160a01b03848116600483015260009182917f000000000000000000000000000000000000000000000000000000000000000016906342b60b039060240160206040518083038186803b15801561226957600080fd5b505afa15801561227d573d6000803e3d6000fd5b505050506040513d601f19601f820116820180604052508101906122a19190612ae6565b801561234157506040516342b60b0360e01b81526001600160a01b0385811660048301527f000000000000000000000000000000000000000000000000000000000000000016906342b60b039060240160206040518083038186803b15801561230957600080fd5b505afa15801561231d573d6000803e3d6000fd5b505050506040513d601f19601f820116820180604052508101906123419190612ae6565b90506000816123e0577f00000000000000000000000000000000000000000000000000000000000000006001600160a01b031663a22f23926040518163ffffffff1660e01b815260040160206040518083038186803b1580156123a357600080fd5b505afa1580156123b7573d6000803e3d6000fd5b505050506040513d601f19601f820116820180604052508101906123db9190612b86565b612471565b7f00000000000000000000000000000000000000000000000000000000000000006001600160a01b031663df73a2676040518163ffffffff1660e01b815260040160206040518083038186803b15801561243957600080fd5b505afa15801561244d573d6000803e3d6000fd5b505050506040513d601f19601f820116820180604052508101906124719190612b86565b9050600082612510577f00000000000000000000000000000000000000000000000000000000000000006001600160a01b0316637a210a2b6040518163ffffffff1660e01b815260040160206040518083038186803b1580156124d357600080fd5b505afa1580156124e7573d6000803e3d6000fd5b505050506040513d601f19601f8201168201806040525081019061250b9190612b86565b6125a1565b7f00000000000000000000000000000000000000000000000000000000000000006001600160a01b03166310eb56c26040518163ffffffff1660e01b815260040160206040518083038186803b15801561256957600080fd5b505afa15801561257d573d6000803e3d6000fd5b505050506040513d601f19601f820116820180604052508101906125a19190612b86565b60405163c7e074c360e01b81526001600160a01b038981166004830152602482018890526044820185905260648201839052600160848301529192506000917f0000000000000000000000000000000000000000000000000000000000000000169063c7e074c39060a40160206040518083038186803b15801561262457600080fd5b505afa158015612638573d6000803e3d6000fd5b505050506040513d601f19601f8201168201806040525081019061265c9190612b86565b60405163c7e074c360e01b81526001600160a01b0389811660048301526024820189905260448201869052606482018590526000608483018190529293507f0000000000000000000000000000000000000000000000000000000000000000169063c7e074c39060a40160206040518083038186803b1580156126de57600080fd5b505afa1580156126f2573d6000803e3d6000fd5b505050506040513d601f19601f820116820180604052508101906127169190612b86565b90508082116127255780612727565b815b9998505050505050505050565b6040517fc3c7b9e90000000000000000000000000000000000000000000000000000000081526001600160a01b03828116600483015260009182917f0000000000000000000000000000000000000000000000000000000000000000169063c3c7b9e9906024015b60206040518083038186803b1580156127b457600080fd5b505afa1580156127c8573d6000803e3d6000fd5b505050506040513d601f19601f820116820180604052508101906127ec9190612b86565b9093109392505050565b6040517f4a993ee90000000000000000000000000000000000000000000000000000000081526001600160a01b03828116600483015260009182917f00000000000000000000000000000000000000000000000000000000000000001690634a993ee99060240161279c565b6040517fad1e4f8d0000000000000000000000000000000000000000000000000000000081526001600160a01b03828116600483015260009182917f0000000000000000000000000000000000000000000000000000000000000000169063ad1e4f8d9060240160206040518083038186803b1580156128e157600080fd5b505afa1580156128f5573d6000803e3d6000fd5b505050506040513d601f19601f820116820180604052508101906129199190612b86565b90508061292a576000915050610601565b6040517f1aa4ace50000000000000000000000000000000000000000000000000000000081526001600160a01b03848116600483015260009186917f00000000000000000000000000000000000000000000000000000000000000001690631aa4ace59060240160206040518083038186803b1580156129a957600080fd5b505afa1580156129bd573d6000803e3d6000fd5b505050506040513d601f19601f820116820180604052508101906129e19190612b86565b6129eb9190612d2e565b91909111949350505050565b600060208284031215612a08578081fd5b8135610fe081612f36565b60008060408385031215612a25578081fd5b8235612a3081612f36565b91506020830135612a4081612f36565b809150509250929050565b60008060408385031215612a5d578182fd5b8235612a6881612f36565b946020939093013593505050565b60008060208385031215612a88578182fd5b823567ffffffffffffffff80821115612a9f578384fd5b818501915085601f830112612ab2578384fd5b813581811115612ac0578485fd5b8660208260051b8501011115612ad4578485fd5b60209290920196919550909350505050565b600060208284031215612af7578081fd5b81518015158114610fe0578182fd5b600060208284031215612b17578081fd5b5035919050565b60008060408385031215612b30578182fd5b823591506020830135612a4081612f36565b600060208284031215612b53578081fd5b81356001600160e01b031981168114610fe0578182fd5b600060208284031215612b7b578081fd5b8151610fe081612f36565b600060208284031215612b97578081fd5b5051919050565b600080600060608486031215612bb2578081fd5b833592506020840135612bc481612f36565b91506040840135612bd481612f36565b809150509250925092565b600080600080600060a08688031215612bf6578081fd5b85359450602086013593506040860135612c0f81612f36565b92506060860135612c1f81612f36565b91506080860135612c2f81612f36565b809150509295509295909350565b600060208284031215612c4e578081fd5b815160ff81168114610fe0578182fd5b60008251612c70818460208701612e87565b9190910192915050565b7f416363657373436f6e74726f6c3a206163636f756e7420000000000000000000815260008351612cb2816017850160208801612e87565b7f206973206d697373696e6720726f6c65200000000000000000000000000000006017918401918201528351612cef816028840160208801612e87565b01602801949350505050565b6020815260008251806020840152612d1a816040850160208701612e87565b601f01601f19169190910160400192915050565b60008219821115612d4157612d41612f20565b500190565b600082612d6157634e487b7160e01b81526012600452602481fd5b500490565b600181815b80851115612da1578160001904821115612d8757612d87612f20565b80851615612d9457918102915b93841c9390800290612d6b565b509250929050565b6000610fe08383600082612dbf57506001610601565b81612dcc57506000610601565b8160018114612de25760028114612dec57612e08565b6001915050610601565b60ff841115612dfd57612dfd612f20565b50506001821b610601565b5060208310610133831016604e8410600b8410161715612e2b575081810a610601565b612e358383612d66565b8060001904821115612e4957612e49612f20565b029392505050565b6000816000190483118215151615612e6b57612e6b612f20565b500290565b600082821015612e8257612e82612f20565b500390565b60005b83811015612ea2578181015183820152602001612e8a565b83811115610cf85750506000910152565b600081612ec257612ec2612f20565b506000190190565b600181811c90821680612ede57607f821691505b60208210811415612eff57634e487b7160e01b600052602260045260246000fd5b50919050565b6000600019821415612f1957612f19612f20565b5060010190565b634e487b7160e01b600052601160045260246000fd5b6001600160a01b03811681146108c257600080fdfea2646970667358221220b019eba1ff672d4fcd7852f771ec4586af40bb7025c78718c25aec4102f8b83364736f6c63430008040033",
  "devdoc": {
    "kind": "dev",
    "methods": {
      "getRoleAdmin(bytes32)": {
        "details": "Returns the admin role that controls `role`. See {grantRole} and {revokeRole}. To change a role's admin, use {_setRoleAdmin}."
      },
      "grantRole(bytes32,address)": {
        "details": "Grants `role` to `account`. If `account` had not been already granted `role`, emits a {RoleGranted} event. Requirements: - the caller must have ``role``'s admin role. May emit a {RoleGranted} event."
      },
      "hasRole(bytes32,address)": {
        "details": "Returns `true` if `account` has been granted `role`."
      },
      "renounceRole(bytes32,address)": {
        "details": "Revokes `role` from the calling account. Roles are often managed via {grantRole} and {revokeRole}: this function's purpose is to provide a mechanism for accounts to lose their privileges if they are compromised (such as when a trusted device is misplaced). If the calling account had been revoked `role`, emits a {RoleRevoked} event. Requirements: - the caller must be `account`. May emit a {RoleRevoked} event."
      },
      "revokeRole(bytes32,address)": {
        "details": "Revokes `role` from `account`. If `account` had been granted `role`, emits a {RoleRevoked} event. Requirements: - the caller must have ``role``'s admin role. May emit a {RoleRevoked} event."
      },
      "supportsInterface(bytes4)": {
        "details": "See {IERC165-supportsInterface}."
      }
    },
    "version": 1
  },
  "userdoc": {
    "kind": "user",
    "methods": {},
    "version": 1
  },
  "storageLayout": {
    "storage": [
      {
        "astId": 24,
        "contract": "src/contracts/adapters/GmxAdapter.sol:GmxAdapter",
        "label": "_roles",
        "offset": 0,
        "slot": "0",
        "type": "t_mapping(t_bytes32,t_struct(RoleData)19_storage)"
      },
      {
        "astId": 1451,
        "contract": "src/contracts/adapters/GmxAdapter.sol:GmxAdapter",
        "label": "swapGasEstimate",
        "offset": 0,
        "slot": "1",
        "type": "t_uint256"
      },
      {
        "astId": 1453,
        "contract": "src/contracts/adapters/GmxAdapter.sol:GmxAdapter",
        "label": "name",
        "offset": 0,
        "slot": "2",
        "type": "t_string_storage"
      },
      {
        "astId": 9642,
        "contract": "src/contracts/adapters/GmxAdapter.sol:GmxAdapter",
        "label": "isPoolTkn",
        "offset": 0,
        "slot": "3",
        "type": "t_mapping(t_address,t_bool)"
      },
      {
        "astId": 9646,
        "contract": "src/contracts/adapters/GmxAdapter.sol:GmxAdapter",
        "label": "tokenDecimals",
        "offset": 0,
        "slot": "4",
        "type": "t_mapping(t_address,t_uint256)"
      }
    ],
    "types": {
      "t_address": {
        "encoding": "inplace",
        "label": "address",
        "numberOfBytes": "20"
      },
      "t_bool": {
        "encoding": "inplace",
        "label": "bool",
        "numberOfBytes": "1"
      },
      "t_bytes32": {
        "encoding": "inplace",
        "label": "bytes32",
        "numberOfBytes": "32"
      },
      "t_mapping(t_address,t_bool)": {
        "encoding": "mapping",
        "key": "t_address",
        "label": "mapping(address => bool)",
        "numberOfBytes": "32",
        "value": "t_bool"
      },
      "t_mapping(t_address,t_uint256)": {
        "encoding": "mapping",
        "key": "t_address",
        "label": "mapping(address => uint256)",
        "numberOfBytes": "32",
        "value": "t_uint256"
      },
      "t_mapping(t_bytes32,t_struct(RoleData)19_storage)": {
        "encoding": "mapping",
        "key": "t_bytes32",
        "label": "mapping(bytes32 => struct AccessControl.RoleData)",
        "numberOfBytes": "32",
        "value": "t_struct(RoleData)19_storage"
      },
      "t_string_storage": {
        "encoding": "bytes",
        "label": "string",
        "numberOfBytes": "32"
      },
      "t_struct(RoleData)19_storage": {
        "encoding": "inplace",
        "label": "struct AccessControl.RoleData",
        "members": [
          {
            "astId": 16,
            "contract": "src/contracts/adapters/GmxAdapter.sol:GmxAdapter",
            "label": "members",
            "offset": 0,
            "slot": "0",
            "type": "t_mapping(t_address,t_bool)"
          },
          {
            "astId": 18,
            "contract": "src/contracts/adapters/GmxAdapter.sol:GmxAdapter",
            "label": "adminRole",
            "offset": 0,
            "slot": "1",
            "type": "t_bytes32"
          }
        ],
        "numberOfBytes": "64"
      },
      "t_uint256": {
        "encoding": "inplace",
        "label": "uint256",
        "numberOfBytes": "32"
      }
    }
  }
}