{
  "address": "0xff23B88BAD9Ace3Ca4f6f9B1361fc1B7872D6E86",
  "abi": [
    {
      "inputs": [
        {
          "internalType": "string",
          "name": "_name",
          "type": "string"
        },
        {
          "internalType": "uint256",
          "name": "_swapGasEstimate",
          "type": "uint256"
        },
        {
          "internalType": "uint256",
          "name": "_quoterGasLimit",
          "type": "uint256"
        },
        {
          "internalType": "address",
          "name": "_quoter",
          "type": "address"
        },
        {
          "internalType": "address[]",
          "name": "_whitelistedPools",
          "type": "address[]"
        }
      ],
      "stateMutability": "nonpayable",
      "type": "constructor"
    },
    {
      "anonymous": false,
      "inputs": [
        {
          "indexed": true,
          "internalType": "address",
          "name": "_asset",
          "type": "address"
        },
        {
          "indexed": false,
          "internalType": "uint256",
          "name": "amount",
          "type": "uint256"
        }
      ],
      "name": "Recovered",
      "type": "event"
    },
    {
      "anonymous": false,
      "inputs": [
        {
          "indexed": true,
          "internalType": "bytes32",
          "name": "role",
          "type": "bytes32"
        },
        {
          "indexed": true,
          "internalType": "bytes32",
          "name": "previousAdminRole",
          "type": "bytes32"
        },
        {
          "indexed": true,
          "internalType": "bytes32",
          "name": "newAdminRole",
          "type": "bytes32"
        }
      ],
      "name": "RoleAdminChanged",
      "type": "event"
    },
    {
      "anonymous": false,
      "inputs": [
        {
          "indexed": true,
          "internalType": "bytes32",
          "name": "role",
          "type": "bytes32"
        },
        {
          "indexed": true,
          "internalType": "address",
          "name": "account",
          "type": "address"
        },
        {
          "indexed": true,
          "internalType": "address",
          "name": "sender",
          "type": "address"
        }
      ],
      "name": "RoleGranted",
      "type": "event"
    },
    {
      "anonymous": false,
      "inputs": [
        {
          "indexed": true,
          "internalType": "bytes32",
          "name": "role",
          "type": "bytes32"
        },
        {
          "indexed": true,
          "internalType": "address",
          "name": "account",
          "type": "address"
        },
        {
          "indexed": true,
          "internalType": "address",
          "name": "sender",
          "type": "address"
        }
      ],
      "name": "RoleRevoked",
      "type": "event"
    },
    {
      "anonymous": false,
      "inputs": [
        {
          "indexed": true,
          "internalType": "address",
          "name": "_adapter",
          "type": "address"
        },
        {
          "indexed": false,
          "internalType": "uint256",
          "name": "_newEstimate",
          "type": "uint256"
        }
      ],
      "name": "UpdatedGasEstimate",
      "type": "event"
    },
    {
      "anonymous": false,
      "inputs": [
        {
          "indexed": true,
          "internalType": "address",
          "name": "_tokenFrom",
          "type": "address"
        },
        {
          "indexed": true,
          "internalType": "address",
          "name": "_tokenTo",
          "type": "address"
        },
        {
          "indexed": false,
          "internalType": "uint256",
          "name": "_amountIn",
          "type": "uint256"
        },
        {
          "indexed": false,
          "internalType": "uint256",
          "name": "_amountOut",
          "type": "uint256"
        }
      ],
      "name": "YakAdapterSwap",
      "type": "event"
    },
    {
      "inputs": [],
      "name": "DEFAULT_ADMIN_ROLE",
      "outputs": [
        {
          "internalType": "bytes32",
          "name": "",
          "type": "bytes32"
        }
      ],
      "stateMutability": "view",
      "type": "function"
    },
    {
      "inputs": [],
      "name": "MAINTAINER_ROLE",
      "outputs": [
        {
          "internalType": "bytes32",
          "name": "",
          "type": "bytes32"
        }
      ],
      "stateMutability": "view",
      "type": "function"
    },
    {
      "inputs": [
        {
          "internalType": "address",
          "name": "addedMaintainer",
          "type": "address"
        }
      ],
      "name": "addMaintainer",
      "outputs": [],
      "stateMutability": "nonpayable",
      "type": "function"
    },
    {
      "inputs": [
        {
          "internalType": "address[]",
          "name": "pools",
          "type": "address[]"
        }
      ],
      "name": "addPoolsToWL",
      "outputs": [],
      "stateMutability": "nonpayable",
      "type": "function"
    },
    {
      "inputs": [
        {
          "internalType": "address",
          "name": "pool",
          "type": "address"
        },
        {
          "internalType": "int256",
          "name": "amountIn",
          "type": "int256"
        },
        {
          "internalType": "address",
          "name": "tokenIn",
          "type": "address"
        },
        {
          "internalType": "address",
          "name": "tokenOut",
          "type": "address"
        }
      ],
      "name": "getQuoteForPool",
      "outputs": [
        {
          "internalType": "uint256",
          "name": "",
          "type": "uint256"
        }
      ],
      "stateMutability": "view",
      "type": "function"
    },
    {
      "inputs": [
        {
          "internalType": "bytes32",
          "name": "role",
          "type": "bytes32"
        }
      ],
      "name": "getRoleAdmin",
      "outputs": [
        {
          "internalType": "bytes32",
          "name": "",
          "type": "bytes32"
        }
      ],
      "stateMutability": "view",
      "type": "function"
    },
    {
      "inputs": [
        {
          "internalType": "bytes32",
          "name": "role",
          "type": "bytes32"
        },
        {
          "internalType": "address",
          "name": "account",
          "type": "address"
        }
      ],
      "name": "grantRole",
      "outputs": [],
      "stateMutability": "nonpayable",
      "type": "function"
    },
    {
      "inputs": [
        {
          "internalType": "bytes32",
          "name": "role",
          "type": "bytes32"
        },
        {
          "internalType": "address",
          "name": "account",
          "type": "address"
        }
      ],
      "name": "hasRole",
      "outputs": [
        {
          "internalType": "bool",
          "name": "",
          "type": "bool"
        }
      ],
      "stateMutability": "view",
      "type": "function"
    },
    {
      "inputs": [],
      "name": "name",
      "outputs": [
        {
          "internalType": "string",
          "name": "",
          "type": "string"
        }
      ],
      "stateMutability": "view",
      "type": "function"
    },
    {
      "inputs": [
        {
          "internalType": "uint256",
          "name": "_amountIn",
          "type": "uint256"
        },
        {
          "internalType": "address",
          "name": "_tokenIn",
          "type": "address"
        },
        {
          "internalType": "address",
          "name": "_tokenOut",
          "type": "address"
        }
      ],
      "name": "query",
      "outputs": [
        {
          "internalType": "uint256",
          "name": "",
          "type": "uint256"
        }
      ],
      "stateMutability": "view",
      "type": "function"
    },
    {
      "inputs": [],
      "name": "quoter",
      "outputs": [
        {
          "internalType": "address",
          "name": "",
          "type": "address"
        }
      ],
      "stateMutability": "view",
      "type": "function"
    },
    {
      "inputs": [],
      "name": "quoterGasLimit",
      "outputs": [
        {
          "internalType": "uint256",
          "name": "",
          "type": "uint256"
        }
      ],
      "stateMutability": "view",
      "type": "function"
    },
    {
      "inputs": [
        {
          "internalType": "uint256",
          "name": "_amount",
          "type": "uint256"
        }
      ],
      "name": "recoverAVAX",
      "outputs": [],
      "stateMutability": "nonpayable",
      "type": "function"
    },
    {
      "inputs": [
        {
          "internalType": "address",
          "name": "_tokenAddress",
          "type": "address"
        },
        {
          "internalType": "uint256",
          "name": "_tokenAmount",
          "type": "uint256"
        }
      ],
      "name": "recoverERC20",
      "outputs": [],
      "stateMutability": "nonpayable",
      "type": "function"
    },
    {
      "inputs": [
        {
          "internalType": "address",
          "name": "removedMaintainer",
          "type": "address"
        }
      ],
      "name": "removeMaintainer",
      "outputs": [],
      "stateMutability": "nonpayable",
      "type": "function"
    },
    {
      "inputs": [
        {
          "internalType": "bytes32",
          "name": "role",
          "type": "bytes32"
        },
        {
          "internalType": "address",
          "name": "account",
          "type": "address"
        }
      ],
      "name": "renounceRole",
      "outputs": [],
      "stateMutability": "nonpayable",
      "type": "function"
    },
    {
      "inputs": [
        {
          "internalType": "bytes32",
          "name": "role",
          "type": "bytes32"
        }
      ],
      "name": "renounceRole",
      "outputs": [],
      "stateMutability": "nonpayable",
      "type": "function"
    },
    {
      "inputs": [
        {
          "internalType": "address",
          "name": "_token",
          "type": "address"
        },
        {
          "internalType": "address",
          "name": "_spender",
          "type": "address"
        }
      ],
      "name": "revokeAllowance",
      "outputs": [],
      "stateMutability": "nonpayable",
      "type": "function"
    },
    {
      "inputs": [
        {
          "internalType": "bytes32",
          "name": "role",
          "type": "bytes32"
        },
        {
          "internalType": "address",
          "name": "account",
          "type": "address"
        }
      ],
      "name": "revokeRole",
      "outputs": [],
      "stateMutability": "nonpayable",
      "type": "function"
    },
    {
      "inputs": [
        {
          "internalType": "address[]",
          "name": "pools",
          "type": "address[]"
        }
      ],
      "name": "rmPoolsFromWL",
      "outputs": [],
      "stateMutability": "nonpayable",
      "type": "function"
    },
    {
      "inputs": [
        {
          "internalType": "address",
          "name": "newQuoter",
          "type": "address"
        }
      ],
      "name": "setQuoter",
      "outputs": [],
      "stateMutability": "nonpayable",
      "type": "function"
    },
    {
      "inputs": [
        {
          "internalType": "uint256",
          "name": "newLimit",
          "type": "uint256"
        }
      ],
      "name": "setQuoterGasLimit",
      "outputs": [],
      "stateMutability": "nonpayable",
      "type": "function"
    },
    {
      "inputs": [
        {
          "internalType": "uint256",
          "name": "_estimate",
          "type": "uint256"
        }
      ],
      "name": "setSwapGasEstimate",
      "outputs": [],
      "stateMutability": "nonpayable",
      "type": "function"
    },
    {
      "inputs": [
        {
          "internalType": "bytes4",
          "name": "interfaceId",
          "type": "bytes4"
        }
      ],
      "name": "supportsInterface",
      "outputs": [
        {
          "internalType": "bool",
          "name": "",
          "type": "bool"
        }
      ],
      "stateMutability": "view",
      "type": "function"
    },
    {
      "inputs": [
        {
          "internalType": "uint256",
          "name": "_amountIn",
          "type": "uint256"
        },
        {
          "internalType": "uint256",
          "name": "_amountOut",
          "type": "uint256"
        },
        {
          "internalType": "address",
          "name": "_fromToken",
          "type": "address"
        },
        {
          "internalType": "address",
          "name": "_toToken",
          "type": "address"
        },
        {
          "internalType": "address",
          "name": "_to",
          "type": "address"
        }
      ],
      "name": "swap",
      "outputs": [],
      "stateMutability": "nonpayable",
      "type": "function"
    },
    {
      "inputs": [
        {
          "internalType": "int256",
          "name": "amount0Delta",
          "type": "int256"
        },
        {
          "internalType": "int256",
          "name": "amount1Delta",
          "type": "int256"
        },
        {
          "internalType": "bytes",
          "name": "",
          "type": "bytes"
        }
      ],
      "name": "swapCallback",
      "outputs": [],
      "stateMutability": "nonpayable",
      "type": "function"
    },
    {
      "inputs": [],
      "name": "swapGasEstimate",
      "outputs": [
        {
          "internalType": "uint256",
          "name": "",
          "type": "uint256"
        }
      ],
      "stateMutability": "view",
      "type": "function"
    },
    {
      "inputs": [
        {
          "internalType": "address",
          "name": "",
          "type": "address"
        },
        {
          "internalType": "address",
          "name": "",
          "type": "address"
        }
      ],
      "name": "tknsToPoolWL",
      "outputs": [
        {
          "internalType": "address",
          "name": "",
          "type": "address"
        }
      ],
      "stateMutability": "view",
      "type": "function"
    },
    {
      "inputs": [
        {
          "internalType": "address",
          "name": "newOwner",
          "type": "address"
        }
      ],
      "name": "transferOwnership",
      "outputs": [],
      "stateMutability": "nonpayable",
      "type": "function"
    },
    {
      "stateMutability": "payable",
      "type": "receive"
    }
  ],
  "transactionHash": "0x0bce853bb0d46d02747e6eea2896a014171a47d7a68f35102c7540791d440ff4",
  "args": [
    "KyberElasticAdapter",
    210000,
    210000,
    "0xf2acd5F10E16BCd2b436701647513bB6C20cF62F",
    [
      "0x087abaab9cd85025a8b3916948c69fe173c837ea",
      "0xbf0aa7eef5b94fe11d4d0a72be9d29882415e3bb",
      "0x114de2affc6a335433dbe9d3d51a8f31a5591fdf",
      "0x7acbea3b8ab7cdf4a595c6ed81e7d3e26038d494",
      "0xd5b03a99441b088df2923f9e266c906971af2ded",
      "0xd98fca6160c5265c1da4ba709d686b85f490a21d",
      "0x2a83e1aa650b364ac88b39f1f67a34abcca8e6f2",
      "0xf9d234bad87825aa8906826f0a68d4c5bbbb1461",
      "0x26333db71b82e2df33d1c11158470b73e3d27072",
      "0x8285530c639b9aee36557312facd2f7d6c797c18",
      "0x1e662bfc7595565215a322575d0d9693f17df2e4",
      "0x30e4bd4a5b02f73a6863f499c2fba257025e827b",
      "0xae338fe2521c609437ab996f187819ab59082f94",
      "0x9497954d3d99b458808b7e9e3349edb3f193464d",
      "0xc1f8fe4afed59e461cbea887c3a578076ffb707f",
      "0x6ce912d22a9763226ae90126edf2f53bda429e2d",
      "0x8d1a0676f7f3c4d55c59a963ee710540e6a3deba",
      "0xc7ff48e5a7e6a14bc4d7dca1c3e4b38321121d0b",
      "0x369f3f702d449f1e5e741643b1b90a8bf175f839",
      "0x35758351bdbb30b0704e472ec36e6887ac0d794e",
      "0x8a33c7e7fa8969909654cca6f8190beda84eb023",
      "0xb100ba0b98b6d997fbf95c0c051ae66d79bd07b3"
    ]
  ],
  "solcInputHash": "3d31bd7e10bf3531f6c263bc3f164c5d",
  "bytecode": "0x60806040523480156200001157600080fd5b5060405162003264380380620032648339810160408190526200003491620007c0565b8484838583833362000048600082620000c4565b620000747f339759585899103d2ace64958e37e18ccb0504652c81d4a1b8aa80fe2126ab9582620000c4565b506200008082620000d4565b6200008b816200013d565b506200009990508162000239565b620000a482620002fd565b50505050620000b9816200038f60201b60201c565b505050505062000973565b620000d082826200045c565b5050565b8051620001285760405162461bcd60e51b815260206004820152601460248201527f496e76616c69642061646170746572206e616d6500000000000000000000000060448201526064015b60405180910390fd5b8051620000d090600290602084019062000645565b33600081815260008051602062003224833981519152602052604090205460ff16620001ac5760405162461bcd60e51b815260206004820152602860248201526000805160206200324483398151915260448201526734b73a30b4b732b960c11b60648201526084016200011f565b81620001fb5760405162461bcd60e51b815260206004820152601460248201527f496e76616c6964206761732d657374696d61746500000000000000000000000060448201526064016200011f565b600182905560405182815230907ff43f23b7a28e6f8ce6843a21bd7b48bce778aa913b8c8cf459edf7d770e8d38a9060200160405180910390a25050565b33600081815260008051602062003224833981519152602052604090205460ff16620002a85760405162461bcd60e51b815260206004820152602860248201526000805160206200324483398151915260448201526734b73a30b4b732b960c11b60648201526084016200011f565b81620002f75760405162461bcd60e51b815260206004820152601b60248201527f71756572794761734c696d69742063616e2774206265207a65726f000000000060448201526064016200011f565b50600355565b33600081815260008051602062003224833981519152602052604090205460ff166200036c5760405162461bcd60e51b815260206004820152602860248201526000805160206200324483398151915260448201526734b73a30b4b732b960c11b60648201526084016200011f565b50600480546001600160a01b0319166001600160a01b0392909216919091179055565b33600081815260008051602062003224833981519152602052604090205460ff16620003fe5760405162461bcd60e51b815260206004820152602860248201526000805160206200324483398151915260448201526734b73a30b4b732b960c11b60648201526084016200011f565b60005b82518110156200045757620004448382815181106200043057634e487b7160e01b600052603260045260246000fd5b6020026020010151620004fc60201b60201c565b6200044f8162000935565b905062000401565b505050565b6000828152602081815260408083206001600160a01b038516845290915290205460ff16620000d0576000828152602081815260408083206001600160a01b03851684529091529020805460ff19166001179055620004b83390565b6001600160a01b0316816001600160a01b0316837f2f8788117e7eff1d82e926ec794901d17c78024a50270940304540a733656f0d60405160405180910390a45050565b6000816001600160a01b0316630dfe16816040518163ffffffff1660e01b815260040160206040518083038186803b1580156200053857600080fd5b505afa1580156200054d573d6000803e3d6000fd5b505050506040513d601f19601f820116820180604052508101906200057391906200079c565b90506000826001600160a01b031663d21220a76040518163ffffffff1660e01b815260040160206040518083038186803b158015620005b157600080fd5b505afa158015620005c6573d6000803e3d6000fd5b505050506040513d601f19601f82011682018060405250810190620005ec91906200079c565b6001600160a01b03928316600081815260056020818152604080842095881684529481528483208054979098166001600160a01b0319978816811790985590815283822092825291909152208054909216909217905550565b8280546200065390620008f8565b90600052602060002090601f016020900481019282620006775760008555620006c2565b82601f106200069257805160ff1916838001178555620006c2565b82800160010185558215620006c2579182015b82811115620006c2578251825591602001919060010190620006a5565b50620006d0929150620006d4565b5090565b5b80821115620006d05760008155600101620006d5565b80516001600160a01b03811681146200070357600080fd5b919050565b600082601f83011262000719578081fd5b815160206001600160401b038211156200073757620007376200095d565b8160051b62000748828201620008c5565b83815282810190868401838801850189101562000763578687fd5b8693505b8584101562000790576200077b81620006eb565b83526001939093019291840191840162000767565b50979650505050505050565b600060208284031215620007ae578081fd5b620007b982620006eb565b9392505050565b600080600080600060a08688031215620007d8578081fd5b85516001600160401b0380821115620007ef578283fd5b818801915088601f83011262000803578283fd5b8151818111156200081857620008186200095d565b60206200082e601f8301601f19168201620008c5565b8281528b8284870101111562000842578586fd5b855b838110156200086157858101830151828201840152820162000844565b838111156200087257868385840101525b50908a015160408b01519199509750955062000893905060608901620006eb565b93506080880151915080821115620008a9578283fd5b50620008b88882890162000708565b9150509295509295909350565b604051601f8201601f191681016001600160401b0381118282101715620008f057620008f06200095d565b604052919050565b600181811c908216806200090d57607f821691505b602082108114156200092f57634e487b7160e01b600052602260045260246000fd5b50919050565b60006000198214156200095657634e487b7160e01b81526011600452602481fd5b5060010190565b634e487b7160e01b600052604160045260246000fd5b6128a180620009836000396000f3fe6080604052600436106101c65760003560e01c80638bb9c5bf116100f7578063eab90da611610095578063f35c4d4511610064578063f35c4d4514610567578063f874225414610587578063f912c64b146105bb578063fa483e72146105db57600080fd5b8063eab90da6146104e7578063ef99893a14610507578063f06c21eb14610527578063f2fde38b1461054757600080fd5b8063c6bbd5a7116100d1578063c6bbd5a71461042e578063d547741f14610466578063d7e9444914610486578063d8baf7cf146104c757600080fd5b80638bb9c5bf146103b557806391d14854146103d5578063a217fddf1461041957600080fd5b806336568abe116101645780636b453c1f1161013e5780636b453c1f146103355780637ae267731461035557806384a33e63146103755780638980f11f1461039557600080fd5b806336568abe146102df5780634ebb7916146102ff57806369cff80d1461031f57600080fd5b8063248a9ca3116101a0578063248a9ca3146102575780632bc857a0146102875780632f2ff15d1461029d57806335f7c24d146102bf57600080fd5b806301ffc9a7146101d257806305e3f4dc1461020757806306fdde031461023557600080fd5b366101cd57005b600080fd5b3480156101de57600080fd5b506101f26101ed36600461242d565b6105fb565b60405190151581526020015b60405180910390f35b34801561021357600080fd5b5061022761022236600461228d565b610664565b6040519081526020016101fe565b34801561024157600080fd5b5061024a6106a5565b6040516101fe91906126ad565b34801561026357600080fd5b506102276102723660046123f1565b60009081526020819052604090206001015490565b34801561029357600080fd5b5061022760035481565b3480156102a957600080fd5b506102bd6102b8366004612409565b610733565b005b3480156102cb57600080fd5b506102bd6102da36600461230a565b61075d565b3480156102eb57600080fd5b506102bd6102fa366004612409565b61083d565b34801561030b57600080fd5b506102bd61031a3660046123f1565b6108c9565b34801561032b57600080fd5b5061022760015481565b34801561034157600080fd5b506102bd61035036600461221d565b610a11565b34801561036157600080fd5b506102bd610370366004612255565b610a3e565b34801561038157600080fd5b506102bd6103903660046123f1565b610ae2565b3480156103a157600080fd5b506102bd6103b03660046122df565b610bf5565b3480156103c157600080fd5b506102bd6103d03660046123f1565b610d30565b3480156103e157600080fd5b506101f26103f0366004612409565b6000918252602082815260408084206001600160a01b0393909316845291905290205460ff1690565b34801561042557600080fd5b50610227600081565b34801561043a57600080fd5b5060045461044e906001600160a01b031681565b6040516001600160a01b0390911681526020016101fe565b34801561047257600080fd5b506102bd610481366004612409565b610d3b565b34801561049257600080fd5b5061044e6104a1366004612255565b60056020908152600092835260408084209091529082529020546001600160a01b031681565b3480156104d357600080fd5b506102bd6104e236600461221d565b610d60565b3480156104f357600080fd5b506102bd61050236600461254c565b610d8a565b34801561051357600080fd5b5061022761052236600461250b565b610f4f565b34801561053357600080fd5b506102bd61054236600461230a565b610f64565b34801561055357600080fd5b506102bd61056236600461221d565b61103f565b34801561057357600080fd5b506102bd6105823660046123f1565b611056565b34801561059357600080fd5b506102277f339759585899103d2ace64958e37e18ccb0504652c81d4a1b8aa80fe2126ab9581565b3480156105c757600080fd5b506102bd6105d636600461221d565b611138565b3480156105e757600080fd5b506102bd6105f6366004612478565b6111f7565b60006001600160e01b031982167f7965db0b00000000000000000000000000000000000000000000000000000000148061065e57507f01ffc9a7000000000000000000000000000000000000000000000000000000006001600160e01b03198316145b92915050565b604080516080810182526000606082018190529181018590526001600160a01b0384811682528316602082015261069b86826113f4565b9695505050505050565b600280546106b2906127a4565b80601f01602080910402602001604051908101604052809291908181526020018280546106de906127a4565b801561072b5780601f106107005761010080835404028352916020019161072b565b820191906000526020600020905b81548152906001019060200180831161070e57829003601f168201915b505050505081565b60008281526020819052604090206001015461074e8161144d565b6107588383611457565b505050565b3360008181527fa54247010af6b3693b80aceddfad12e077c5de3571e6243fada502635f0d7d39602052604090205460ff166107f15760405162461bcd60e51b815260206004820152602860248201527f4d61696e7461696e61626c653a2043616c6c6572206973206e6f742061206d6160448201526734b73a30b4b732b960c11b60648201526084015b60405180910390fd5b60005b82518110156107585761082d83828151811061082057634e487b7160e01b600052603260045260246000fd5b60200260200101516114f5565b610836816127d9565b90506107f4565b6001600160a01b03811633146108bb5760405162461bcd60e51b815260206004820152602f60248201527f416363657373436f6e74726f6c3a2063616e206f6e6c792072656e6f756e636560448201527f20726f6c657320666f722073656c66000000000000000000000000000000000060648201526084016107e8565b6108c5828261163e565b5050565b3360008181527fa54247010af6b3693b80aceddfad12e077c5de3571e6243fada502635f0d7d39602052604090205460ff166109585760405162461bcd60e51b815260206004820152602860248201527f4d61696e7461696e61626c653a2043616c6c6572206973206e6f742061206d6160448201526734b73a30b4b732b960c11b60648201526084016107e8565b600082116109a85760405162461bcd60e51b815260206004820152601e60248201527f59616b416461707465723a204e6f7468696e6720746f207265636f766572000060448201526064016107e8565b604051339083156108fc029084906000818181858888f193505050501580156109d5573d6000803e3d6000fd5b506040518281526000907f8c1256b8896378cd5044f80c202f9772b9d77dc85c8a6eb51967210b09bfaa28906020015b60405180910390a25050565b610a3b7f339759585899103d2ace64958e37e18ccb0504652c81d4a1b8aa80fe2126ab9582610733565b50565b3360008181527fa54247010af6b3693b80aceddfad12e077c5de3571e6243fada502635f0d7d39602052604090205460ff16610acd5760405162461bcd60e51b815260206004820152602860248201527f4d61696e7461696e61626c653a2043616c6c6572206973206e6f742061206d6160448201526734b73a30b4b732b960c11b60648201526084016107e8565b6107586001600160a01b0384168360006116bd565b3360008181527fa54247010af6b3693b80aceddfad12e077c5de3571e6243fada502635f0d7d39602052604090205460ff16610b715760405162461bcd60e51b815260206004820152602860248201527f4d61696e7461696e61626c653a2043616c6c6572206973206e6f742061206d6160448201526734b73a30b4b732b960c11b60648201526084016107e8565b81610bbe5760405162461bcd60e51b815260206004820152601460248201527f496e76616c6964206761732d657374696d61746500000000000000000000000060448201526064016107e8565b600182905560405182815230907ff43f23b7a28e6f8ce6843a21bd7b48bce778aa913b8c8cf459edf7d770e8d38a90602001610a05565b3360008181527fa54247010af6b3693b80aceddfad12e077c5de3571e6243fada502635f0d7d39602052604090205460ff16610c845760405162461bcd60e51b815260206004820152602860248201527f4d61696e7461696e61626c653a2043616c6c6572206973206e6f742061206d6160448201526734b73a30b4b732b960c11b60648201526084016107e8565b60008211610cd45760405162461bcd60e51b815260206004820152601e60248201527f59616b416461707465723a204e6f7468696e6720746f207265636f766572000060448201526064016107e8565b610ce86001600160a01b0384163384611862565b826001600160a01b03167f8c1256b8896378cd5044f80c202f9772b9d77dc85c8a6eb51967210b09bfaa2883604051610d2391815260200190565b60405180910390a2505050565b336108c5828261083d565b600082815260208190526040902060010154610d568161144d565b610758838361163e565b610a3b7f339759585899103d2ace64958e37e18ccb0504652c81d4a1b8aa80fe2126ab9582610d3b565b6040516370a0823160e01b81526001600160a01b038281166004830152600091908416906370a082319060240160206040518083038186803b158015610dcf57600080fd5b505afa158015610de3573d6000803e3d6000fd5b505050506040513d601f19601f82011682018060405250810190610e0791906124f3565b9050610e168686868686611892565b6040516370a0823160e01b81526001600160a01b03838116600483015260009183918616906370a082319060240160206040518083038186803b158015610e5c57600080fd5b505afa158015610e70573d6000803e3d6000fd5b505050506040513d601f19601f82011682018060405250810190610e9491906124f3565b610e9e919061274a565b905085811015610ef05760405162461bcd60e51b815260206004820152601760248201527f496e73756666696369656e7420616d6f756e742d6f757400000000000000000060448201526064016107e8565b836001600160a01b0316856001600160a01b03167fe2bdbc6b7225eb0a972ac943c485a6cc05f7c6811838bce8903f23200fb744fa8989604051610f3e929190918252602082015260400190565b60405180910390a350505050505050565b6000610f5c84848461195c565b949350505050565b3360008181527fa54247010af6b3693b80aceddfad12e077c5de3571e6243fada502635f0d7d39602052604090205460ff16610ff35760405162461bcd60e51b815260206004820152602860248201527f4d61696e7461696e61626c653a2043616c6c6572206973206e6f742061206d6160448201526734b73a30b4b732b960c11b60648201526084016107e8565b60005b82518110156107585761102f83828151811061102257634e487b7160e01b600052603260045260246000fd5b60200260200101516119ba565b611038816127d9565b9050610ff6565b3361104b600083610733565b6108c560008261083d565b3360008181527fa54247010af6b3693b80aceddfad12e077c5de3571e6243fada502635f0d7d39602052604090205460ff166110e55760405162461bcd60e51b815260206004820152602860248201527f4d61696e7461696e61626c653a2043616c6c6572206973206e6f742061206d6160448201526734b73a30b4b732b960c11b60648201526084016107e8565b816111325760405162461bcd60e51b815260206004820152601b60248201527f71756572794761734c696d69742063616e2774206265207a65726f000000000060448201526064016107e8565b50600355565b3360008181527fa54247010af6b3693b80aceddfad12e077c5de3571e6243fada502635f0d7d39602052604090205460ff166111c75760405162461bcd60e51b815260206004820152602860248201527f4d61696e7461696e61626c653a2043616c6c6572206973206e6f742061206d6160448201526734b73a30b4b732b960c11b60648201526084016107e8565b506004805473ffffffffffffffffffffffffffffffffffffffff19166001600160a01b0392909216919091179055565b60008413156112f957336001600160a01b0316630dfe16816040518163ffffffff1660e01b815260040160206040518083038186803b15801561123957600080fd5b505afa15801561124d573d6000803e3d6000fd5b505050506040513d601f19601f820116820180604052508101906112719190612239565b60405163a9059cbb60e01b8152336004820152602481018690526001600160a01b03919091169063a9059cbb90604401602060405180830381600087803b1580156112bb57600080fd5b505af11580156112cf573d6000803e3d6000fd5b505050506040513d601f19601f820116820180604052508101906112f391906123d1565b506113ee565b336001600160a01b031663d21220a76040518163ffffffff1660e01b815260040160206040518083038186803b15801561133257600080fd5b505afa158015611346573d6000803e3d6000fd5b505050506040513d601f19601f8201168201806040525081019061136a9190612239565b60405163a9059cbb60e01b8152336004820152602481018590526001600160a01b03919091169063a9059cbb90604401602060405180830381600087803b1580156113b457600080fd5b505af11580156113c8573d6000803e3d6000fd5b505050506040513d601f19601f820116820180604052508101906113ec91906123d1565b505b50505050565b600080600061140b84600001518560200151611b08565b915091506000806114228785886040015186611b5b565b915091508361143957611434826127f4565b611442565b611442816127f4565b979650505050505050565b610a3b8133611c24565b6000828152602081815260408083206001600160a01b038516845290915290205460ff166108c5576000828152602081815260408083206001600160a01b03851684529091529020805460ff191660011790556114b13390565b6001600160a01b0316816001600160a01b0316837f2f8788117e7eff1d82e926ec794901d17c78024a50270940304540a733656f0d60405160405180910390a45050565b6000816001600160a01b0316630dfe16816040518163ffffffff1660e01b815260040160206040518083038186803b15801561153057600080fd5b505afa158015611544573d6000803e3d6000fd5b505050506040513d601f19601f820116820180604052508101906115689190612239565b90506000826001600160a01b031663d21220a76040518163ffffffff1660e01b815260040160206040518083038186803b1580156115a557600080fd5b505afa1580156115b9573d6000803e3d6000fd5b505050506040513d601f19601f820116820180604052508101906115dd9190612239565b6001600160a01b039283166000818152600560208181526040808420979095168352958652838220805473ffffffffffffffffffffffffffffffffffffffff1990811690915590865283822092825291909452922080549092169091555050565b6000828152602081815260408083206001600160a01b038516845290915290205460ff16156108c5576000828152602081815260408083206001600160a01b0385168085529252808320805460ff1916905551339285917ff6391f5c32d9c69d2a47ea670b442974b53935d1edc7fd64eb21e047a839171b9190a45050565b80158061175f57506040517fdd62ed3e0000000000000000000000000000000000000000000000000000000081523060048201526001600160a01b03838116602483015284169063dd62ed3e9060440160206040518083038186803b15801561172557600080fd5b505afa158015611739573d6000803e3d6000fd5b505050506040513d601f19601f8201168201806040525081019061175d91906124f3565b155b6117d15760405162461bcd60e51b815260206004820152603660248201527f5361666545524332303a20617070726f76652066726f6d206e6f6e2d7a65726f60448201527f20746f206e6f6e2d7a65726f20616c6c6f77616e63650000000000000000000060648201526084016107e8565b6040516001600160a01b0383166024820152604481018290526107589084907f095ea7b300000000000000000000000000000000000000000000000000000000906064015b60408051601f198184030181529190526020810180517bffffffffffffffffffffffffffffffffffffffffffffffffffffffff166001600160e01b031990931692909217909152611ca2565b6040516001600160a01b03831660248201526044810182905261075890849063a9059cbb60e01b90606401611816565b6040805160808082018352600080835260208084018290528385018290526060938401829052845192830185526001600160a01b0388811684528716838201528285018a9052928201819052835181815292830190935291906118f6908390611dde565b9050858110156119485760405162461bcd60e51b815260206004820152601660248201527f496e73756666696369656e7420616d6f756e744f75740000000000000000000060448201526064016107e8565b611953848285611eeb565b50505050505050565b6040805160808082018352600080835260208084018290528385018290526060938401829052845192830185526001600160a01b0380881684528616908301529281018690529081018290526119b181611f0f565b95945050505050565b6000816001600160a01b0316630dfe16816040518163ffffffff1660e01b815260040160206040518083038186803b1580156119f557600080fd5b505afa158015611a09573d6000803e3d6000fd5b505050506040513d601f19601f82011682018060405250810190611a2d9190612239565b90506000826001600160a01b031663d21220a76040518163ffffffff1660e01b815260040160206040518083038186803b158015611a6a57600080fd5b505afa158015611a7e573d6000803e3d6000fd5b505050506040513d601f19601f82011682018060405250810190611aa29190612239565b6001600160a01b039283166000818152600560208181526040808420958816845294815284832080549790981673ffffffffffffffffffffffffffffffffffffffff19978816811790985590815283822092825291909152208054909216909217905550565b6001600160a01b0380821690831610600081611b4257611b3d600173fffd8963efd1fc6a506488495d951d5263988d26612722565b611b52565b611b526401000276a360016126c0565b90509250929050565b6040516001600160a01b038086166024830152841515604483015260648201849052821660848201526000908190819060a40160408051601f198184030181529190526020810180517bffffffffffffffffffffffffffffffffffffffffffffffffffffffff167f90405d36000000000000000000000000000000000000000000000000000000001790529050600080611bf483611f6d565b915091508115611c185780806020019051810190611c129190612455565b90955093505b50505094509492505050565b6000828152602081815260408083206001600160a01b038516845290915290205460ff166108c557611c60816001600160a01b03166014611fdf565b611c6b836020611fdf565b604051602001611c7c9291906125f2565b60408051601f198184030181529082905262461bcd60e51b82526107e8916004016126ad565b600080836001600160a01b031683604051611cbd91906125d6565b6000604051808303816000865af19150503d8060008114611cfa576040519150601f19603f3d011682016040523d82523d6000602084013e611cff565b606091505b509150915081611d515760405162461bcd60e51b815260206004820181905260248201527f5361666545524332303a206c6f772d6c6576656c2063616c6c206661696c656460448201526064016107e8565b8051156113ee5780806020019051810190611d6c91906123d1565b6113ee5760405162461bcd60e51b815260206004820152602a60248201527f5361666545524332303a204552433230206f7065726174696f6e20646964206e60448201527f6f7420737563636565640000000000000000000000000000000000000000000060648201526084016107e8565b600080611e18846000015185602001516001600160a01b039182166000908152600560209081526040808320938516835292905220541690565b9050600080611e2f86600001518760200151611b08565b91509150600080846001600160a01b03166324b31a0c308a6040015187878c6040518663ffffffff1660e01b8152600401611e6e959493929190612673565b6040805180830381600087803b158015611e8757600080fd5b505af1158015611e9b573d6000803e3d6000fd5b505050506040513d601f19601f82011682018060405250810190611ebf9190612455565b9150915083611ed657611ed1826127f4565b611edf565b611edf816127f4565b98975050505050505050565b306001600160a01b03821614610758576107586001600160a01b0384168284611862565b600080611f49836000015184602001516001600160a01b039182166000908152600560209081526040808320938516835292905220541690565b90506001600160a01b03811615611f6757611f6481846113f4565b91505b50919050565b6004546003546040516000926060926001600160a01b0390911691611f939086906125d6565b6000604051808303818686fa925050503d8060008114611fcf576040519150601f19603f3d011682016040523d82523d6000602084013e611fd4565b606091505b509094909350915050565b60606000611fee836002612703565b611ff99060026126eb565b67ffffffffffffffff81111561201f57634e487b7160e01b600052604160045260246000fd5b6040519080825280601f01601f191660200182016040528015612049576020820181803683370190505b5090507f30000000000000000000000000000000000000000000000000000000000000008160008151811061208e57634e487b7160e01b600052603260045260246000fd5b60200101906001600160f81b031916908160001a9053507f7800000000000000000000000000000000000000000000000000000000000000816001815181106120e757634e487b7160e01b600052603260045260246000fd5b60200101906001600160f81b031916908160001a905350600061210b846002612703565b6121169060016126eb565b90505b60018111156121b7577f303132333435363738396162636465660000000000000000000000000000000085600f166010811061216557634e487b7160e01b600052603260045260246000fd5b1a60f81b82828151811061218957634e487b7160e01b600052603260045260246000fd5b60200101906001600160f81b031916908160001a90535060049490941c936121b08161278d565b9050612119565b5083156122065760405162461bcd60e51b815260206004820181905260248201527f537472696e67733a20686578206c656e67746820696e73756666696369656e7460448201526064016107e8565b9392505050565b803561221881612856565b919050565b60006020828403121561222e578081fd5b813561220681612856565b60006020828403121561224a578081fd5b815161220681612856565b60008060408385031215612267578081fd5b823561227281612856565b9150602083013561228281612856565b809150509250929050565b600080600080608085870312156122a2578182fd5b84356122ad81612856565b93506020850135925060408501356122c481612856565b915060608501356122d481612856565b939692955090935050565b600080604083850312156122f1578182fd5b82356122fc81612856565b946020939093013593505050565b6000602080838503121561231c578182fd5b823567ffffffffffffffff80821115612333578384fd5b818501915085601f830112612346578384fd5b81358181111561235857612358612840565b8060051b604051601f19603f8301168101818110858211171561237d5761237d612840565b604052828152858101935084860182860187018a101561239b578788fd5b8795505b838610156123c4576123b08161220d565b85526001959095019493860193860161239f565b5098975050505050505050565b6000602082840312156123e2578081fd5b81518015158114612206578182fd5b600060208284031215612402578081fd5b5035919050565b6000806040838503121561241b578182fd5b82359150602083013561228281612856565b60006020828403121561243e578081fd5b81356001600160e01b031981168114612206578182fd5b60008060408385031215612467578182fd5b505080516020909101519092909150565b6000806000806060858703121561248d578384fd5b8435935060208501359250604085013567ffffffffffffffff808211156124b2578384fd5b818701915087601f8301126124c5578384fd5b8135818111156124d3578485fd5b8860208285010111156124e4578485fd5b95989497505060200194505050565b600060208284031215612504578081fd5b5051919050565b60008060006060848603121561251f578081fd5b83359250602084013561253181612856565b9150604084013561254181612856565b809150509250925092565b600080600080600060a08688031215612563578283fd5b8535945060208601359350604086013561257c81612856565b9250606086013561258c81612856565b9150608086013561259c81612856565b809150509295509295909350565b600081518084526125c2816020860160208601612761565b601f01601f19169290920160200192915050565b600082516125e8818460208701612761565b9190910192915050565b7f416363657373436f6e74726f6c3a206163636f756e742000000000000000000081526000835161262a816017850160208801612761565b7f206973206d697373696e6720726f6c65200000000000000000000000000000006017918401918201528351612667816028840160208801612761565b01602801949350505050565b60006001600160a01b038088168352866020840152851515604084015280851660608401525060a0608083015261144260a08301846125aa565b60208152600061220660208301846125aa565b60006001600160a01b038083168185168083038211156126e2576126e261282a565b01949350505050565b600082198211156126fe576126fe61282a565b500190565b600081600019048311821515161561271d5761271d61282a565b500290565b60006001600160a01b03838116908316818110156127425761274261282a565b039392505050565b60008282101561275c5761275c61282a565b500390565b60005b8381101561277c578181015183820152602001612764565b838111156113ee5750506000910152565b60008161279c5761279c61282a565b506000190190565b600181811c908216806127b857607f821691505b60208210811415611f6757634e487b7160e01b600052602260045260246000fd5b60006000198214156127ed576127ed61282a565b5060010190565b60007f80000000000000000000000000000000000000000000000000000000000000008214156128265761282661282a565b0390565b634e487b7160e01b600052601160045260246000fd5b634e487b7160e01b600052604160045260246000fd5b6001600160a01b0381168114610a3b57600080fdfea2646970667358221220b15d5ae535f81de6856193afe824d31315f0f68d9d21a3623d604627edd72a9f64736f6c63430008040033a54247010af6b3693b80aceddfad12e077c5de3571e6243fada502635f0d7d394d61696e7461696e61626c653a2043616c6c6572206973206e6f742061206d61",
  "devdoc": {
    "kind": "dev",
    "methods": {
      "getRoleAdmin(bytes32)": {
        "details": "Returns the admin role that controls `role`. See {grantRole} and {revokeRole}. To change a role's admin, use {_setRoleAdmin}."
      },
      "grantRole(bytes32,address)": {
        "details": "Grants `role` to `account`. If `account` had not been already granted `role`, emits a {RoleGranted} event. Requirements: - the caller must have ``role``'s admin role. May emit a {RoleGranted} event."
      },
      "hasRole(bytes32,address)": {
        "details": "Returns `true` if `account` has been granted `role`."
      },
      "renounceRole(bytes32,address)": {
        "details": "Revokes `role` from the calling account. Roles are often managed via {grantRole} and {revokeRole}: this function's purpose is to provide a mechanism for accounts to lose their privileges if they are compromised (such as when a trusted device is misplaced). If the calling account had been revoked `role`, emits a {RoleRevoked} event. Requirements: - the caller must be `account`. May emit a {RoleRevoked} event."
      },
      "revokeRole(bytes32,address)": {
        "details": "Revokes `role` from `account`. If `account` had been granted `role`, emits a {RoleRevoked} event. Requirements: - the caller must have ``role``'s admin role. May emit a {RoleRevoked} event."
      },
      "supportsInterface(bytes4)": {
        "details": "See {IERC165-supportsInterface}."
      }
    },
    "version": 1
  },
  "userdoc": {
    "kind": "user",
    "methods": {},
    "version": 1
  },
  "storageLayout": {
    "storage": [
      {
        "astId": 24,
        "contract": "src/contracts/adapters/KyberElasticAdapter.sol:KyberElasticAdapter",
        "label": "_roles",
        "offset": 0,
        "slot": "0",
        "type": "t_mapping(t_bytes32,t_struct(RoleData)19_storage)"
      },
      {
        "astId": 1451,
        "contract": "src/contracts/adapters/KyberElasticAdapter.sol:KyberElasticAdapter",
        "label": "swapGasEstimate",
        "offset": 0,
        "slot": "1",
        "type": "t_uint256"
      },
      {
        "astId": 1453,
        "contract": "src/contracts/adapters/KyberElasticAdapter.sol:KyberElasticAdapter",
        "label": "name",
        "offset": 0,
        "slot": "2",
        "type": "t_string_storage"
      },
      {
        "astId": 13959,
        "contract": "src/contracts/adapters/KyberElasticAdapter.sol:KyberElasticAdapter",
        "label": "quoterGasLimit",
        "offset": 0,
        "slot": "3",
        "type": "t_uint256"
      },
      {
        "astId": 13961,
        "contract": "src/contracts/adapters/KyberElasticAdapter.sol:KyberElasticAdapter",
        "label": "quoter",
        "offset": 0,
        "slot": "4",
        "type": "t_address"
      },
      {
        "astId": 10919,
        "contract": "src/contracts/adapters/KyberElasticAdapter.sol:KyberElasticAdapter",
        "label": "tknsToPoolWL",
        "offset": 0,
        "slot": "5",
        "type": "t_mapping(t_address,t_mapping(t_address,t_address))"
      }
    ],
    "types": {
      "t_address": {
        "encoding": "inplace",
        "label": "address",
        "numberOfBytes": "20"
      },
      "t_bool": {
        "encoding": "inplace",
        "label": "bool",
        "numberOfBytes": "1"
      },
      "t_bytes32": {
        "encoding": "inplace",
        "label": "bytes32",
        "numberOfBytes": "32"
      },
      "t_mapping(t_address,t_address)": {
        "encoding": "mapping",
        "key": "t_address",
        "label": "mapping(address => address)",
        "numberOfBytes": "32",
        "value": "t_address"
      },
      "t_mapping(t_address,t_bool)": {
        "encoding": "mapping",
        "key": "t_address",
        "label": "mapping(address => bool)",
        "numberOfBytes": "32",
        "value": "t_bool"
      },
      "t_mapping(t_address,t_mapping(t_address,t_address))": {
        "encoding": "mapping",
        "key": "t_address",
        "label": "mapping(address => mapping(address => address))",
        "numberOfBytes": "32",
        "value": "t_mapping(t_address,t_address)"
      },
      "t_mapping(t_bytes32,t_struct(RoleData)19_storage)": {
        "encoding": "mapping",
        "key": "t_bytes32",
        "label": "mapping(bytes32 => struct AccessControl.RoleData)",
        "numberOfBytes": "32",
        "value": "t_struct(RoleData)19_storage"
      },
      "t_string_storage": {
        "encoding": "bytes",
        "label": "string",
        "numberOfBytes": "32"
      },
      "t_struct(RoleData)19_storage": {
        "encoding": "inplace",
        "label": "struct AccessControl.RoleData",
        "members": [
          {
            "astId": 16,
            "contract": "src/contracts/adapters/KyberElasticAdapter.sol:KyberElasticAdapter",
            "label": "members",
            "offset": 0,
            "slot": "0",
            "type": "t_mapping(t_address,t_bool)"
          },
          {
            "astId": 18,
            "contract": "src/contracts/adapters/KyberElasticAdapter.sol:KyberElasticAdapter",
            "label": "adminRole",
            "offset": 0,
            "slot": "1",
            "type": "t_bytes32"
          }
        ],
        "numberOfBytes": "64"
      },
      "t_uint256": {
        "encoding": "inplace",
        "label": "uint256",
        "numberOfBytes": "32"
      }
    }
  }
}