{
  "address": "0xAB37c0c4209D1FfD65dED908ED27D735D80Ffed4",
  "abi": [
    {
      "inputs": [
        {
          "internalType": "string",
          "name": "_name",
          "type": "string"
        },
        {
          "internalType": "address[]",
          "name": "_pools",
          "type": "address[]"
        },
        {
          "internalType": "uint256",
          "name": "_swapGasEstimate",
          "type": "uint256"
        }
      ],
      "stateMutability": "nonpayable",
      "type": "constructor"
    },
    {
      "anonymous": false,
      "inputs": [
        {
          "indexed": true,
          "internalType": "address",
          "name": "_asset",
          "type": "address"
        },
        {
          "indexed": false,
          "internalType": "uint256",
          "name": "amount",
          "type": "uint256"
        }
      ],
      "name": "Recovered",
      "type": "event"
    },
    {
      "anonymous": false,
      "inputs": [
        {
          "indexed": true,
          "internalType": "bytes32",
          "name": "role",
          "type": "bytes32"
        },
        {
          "indexed": true,
          "internalType": "bytes32",
          "name": "previousAdminRole",
          "type": "bytes32"
        },
        {
          "indexed": true,
          "internalType": "bytes32",
          "name": "newAdminRole",
          "type": "bytes32"
        }
      ],
      "name": "RoleAdminChanged",
      "type": "event"
    },
    {
      "anonymous": false,
      "inputs": [
        {
          "indexed": true,
          "internalType": "bytes32",
          "name": "role",
          "type": "bytes32"
        },
        {
          "indexed": true,
          "internalType": "address",
          "name": "account",
          "type": "address"
        },
        {
          "indexed": true,
          "internalType": "address",
          "name": "sender",
          "type": "address"
        }
      ],
      "name": "RoleGranted",
      "type": "event"
    },
    {
      "anonymous": false,
      "inputs": [
        {
          "indexed": true,
          "internalType": "bytes32",
          "name": "role",
          "type": "bytes32"
        },
        {
          "indexed": true,
          "internalType": "address",
          "name": "account",
          "type": "address"
        },
        {
          "indexed": true,
          "internalType": "address",
          "name": "sender",
          "type": "address"
        }
      ],
      "name": "RoleRevoked",
      "type": "event"
    },
    {
      "anonymous": false,
      "inputs": [
        {
          "indexed": true,
          "internalType": "address",
          "name": "_adapter",
          "type": "address"
        },
        {
          "indexed": false,
          "internalType": "uint256",
          "name": "_newEstimate",
          "type": "uint256"
        }
      ],
      "name": "UpdatedGasEstimate",
      "type": "event"
    },
    {
      "anonymous": false,
      "inputs": [
        {
          "indexed": true,
          "internalType": "address",
          "name": "_tokenFrom",
          "type": "address"
        },
        {
          "indexed": true,
          "internalType": "address",
          "name": "_tokenTo",
          "type": "address"
        },
        {
          "indexed": false,
          "internalType": "uint256",
          "name": "_amountIn",
          "type": "uint256"
        },
        {
          "indexed": false,
          "internalType": "uint256",
          "name": "_amountOut",
          "type": "uint256"
        }
      ],
      "name": "YakAdapterSwap",
      "type": "event"
    },
    {
      "inputs": [],
      "name": "DEFAULT_ADMIN_ROLE",
      "outputs": [
        {
          "internalType": "bytes32",
          "name": "",
          "type": "bytes32"
        }
      ],
      "stateMutability": "view",
      "type": "function"
    },
    {
      "inputs": [],
      "name": "MAINTAINER_ROLE",
      "outputs": [
        {
          "internalType": "bytes32",
          "name": "",
          "type": "bytes32"
        }
      ],
      "stateMutability": "view",
      "type": "function"
    },
    {
      "inputs": [],
      "name": "PRECISION",
      "outputs": [
        {
          "internalType": "uint256",
          "name": "",
          "type": "uint256"
        }
      ],
      "stateMutability": "view",
      "type": "function"
    },
    {
      "inputs": [
        {
          "internalType": "address",
          "name": "addedMaintainer",
          "type": "address"
        }
      ],
      "name": "addMaintainer",
      "outputs": [],
      "stateMutability": "nonpayable",
      "type": "function"
    },
    {
      "inputs": [
        {
          "internalType": "address[]",
          "name": "_pools",
          "type": "address[]"
        }
      ],
      "name": "addPools",
      "outputs": [],
      "stateMutability": "nonpayable",
      "type": "function"
    },
    {
      "inputs": [
        {
          "internalType": "address",
          "name": "tkn0",
          "type": "address"
        },
        {
          "internalType": "address",
          "name": "tkn1",
          "type": "address"
        }
      ],
      "name": "getPool",
      "outputs": [
        {
          "internalType": "address",
          "name": "",
          "type": "address"
        }
      ],
      "stateMutability": "view",
      "type": "function"
    },
    {
      "inputs": [
        {
          "internalType": "bytes32",
          "name": "role",
          "type": "bytes32"
        }
      ],
      "name": "getRoleAdmin",
      "outputs": [
        {
          "internalType": "bytes32",
          "name": "",
          "type": "bytes32"
        }
      ],
      "stateMutability": "view",
      "type": "function"
    },
    {
      "inputs": [
        {
          "internalType": "bytes32",
          "name": "role",
          "type": "bytes32"
        },
        {
          "internalType": "address",
          "name": "account",
          "type": "address"
        }
      ],
      "name": "grantRole",
      "outputs": [],
      "stateMutability": "nonpayable",
      "type": "function"
    },
    {
      "inputs": [
        {
          "internalType": "bytes32",
          "name": "role",
          "type": "bytes32"
        },
        {
          "internalType": "address",
          "name": "account",
          "type": "address"
        }
      ],
      "name": "hasRole",
      "outputs": [
        {
          "internalType": "bool",
          "name": "",
          "type": "bool"
        }
      ],
      "stateMutability": "view",
      "type": "function"
    },
    {
      "inputs": [],
      "name": "name",
      "outputs": [
        {
          "internalType": "string",
          "name": "",
          "type": "string"
        }
      ],
      "stateMutability": "view",
      "type": "function"
    },
    {
      "inputs": [
        {
          "internalType": "uint256",
          "name": "_amountIn",
          "type": "uint256"
        },
        {
          "internalType": "address",
          "name": "_tokenIn",
          "type": "address"
        },
        {
          "internalType": "address",
          "name": "_tokenOut",
          "type": "address"
        }
      ],
      "name": "query",
      "outputs": [
        {
          "internalType": "uint256",
          "name": "",
          "type": "uint256"
        }
      ],
      "stateMutability": "view",
      "type": "function"
    },
    {
      "inputs": [
        {
          "internalType": "uint256",
          "name": "_amount",
          "type": "uint256"
        }
      ],
      "name": "recoverAVAX",
      "outputs": [],
      "stateMutability": "nonpayable",
      "type": "function"
    },
    {
      "inputs": [
        {
          "internalType": "address",
          "name": "_tokenAddress",
          "type": "address"
        },
        {
          "internalType": "uint256",
          "name": "_tokenAmount",
          "type": "uint256"
        }
      ],
      "name": "recoverERC20",
      "outputs": [],
      "stateMutability": "nonpayable",
      "type": "function"
    },
    {
      "inputs": [
        {
          "internalType": "address",
          "name": "removedMaintainer",
          "type": "address"
        }
      ],
      "name": "removeMaintainer",
      "outputs": [],
      "stateMutability": "nonpayable",
      "type": "function"
    },
    {
      "inputs": [
        {
          "internalType": "address[]",
          "name": "_pools",
          "type": "address[]"
        }
      ],
      "name": "removePools",
      "outputs": [],
      "stateMutability": "nonpayable",
      "type": "function"
    },
    {
      "inputs": [
        {
          "internalType": "bytes32",
          "name": "role",
          "type": "bytes32"
        },
        {
          "internalType": "address",
          "name": "account",
          "type": "address"
        }
      ],
      "name": "renounceRole",
      "outputs": [],
      "stateMutability": "nonpayable",
      "type": "function"
    },
    {
      "inputs": [
        {
          "internalType": "bytes32",
          "name": "role",
          "type": "bytes32"
        }
      ],
      "name": "renounceRole",
      "outputs": [],
      "stateMutability": "nonpayable",
      "type": "function"
    },
    {
      "inputs": [
        {
          "internalType": "address",
          "name": "_token",
          "type": "address"
        },
        {
          "internalType": "address",
          "name": "_spender",
          "type": "address"
        }
      ],
      "name": "revokeAllowance",
      "outputs": [],
      "stateMutability": "nonpayable",
      "type": "function"
    },
    {
      "inputs": [
        {
          "internalType": "bytes32",
          "name": "role",
          "type": "bytes32"
        },
        {
          "internalType": "address",
          "name": "account",
          "type": "address"
        }
      ],
      "name": "revokeRole",
      "outputs": [],
      "stateMutability": "nonpayable",
      "type": "function"
    },
    {
      "inputs": [
        {
          "internalType": "uint256",
          "name": "_estimate",
          "type": "uint256"
        }
      ],
      "name": "setSwapGasEstimate",
      "outputs": [],
      "stateMutability": "nonpayable",
      "type": "function"
    },
    {
      "inputs": [
        {
          "internalType": "bytes4",
          "name": "interfaceId",
          "type": "bytes4"
        }
      ],
      "name": "supportsInterface",
      "outputs": [
        {
          "internalType": "bool",
          "name": "",
          "type": "bool"
        }
      ],
      "stateMutability": "view",
      "type": "function"
    },
    {
      "inputs": [
        {
          "internalType": "uint256",
          "name": "_amountIn",
          "type": "uint256"
        },
        {
          "internalType": "uint256",
          "name": "_amountOut",
          "type": "uint256"
        },
        {
          "internalType": "address",
          "name": "_fromToken",
          "type": "address"
        },
        {
          "internalType": "address",
          "name": "_toToken",
          "type": "address"
        },
        {
          "internalType": "address",
          "name": "_to",
          "type": "address"
        }
      ],
      "name": "swap",
      "outputs": [],
      "stateMutability": "nonpayable",
      "type": "function"
    },
    {
      "inputs": [],
      "name": "swapGasEstimate",
      "outputs": [
        {
          "internalType": "uint256",
          "name": "",
          "type": "uint256"
        }
      ],
      "stateMutability": "view",
      "type": "function"
    },
    {
      "inputs": [
        {
          "internalType": "address",
          "name": "newOwner",
          "type": "address"
        }
      ],
      "name": "transferOwnership",
      "outputs": [],
      "stateMutability": "nonpayable",
      "type": "function"
    },
    {
      "stateMutability": "payable",
      "type": "receive"
    }
  ],
  "transactionHash": "0xcc1cd84e920d354bfeb4651864fb70b4839264a4d2292fed88de8546c1f65904",
  "args": [
    "KyberAdapter",
    [
      "0x6a4d5f8385ff6e7fc4ebf6f726e12a958daa1cba"
    ],
    182000
  ],
  "solcInputHash": "3d31bd7e10bf3531f6c263bc3f164c5d",
  "bytecode": "0x60806040523480156200001157600080fd5b5060405162002b2b38038062002b2b8339810160408190526200003491620006d5565b828133620000446000826200009e565b620000707f339759585899103d2ace64958e37e18ccb0504652c81d4a1b8aa80fe2126ab95826200009e565b506200007c82620000ae565b620000878162000117565b506200009590508262000213565b5050506200086a565b620000aa8282620004ba565b5050565b8051620001025760405162461bcd60e51b815260206004820152601460248201527f496e76616c69642061646170746572206e616d6500000000000000000000000060448201526064015b60405180910390fd5b8051620000aa9060029060208401906200055a565b33600081815260008051602062002aeb833981519152602052604090205460ff16620001865760405162461bcd60e51b8152602060048201526028602482015260008051602062002b0b83398151915260448201526734b73a30b4b732b960c11b6064820152608401620000f9565b81620001d55760405162461bcd60e51b815260206004820152601460248201527f496e76616c6964206761732d657374696d6174650000000000000000000000006044820152606401620000f9565b600182905560405182815230907ff43f23b7a28e6f8ce6843a21bd7b48bce778aa913b8c8cf459edf7d770e8d38a9060200160405180910390a25050565b33600081815260008051602062002aeb833981519152602052604090205460ff16620002825760405162461bcd60e51b8152602060048201526028602482015260008051602062002b0b83398151915260448201526734b73a30b4b732b960c11b6064820152608401620000f9565b60005b8251811015620004b5576000838281518110620002b257634e487b7160e01b600052603260045260246000fd5b60200260200101516001600160a01b0316630dfe16816040518163ffffffff1660e01b815260040160206040518083038186803b158015620002f357600080fd5b505afa15801562000308573d6000803e3d6000fd5b505050506040513d601f19601f820116820180604052508101906200032e9190620006b1565b905060008483815181106200035357634e487b7160e01b600052603260045260246000fd5b60200260200101516001600160a01b031663d21220a76040518163ffffffff1660e01b815260040160206040518083038186803b1580156200039457600080fd5b505afa158015620003a9573d6000803e3d6000fd5b505050506040513d601f19601f82011682018060405250810190620003cf9190620006b1565b9050848381518110620003f257634e487b7160e01b600052603260045260246000fd5b6020908102919091018101516001600160a01b03848116600090815260038452604080822086841683529094529290922080546001600160a01b0319169290911691909117905584518590849081106200045c57634e487b7160e01b600052603260045260246000fd5b6020908102919091018101516001600160a01b03928316600090815260038352604080822095851682529490925292902080546001600160a01b0319169190921617905580620004ac816200082c565b91505062000285565b505050565b6000828152602081815260408083206001600160a01b038516845290915290205460ff16620000aa576000828152602081815260408083206001600160a01b03851684529091529020805460ff19166001179055620005163390565b6001600160a01b0316816001600160a01b0316837f2f8788117e7eff1d82e926ec794901d17c78024a50270940304540a733656f0d60405160405180910390a45050565b8280546200056890620007ef565b90600052602060002090601f0160209004810192826200058c5760008555620005d7565b82601f10620005a757805160ff1916838001178555620005d7565b82800160010185558215620005d7579182015b82811115620005d7578251825591602001919060010190620005ba565b50620005e5929150620005e9565b5090565b5b80821115620005e55760008155600101620005ea565b80516001600160a01b03811681146200061857600080fd5b919050565b600082601f8301126200062e578081fd5b815160206001600160401b038211156200064c576200064c62000854565b8160051b6200065d828201620007bc565b83815282810190868401838801850189101562000678578687fd5b8693505b85841015620006a557620006908162000600565b8352600193909301929184019184016200067c565b50979650505050505050565b600060208284031215620006c3578081fd5b620006ce8262000600565b9392505050565b600080600060608486031215620006ea578182fd5b83516001600160401b038082111562000701578384fd5b818601915086601f83011262000715578384fd5b8151818111156200072a576200072a62000854565b602062000740601f8301601f19168201620007bc565b828152898284870101111562000754578687fd5b865b838110156200077357858101830151828201840152820162000756565b838111156200078457878385840101525b5090880151909650925050808211156200079c578384fd5b50620007ab868287016200061d565b925050604084015190509250925092565b604051601f8201601f191681016001600160401b0381118282101715620007e757620007e762000854565b604052919050565b600181811c908216806200080457607f821691505b602082108114156200082657634e487b7160e01b600052602260045260246000fd5b50919050565b60006000198214156200084d57634e487b7160e01b81526011600452602481fd5b5060010190565b634e487b7160e01b600052604160045260246000fd5b612271806200087a6000396000f3fe60806040526004361061018f5760003560e01c80638980f11f116100d6578063d547741f1161007f578063ef99893a11610059578063ef99893a146104ba578063f2fde38b146104da578063f8742254146104fa57600080fd5b8063d547741f1461045a578063d8baf7cf1461047a578063eab90da61461049a57600080fd5b8063a217fddf116100b0578063a217fddf14610409578063aaf5eb681461041e578063b36a4ab11461043a57600080fd5b80638980f11f146103855780638bb9c5bf146103a557806391d14854146103c557600080fd5b80634ebb7916116101385780636b453c1f116101125780636b453c1f146103255780637ae267731461034557806384a33e631461036557600080fd5b80634ebb791614610292578063531aa03e146102b257806369cff80d1461030f57600080fd5b80632f2ff15d116101695780632f2ff15d1461023057806336568abe146102525780634b1641401461027257600080fd5b806301ffc9a71461019b57806306fdde03146101d0578063248a9ca3146101f257600080fd5b3661019657005b600080fd5b3480156101a757600080fd5b506101bb6101b6366004611ea3565b61052e565b60405190151581526020015b60405180910390f35b3480156101dc57600080fd5b506101e5610597565b6040516101c791906120a8565b3480156101fe57600080fd5b5061022261020d366004611e67565b60009081526020819052604090206001015490565b6040519081526020016101c7565b34801561023c57600080fd5b5061025061024b366004611e7f565b610625565b005b34801561025e57600080fd5b5061025061026d366004611e7f565b61064f565b34801561027e57600080fd5b5061025061028d366004611d80565b6106e0565b34801561029e57600080fd5b506102506102ad366004611e67565b610921565b3480156102be57600080fd5b506102f76102cd366004611d1d565b6001600160a01b039182166000908152600360209081526040808320938516835292905220541690565b6040516001600160a01b0390911681526020016101c7565b34801561031b57600080fd5b5061022260015481565b34801561033157600080fd5b50610250610340366004611ce5565b610a69565b34801561035157600080fd5b50610250610360366004611d1d565b610a96565b34801561037157600080fd5b50610250610380366004611e67565b610b3a565b34801561039157600080fd5b506102506103a0366004611d55565b610c4d565b3480156103b157600080fd5b506102506103c0366004611e67565b610d88565b3480156103d157600080fd5b506101bb6103e0366004611e7f565b6000918252602082815260408084206001600160a01b0393909316845291905290205460ff1690565b34801561041557600080fd5b50610222600081565b34801561042a57600080fd5b50610222670de0b6b3a764000081565b34801561044657600080fd5b50610250610455366004611d80565b610d93565b34801561046657600080fd5b50610250610475366004611e7f565b61105f565b34801561048657600080fd5b50610250610495366004611ce5565b611084565b3480156104a657600080fd5b506102506104b5366004611f81565b6110ae565b3480156104c657600080fd5b506102226104d5366004611f40565b611273565b3480156104e657600080fd5b506102506104f5366004611ce5565b61128a565b34801561050657600080fd5b506102227f339759585899103d2ace64958e37e18ccb0504652c81d4a1b8aa80fe2126ab9581565b60006001600160e01b031982167f7965db0b00000000000000000000000000000000000000000000000000000000148061059157507f01ffc9a7000000000000000000000000000000000000000000000000000000006001600160e01b03198316145b92915050565b600280546105a4906121a4565b80601f01602080910402602001604051908101604052809291908181526020018280546105d0906121a4565b801561061d5780601f106105f25761010080835404028352916020019161061d565b820191906000526020600020905b81548152906001019060200180831161060057829003601f168201915b505050505081565b600082815260208190526040902060010154610640816112a1565b61064a83836112ab565b505050565b6001600160a01b03811633146106d25760405162461bcd60e51b815260206004820152602f60248201527f416363657373436f6e74726f6c3a2063616e206f6e6c792072656e6f756e636560448201527f20726f6c657320666f722073656c66000000000000000000000000000000000060648201526084015b60405180910390fd5b6106dc8282611349565b5050565b3360008181527fa54247010af6b3693b80aceddfad12e077c5de3571e6243fada502635f0d7d39602052604090205460ff1661076f5760405162461bcd60e51b815260206004820152602860248201527f4d61696e7461696e61626c653a2043616c6c6572206973206e6f742061206d6160448201526734b73a30b4b732b960c11b60648201526084016106c9565b60005b825181101561064a57600083828151811061079d57634e487b7160e01b600052603260045260246000fd5b60200260200101516001600160a01b0316630dfe16816040518163ffffffff1660e01b815260040160206040518083038186803b1580156107dd57600080fd5b505afa1580156107f1573d6000803e3d6000fd5b505050506040513d601f19601f820116820180604052508101906108159190611d01565b9050600084838151811061083957634e487b7160e01b600052603260045260246000fd5b60200260200101516001600160a01b031663d21220a76040518163ffffffff1660e01b815260040160206040518083038186803b15801561087957600080fd5b505afa15801561088d573d6000803e3d6000fd5b505050506040513d601f19601f820116820180604052508101906108b19190611d01565b6001600160a01b039283166000818152600360208181526040808420979095168352958652838220805473ffffffffffffffffffffffffffffffffffffffff1990811690915590865283822092825291909452922080549092169091555080610919816121df565b915050610772565b3360008181527fa54247010af6b3693b80aceddfad12e077c5de3571e6243fada502635f0d7d39602052604090205460ff166109b05760405162461bcd60e51b815260206004820152602860248201527f4d61696e7461696e61626c653a2043616c6c6572206973206e6f742061206d6160448201526734b73a30b4b732b960c11b60648201526084016106c9565b60008211610a005760405162461bcd60e51b815260206004820152601e60248201527f59616b416461707465723a204e6f7468696e6720746f207265636f766572000060448201526064016106c9565b604051339083156108fc029084906000818181858888f19350505050158015610a2d573d6000803e3d6000fd5b506040518281526000907f8c1256b8896378cd5044f80c202f9772b9d77dc85c8a6eb51967210b09bfaa28906020015b60405180910390a25050565b610a937f339759585899103d2ace64958e37e18ccb0504652c81d4a1b8aa80fe2126ab9582610625565b50565b3360008181527fa54247010af6b3693b80aceddfad12e077c5de3571e6243fada502635f0d7d39602052604090205460ff16610b255760405162461bcd60e51b815260206004820152602860248201527f4d61696e7461696e61626c653a2043616c6c6572206973206e6f742061206d6160448201526734b73a30b4b732b960c11b60648201526084016106c9565b61064a6001600160a01b0384168360006113c8565b3360008181527fa54247010af6b3693b80aceddfad12e077c5de3571e6243fada502635f0d7d39602052604090205460ff16610bc95760405162461bcd60e51b815260206004820152602860248201527f4d61696e7461696e61626c653a2043616c6c6572206973206e6f742061206d6160448201526734b73a30b4b732b960c11b60648201526084016106c9565b81610c165760405162461bcd60e51b815260206004820152601460248201527f496e76616c6964206761732d657374696d61746500000000000000000000000060448201526064016106c9565b600182905560405182815230907ff43f23b7a28e6f8ce6843a21bd7b48bce778aa913b8c8cf459edf7d770e8d38a90602001610a5d565b3360008181527fa54247010af6b3693b80aceddfad12e077c5de3571e6243fada502635f0d7d39602052604090205460ff16610cdc5760405162461bcd60e51b815260206004820152602860248201527f4d61696e7461696e61626c653a2043616c6c6572206973206e6f742061206d6160448201526734b73a30b4b732b960c11b60648201526084016106c9565b60008211610d2c5760405162461bcd60e51b815260206004820152601e60248201527f59616b416461707465723a204e6f7468696e6720746f207265636f766572000060448201526064016106c9565b610d406001600160a01b038416338461156d565b826001600160a01b03167f8c1256b8896378cd5044f80c202f9772b9d77dc85c8a6eb51967210b09bfaa2883604051610d7b91815260200190565b60405180910390a2505050565b336106dc828261064f565b3360008181527fa54247010af6b3693b80aceddfad12e077c5de3571e6243fada502635f0d7d39602052604090205460ff16610e225760405162461bcd60e51b815260206004820152602860248201527f4d61696e7461696e61626c653a2043616c6c6572206973206e6f742061206d6160448201526734b73a30b4b732b960c11b60648201526084016106c9565b60005b825181101561064a576000838281518110610e5057634e487b7160e01b600052603260045260246000fd5b60200260200101516001600160a01b0316630dfe16816040518163ffffffff1660e01b815260040160206040518083038186803b158015610e9057600080fd5b505afa158015610ea4573d6000803e3d6000fd5b505050506040513d601f19601f82011682018060405250810190610ec89190611d01565b90506000848381518110610eec57634e487b7160e01b600052603260045260246000fd5b60200260200101516001600160a01b031663d21220a76040518163ffffffff1660e01b815260040160206040518083038186803b158015610f2c57600080fd5b505afa158015610f40573d6000803e3d6000fd5b505050506040513d601f19601f82011682018060405250810190610f649190611d01565b9050848381518110610f8657634e487b7160e01b600052603260045260246000fd5b6020908102919091018101516001600160a01b038481166000908152600384526040808220868416835290945292909220805473ffffffffffffffffffffffffffffffffffffffff1916929091169190911790558451859084908110610ffc57634e487b7160e01b600052603260045260246000fd5b6020908102919091018101516001600160a01b039283166000908152600383526040808220958516825294909252929020805473ffffffffffffffffffffffffffffffffffffffff19169190921617905580611057816121df565b915050610e25565b60008281526020819052604090206001015461107a816112a1565b61064a8383611349565b610a937f339759585899103d2ace64958e37e18ccb0504652c81d4a1b8aa80fe2126ab958261105f565b6040516370a0823160e01b81526001600160a01b038281166004830152600091908416906370a082319060240160206040518083038186803b1580156110f357600080fd5b505afa158015611107573d6000803e3d6000fd5b505050506040513d601f19601f8201168201806040525081019061112b9190611f28565b905061113a86868686866115b6565b6040516370a0823160e01b81526001600160a01b03838116600483015260009183918616906370a082319060240160206040518083038186803b15801561118057600080fd5b505afa158015611194573d6000803e3d6000fd5b505050506040513d601f19601f820116820180604052508101906111b89190611f28565b6111c2919061214a565b9050858110156112145760405162461bcd60e51b815260206004820152601760248201527f496e73756666696369656e7420616d6f756e742d6f757400000000000000000060448201526064016106c9565b836001600160a01b0316856001600160a01b03167fe2bdbc6b7225eb0a972ac943c485a6cc05f7c6811838bce8903f23200fb744fa8989604051611262929190918252602082015260400190565b60405180910390a350505050505050565b60006112808484846116a3565b90505b9392505050565b33611296600083610625565b6106dc60008261064f565b610a938133611872565b6000828152602081815260408083206001600160a01b038516845290915290205460ff166106dc576000828152602081815260408083206001600160a01b03851684529091529020805460ff191660011790556113053390565b6001600160a01b0316816001600160a01b0316837f2f8788117e7eff1d82e926ec794901d17c78024a50270940304540a733656f0d60405160405180910390a45050565b6000828152602081815260408083206001600160a01b038516845290915290205460ff16156106dc576000828152602081815260408083206001600160a01b0385168085529252808320805460ff1916905551339285917ff6391f5c32d9c69d2a47ea670b442974b53935d1edc7fd64eb21e047a839171b9190a45050565b80158061146a57506040517fdd62ed3e0000000000000000000000000000000000000000000000000000000081523060048201526001600160a01b03838116602483015284169063dd62ed3e9060440160206040518083038186803b15801561143057600080fd5b505afa158015611444573d6000803e3d6000fd5b505050506040513d601f19601f820116820180604052508101906114689190611f28565b155b6114dc5760405162461bcd60e51b815260206004820152603660248201527f5361666545524332303a20617070726f76652066726f6d206e6f6e2d7a65726f60448201527f20746f206e6f6e2d7a65726f20616c6c6f77616e63650000000000000000000060648201526084016106c9565b6040516001600160a01b03831660248201526044810182905261064a9084907f095ea7b300000000000000000000000000000000000000000000000000000000906064015b60408051601f198184030181529190526020810180517bffffffffffffffffffffffffffffffffffffffffffffffffffffffff166001600160e01b0319909316929092179091526118f0565b6040516001600160a01b03831660248201526044810182905261064a9084907fa9059cbb0000000000000000000000000000000000000000000000000000000090606401611521565b6001600160a01b03838116600081815260036020908152604080832087861680855292528220549093169290918291116115f2578660006115f6565b6000875b909250905061160f6001600160a01b038716848a61156d565b604080516000815260208101918290527f022c0d9f000000000000000000000000000000000000000000000000000000009091526001600160a01b0384169063022c0d9f9061166790859085908990602481016120bb565b600060405180830381600087803b15801561168157600080fd5b505af1158015611695573d6000803e3d6000fd5b505050505050505050505050565b6000816001600160a01b0316836001600160a01b031614806116c3575083155b156116d057506000611283565b6001600160a01b03838116600090815260036020908152604080832086851684529091529020541680611707576000915050611283565b6000806000806000856001600160a01b031663d66940276040518163ffffffff1660e01b815260040160a06040518083038186803b15801561174857600080fd5b505afa15801561175c573d6000803e3d6000fd5b505050506040513d601f19601f820116820180604052508101906117809190611ecb565b94509450945094509450600080896001600160a01b03168b6001600160a01b0316106117ad5785876117b0565b86865b915091506000808b6001600160a01b03168d6001600160a01b0316106117d75785876117da565b86865b915091506000846dffffffffffffffffffffffffffff1611801561180e57506000836dffffffffffffffffffffffffffff16115b156118615760006118418f846dffffffffffffffffffffffffffff16846dffffffffffffffffffffffffffff1689611a32565b90508b846dffffffffffffffffffffffffffff16111561185f57809b505b505b505050505050505050509392505050565b6000828152602081815260408083206001600160a01b038516845290915290205460ff166106dc576118ae816001600160a01b03166014611a90565b6118b9836020611a90565b6040516020016118ca929190612027565b60408051601f198184030181529082905262461bcd60e51b82526106c9916004016120a8565b600080836001600160a01b03168360405161190b919061200b565b6000604051808303816000865af19150503d8060008114611948576040519150601f19603f3d011682016040523d82523d6000602084013e61194d565b606091505b50915091508161199f5760405162461bcd60e51b815260206004820181905260248201527f5361666545524332303a206c6f772d6c6576656c2063616c6c206661696c656460448201526064016106c9565b805115611a2c57808060200190518101906119ba9190611e47565b611a2c5760405162461bcd60e51b815260206004820152602a60248201527f5361666545524332303a204552433230206f7065726174696f6e20646964206e60448201527f6f7420737563636565640000000000000000000000000000000000000000000060648201526084016106c9565b50505050565b600080670de0b6b3a7640000611a48848261214a565b611a52908861212b565b611a5c919061210b565b90506000611a6a858361212b565b90506000611a7883886120f3565b9050611a84818361210b565b98975050505050505050565b60606000611a9f83600261212b565b611aaa9060026120f3565b67ffffffffffffffff811115611ad057634e487b7160e01b600052604160045260246000fd5b6040519080825280601f01601f191660200182016040528015611afa576020820181803683370190505b5090507f300000000000000000000000000000000000000000000000000000000000000081600081518110611b3f57634e487b7160e01b600052603260045260246000fd5b60200101906001600160f81b031916908160001a9053507f780000000000000000000000000000000000000000000000000000000000000081600181518110611b9857634e487b7160e01b600052603260045260246000fd5b60200101906001600160f81b031916908160001a9053506000611bbc84600261212b565b611bc79060016120f3565b90505b6001811115611c68577f303132333435363738396162636465660000000000000000000000000000000085600f1660108110611c1657634e487b7160e01b600052603260045260246000fd5b1a60f81b828281518110611c3a57634e487b7160e01b600052603260045260246000fd5b60200101906001600160f81b031916908160001a90535060049490941c93611c618161218d565b9050611bca565b5083156112835760405162461bcd60e51b815260206004820181905260248201527f537472696e67733a20686578206c656e67746820696e73756666696369656e7460448201526064016106c9565b8035611cc281612226565b919050565b80516dffffffffffffffffffffffffffff81168114611cc257600080fd5b600060208284031215611cf6578081fd5b813561128381612226565b600060208284031215611d12578081fd5b815161128381612226565b60008060408385031215611d2f578081fd5b8235611d3a81612226565b91506020830135611d4a81612226565b809150509250929050565b60008060408385031215611d67578182fd5b8235611d7281612226565b946020939093013593505050565b60006020808385031215611d92578182fd5b823567ffffffffffffffff80821115611da9578384fd5b818501915085601f830112611dbc578384fd5b813581811115611dce57611dce612210565b8060051b604051601f19603f83011681018181108582111715611df357611df3612210565b604052828152858101935084860182860187018a1015611e11578788fd5b8795505b83861015611e3a57611e2681611cb7565b855260019590950194938601938601611e15565b5098975050505050505050565b600060208284031215611e58578081fd5b81518015158114611283578182fd5b600060208284031215611e78578081fd5b5035919050565b60008060408385031215611e91578182fd5b823591506020830135611d4a81612226565b600060208284031215611eb4578081fd5b81356001600160e01b031981168114611283578182fd5b600080600080600060a08688031215611ee2578081fd5b611eeb86611cc7565b9450611ef960208701611cc7565b9350611f0760408701611cc7565b9250611f1560608701611cc7565b9150608086015190509295509295909350565b600060208284031215611f39578081fd5b5051919050565b600080600060608486031215611f54578283fd5b833592506020840135611f6681612226565b91506040840135611f7681612226565b809150509250925092565b600080600080600060a08688031215611f98578081fd5b85359450602086013593506040860135611fb181612226565b92506060860135611fc181612226565b91506080860135611fd181612226565b809150509295509295909350565b60008151808452611ff7816020860160208601612161565b601f01601f19169290920160200192915050565b6000825161201d818460208701612161565b9190910192915050565b7f416363657373436f6e74726f6c3a206163636f756e742000000000000000000081526000835161205f816017850160208801612161565b7f206973206d697373696e6720726f6c6520000000000000000000000000000000601791840191820152835161209c816028840160208801612161565b01602801949350505050565b6020815260006112836020830184611fdf565b8481528360208201526001600160a01b03831660408201526080606082015260006120e96080830184611fdf565b9695505050505050565b60008219821115612106576121066121fa565b500190565b60008261212657634e487b7160e01b81526012600452602481fd5b500490565b6000816000190483118215151615612145576121456121fa565b500290565b60008282101561215c5761215c6121fa565b500390565b60005b8381101561217c578181015183820152602001612164565b83811115611a2c5750506000910152565b60008161219c5761219c6121fa565b506000190190565b600181811c908216806121b857607f821691505b602082108114156121d957634e487b7160e01b600052602260045260246000fd5b50919050565b60006000198214156121f3576121f36121fa565b5060010190565b634e487b7160e01b600052601160045260246000fd5b634e487b7160e01b600052604160045260246000fd5b6001600160a01b0381168114610a9357600080fdfea26469706673582212208e0ab7b357485573add623a1c9637e55d4035f58c42d35d2416dc1a1a02f4daa64736f6c63430008040033a54247010af6b3693b80aceddfad12e077c5de3571e6243fada502635f0d7d394d61696e7461696e61626c653a2043616c6c6572206973206e6f742061206d61",
  "devdoc": {
    "kind": "dev",
    "methods": {
      "getRoleAdmin(bytes32)": {
        "details": "Returns the admin role that controls `role`. See {grantRole} and {revokeRole}. To change a role's admin, use {_setRoleAdmin}."
      },
      "grantRole(bytes32,address)": {
        "details": "Grants `role` to `account`. If `account` had not been already granted `role`, emits a {RoleGranted} event. Requirements: - the caller must have ``role``'s admin role. May emit a {RoleGranted} event."
      },
      "hasRole(bytes32,address)": {
        "details": "Returns `true` if `account` has been granted `role`."
      },
      "renounceRole(bytes32,address)": {
        "details": "Revokes `role` from the calling account. Roles are often managed via {grantRole} and {revokeRole}: this function's purpose is to provide a mechanism for accounts to lose their privileges if they are compromised (such as when a trusted device is misplaced). If the calling account had been revoked `role`, emits a {RoleRevoked} event. Requirements: - the caller must be `account`. May emit a {RoleRevoked} event."
      },
      "revokeRole(bytes32,address)": {
        "details": "Revokes `role` from `account`. If `account` had been granted `role`, emits a {RoleRevoked} event. Requirements: - the caller must have ``role``'s admin role. May emit a {RoleRevoked} event."
      },
      "supportsInterface(bytes4)": {
        "details": "See {IERC165-supportsInterface}."
      }
    },
    "version": 1
  },
  "userdoc": {
    "kind": "user",
    "methods": {},
    "version": 1
  },
  "storageLayout": {
    "storage": [
      {
        "astId": 24,
        "contract": "src/contracts/adapters/KyberAdapter.sol:KyberAdapter",
        "label": "_roles",
        "offset": 0,
        "slot": "0",
        "type": "t_mapping(t_bytes32,t_struct(RoleData)19_storage)"
      },
      {
        "astId": 1451,
        "contract": "src/contracts/adapters/KyberAdapter.sol:KyberAdapter",
        "label": "swapGasEstimate",
        "offset": 0,
        "slot": "1",
        "type": "t_uint256"
      },
      {
        "astId": 1453,
        "contract": "src/contracts/adapters/KyberAdapter.sol:KyberAdapter",
        "label": "name",
        "offset": 0,
        "slot": "2",
        "type": "t_string_storage"
      },
      {
        "astId": 10492,
        "contract": "src/contracts/adapters/KyberAdapter.sol:KyberAdapter",
        "label": "TKNS_TO_POOL",
        "offset": 0,
        "slot": "3",
        "type": "t_mapping(t_address,t_mapping(t_address,t_address))"
      }
    ],
    "types": {
      "t_address": {
        "encoding": "inplace",
        "label": "address",
        "numberOfBytes": "20"
      },
      "t_bool": {
        "encoding": "inplace",
        "label": "bool",
        "numberOfBytes": "1"
      },
      "t_bytes32": {
        "encoding": "inplace",
        "label": "bytes32",
        "numberOfBytes": "32"
      },
      "t_mapping(t_address,t_address)": {
        "encoding": "mapping",
        "key": "t_address",
        "label": "mapping(address => address)",
        "numberOfBytes": "32",
        "value": "t_address"
      },
      "t_mapping(t_address,t_bool)": {
        "encoding": "mapping",
        "key": "t_address",
        "label": "mapping(address => bool)",
        "numberOfBytes": "32",
        "value": "t_bool"
      },
      "t_mapping(t_address,t_mapping(t_address,t_address))": {
        "encoding": "mapping",
        "key": "t_address",
        "label": "mapping(address => mapping(address => address))",
        "numberOfBytes": "32",
        "value": "t_mapping(t_address,t_address)"
      },
      "t_mapping(t_bytes32,t_struct(RoleData)19_storage)": {
        "encoding": "mapping",
        "key": "t_bytes32",
        "label": "mapping(bytes32 => struct AccessControl.RoleData)",
        "numberOfBytes": "32",
        "value": "t_struct(RoleData)19_storage"
      },
      "t_string_storage": {
        "encoding": "bytes",
        "label": "string",
        "numberOfBytes": "32"
      },
      "t_struct(RoleData)19_storage": {
        "encoding": "inplace",
        "label": "struct AccessControl.RoleData",
        "members": [
          {
            "astId": 16,
            "contract": "src/contracts/adapters/KyberAdapter.sol:KyberAdapter",
            "label": "members",
            "offset": 0,
            "slot": "0",
            "type": "t_mapping(t_address,t_bool)"
          },
          {
            "astId": 18,
            "contract": "src/contracts/adapters/KyberAdapter.sol:KyberAdapter",
            "label": "adminRole",
            "offset": 0,
            "slot": "1",
            "type": "t_bytes32"
          }
        ],
        "numberOfBytes": "64"
      },
      "t_uint256": {
        "encoding": "inplace",
        "label": "uint256",
        "numberOfBytes": "32"
      }
    }
  }
}