{
  "address": "0xfedc85A3E5c0Ec2eD7F7c7986b0E4d518bF40Ca4",
  "abi": [
    {
      "inputs": [
        {
          "internalType": "string",
          "name": "_name",
          "type": "string"
        },
        {
          "internalType": "uint256",
          "name": "_swapGasEstimate",
          "type": "uint256"
        },
        {
          "internalType": "address",
          "name": "_router",
          "type": "address"
        }
      ],
      "stateMutability": "nonpayable",
      "type": "constructor"
    },
    {
      "anonymous": false,
      "inputs": [
        {
          "indexed": true,
          "internalType": "address",
          "name": "_asset",
          "type": "address"
        },
        {
          "indexed": false,
          "internalType": "uint256",
          "name": "amount",
          "type": "uint256"
        }
      ],
      "name": "Recovered",
      "type": "event"
    },
    {
      "anonymous": false,
      "inputs": [
        {
          "indexed": true,
          "internalType": "bytes32",
          "name": "role",
          "type": "bytes32"
        },
        {
          "indexed": true,
          "internalType": "bytes32",
          "name": "previousAdminRole",
          "type": "bytes32"
        },
        {
          "indexed": true,
          "internalType": "bytes32",
          "name": "newAdminRole",
          "type": "bytes32"
        }
      ],
      "name": "RoleAdminChanged",
      "type": "event"
    },
    {
      "anonymous": false,
      "inputs": [
        {
          "indexed": true,
          "internalType": "bytes32",
          "name": "role",
          "type": "bytes32"
        },
        {
          "indexed": true,
          "internalType": "address",
          "name": "account",
          "type": "address"
        },
        {
          "indexed": true,
          "internalType": "address",
          "name": "sender",
          "type": "address"
        }
      ],
      "name": "RoleGranted",
      "type": "event"
    },
    {
      "anonymous": false,
      "inputs": [
        {
          "indexed": true,
          "internalType": "bytes32",
          "name": "role",
          "type": "bytes32"
        },
        {
          "indexed": true,
          "internalType": "address",
          "name": "account",
          "type": "address"
        },
        {
          "indexed": true,
          "internalType": "address",
          "name": "sender",
          "type": "address"
        }
      ],
      "name": "RoleRevoked",
      "type": "event"
    },
    {
      "anonymous": false,
      "inputs": [
        {
          "indexed": true,
          "internalType": "address",
          "name": "_adapter",
          "type": "address"
        },
        {
          "indexed": false,
          "internalType": "uint256",
          "name": "_newEstimate",
          "type": "uint256"
        }
      ],
      "name": "UpdatedGasEstimate",
      "type": "event"
    },
    {
      "anonymous": false,
      "inputs": [
        {
          "indexed": true,
          "internalType": "address",
          "name": "_tokenFrom",
          "type": "address"
        },
        {
          "indexed": true,
          "internalType": "address",
          "name": "_tokenTo",
          "type": "address"
        },
        {
          "indexed": false,
          "internalType": "uint256",
          "name": "_amountIn",
          "type": "uint256"
        },
        {
          "indexed": false,
          "internalType": "uint256",
          "name": "_amountOut",
          "type": "uint256"
        }
      ],
      "name": "YakAdapterSwap",
      "type": "event"
    },
    {
      "inputs": [],
      "name": "DEFAULT_ADMIN_ROLE",
      "outputs": [
        {
          "internalType": "bytes32",
          "name": "",
          "type": "bytes32"
        }
      ],
      "stateMutability": "view",
      "type": "function"
    },
    {
      "inputs": [],
      "name": "FACTORY",
      "outputs": [
        {
          "internalType": "address",
          "name": "",
          "type": "address"
        }
      ],
      "stateMutability": "view",
      "type": "function"
    },
    {
      "inputs": [],
      "name": "MAINTAINER_ROLE",
      "outputs": [
        {
          "internalType": "bytes32",
          "name": "",
          "type": "bytes32"
        }
      ],
      "stateMutability": "view",
      "type": "function"
    },
    {
      "inputs": [],
      "name": "ROUTER",
      "outputs": [
        {
          "internalType": "address",
          "name": "",
          "type": "address"
        }
      ],
      "stateMutability": "view",
      "type": "function"
    },
    {
      "inputs": [
        {
          "internalType": "address",
          "name": "addedMaintainer",
          "type": "address"
        }
      ],
      "name": "addMaintainer",
      "outputs": [],
      "stateMutability": "nonpayable",
      "type": "function"
    },
    {
      "inputs": [],
      "name": "allowExternalPairs",
      "outputs": [
        {
          "internalType": "bool",
          "name": "",
          "type": "bool"
        }
      ],
      "stateMutability": "view",
      "type": "function"
    },
    {
      "inputs": [],
      "name": "allowIgnoredPairs",
      "outputs": [
        {
          "internalType": "bool",
          "name": "",
          "type": "bool"
        }
      ],
      "stateMutability": "view",
      "type": "function"
    },
    {
      "inputs": [
        {
          "internalType": "bytes32",
          "name": "role",
          "type": "bytes32"
        }
      ],
      "name": "getRoleAdmin",
      "outputs": [
        {
          "internalType": "bytes32",
          "name": "",
          "type": "bytes32"
        }
      ],
      "stateMutability": "view",
      "type": "function"
    },
    {
      "inputs": [
        {
          "internalType": "bytes32",
          "name": "role",
          "type": "bytes32"
        },
        {
          "internalType": "address",
          "name": "account",
          "type": "address"
        }
      ],
      "name": "grantRole",
      "outputs": [],
      "stateMutability": "nonpayable",
      "type": "function"
    },
    {
      "inputs": [
        {
          "internalType": "bytes32",
          "name": "role",
          "type": "bytes32"
        },
        {
          "internalType": "address",
          "name": "account",
          "type": "address"
        }
      ],
      "name": "hasRole",
      "outputs": [
        {
          "internalType": "bool",
          "name": "",
          "type": "bool"
        }
      ],
      "stateMutability": "view",
      "type": "function"
    },
    {
      "inputs": [],
      "name": "name",
      "outputs": [
        {
          "internalType": "string",
          "name": "",
          "type": "string"
        }
      ],
      "stateMutability": "view",
      "type": "function"
    },
    {
      "inputs": [
        {
          "internalType": "uint256",
          "name": "_amountIn",
          "type": "uint256"
        },
        {
          "internalType": "address",
          "name": "_tokenIn",
          "type": "address"
        },
        {
          "internalType": "address",
          "name": "_tokenOut",
          "type": "address"
        }
      ],
      "name": "query",
      "outputs": [
        {
          "internalType": "uint256",
          "name": "",
          "type": "uint256"
        }
      ],
      "stateMutability": "view",
      "type": "function"
    },
    {
      "inputs": [],
      "name": "quoteGasLimit",
      "outputs": [
        {
          "internalType": "uint256",
          "name": "",
          "type": "uint256"
        }
      ],
      "stateMutability": "view",
      "type": "function"
    },
    {
      "inputs": [
        {
          "internalType": "uint256",
          "name": "_amount",
          "type": "uint256"
        }
      ],
      "name": "recoverAVAX",
      "outputs": [],
      "stateMutability": "nonpayable",
      "type": "function"
    },
    {
      "inputs": [
        {
          "internalType": "address",
          "name": "_tokenAddress",
          "type": "address"
        },
        {
          "internalType": "uint256",
          "name": "_tokenAmount",
          "type": "uint256"
        }
      ],
      "name": "recoverERC20",
      "outputs": [],
      "stateMutability": "nonpayable",
      "type": "function"
    },
    {
      "inputs": [
        {
          "internalType": "address",
          "name": "removedMaintainer",
          "type": "address"
        }
      ],
      "name": "removeMaintainer",
      "outputs": [],
      "stateMutability": "nonpayable",
      "type": "function"
    },
    {
      "inputs": [
        {
          "internalType": "bytes32",
          "name": "role",
          "type": "bytes32"
        },
        {
          "internalType": "address",
          "name": "account",
          "type": "address"
        }
      ],
      "name": "renounceRole",
      "outputs": [],
      "stateMutability": "nonpayable",
      "type": "function"
    },
    {
      "inputs": [
        {
          "internalType": "bytes32",
          "name": "role",
          "type": "bytes32"
        }
      ],
      "name": "renounceRole",
      "outputs": [],
      "stateMutability": "nonpayable",
      "type": "function"
    },
    {
      "inputs": [
        {
          "internalType": "address",
          "name": "_token",
          "type": "address"
        },
        {
          "internalType": "address",
          "name": "_spender",
          "type": "address"
        }
      ],
      "name": "revokeAllowance",
      "outputs": [],
      "stateMutability": "nonpayable",
      "type": "function"
    },
    {
      "inputs": [
        {
          "internalType": "bytes32",
          "name": "role",
          "type": "bytes32"
        },
        {
          "internalType": "address",
          "name": "account",
          "type": "address"
        }
      ],
      "name": "revokeRole",
      "outputs": [],
      "stateMutability": "nonpayable",
      "type": "function"
    },
    {
      "inputs": [
        {
          "internalType": "bool",
          "name": "_allowExternalPairs",
          "type": "bool"
        }
      ],
      "name": "setAllowExternalPairs",
      "outputs": [],
      "stateMutability": "nonpayable",
      "type": "function"
    },
    {
      "inputs": [
        {
          "internalType": "bool",
          "name": "_allowIgnoredPairs",
          "type": "bool"
        }
      ],
      "name": "setAllowIgnoredPairs",
      "outputs": [],
      "stateMutability": "nonpayable",
      "type": "function"
    },
    {
      "inputs": [
        {
          "internalType": "uint256",
          "name": "_quoteGasLimit",
          "type": "uint256"
        }
      ],
      "name": "setQuoteGasLimit",
      "outputs": [],
      "stateMutability": "nonpayable",
      "type": "function"
    },
    {
      "inputs": [
        {
          "internalType": "uint256",
          "name": "_estimate",
          "type": "uint256"
        }
      ],
      "name": "setSwapGasEstimate",
      "outputs": [],
      "stateMutability": "nonpayable",
      "type": "function"
    },
    {
      "inputs": [
        {
          "internalType": "bytes4",
          "name": "interfaceId",
          "type": "bytes4"
        }
      ],
      "name": "supportsInterface",
      "outputs": [
        {
          "internalType": "bool",
          "name": "",
          "type": "bool"
        }
      ],
      "stateMutability": "view",
      "type": "function"
    },
    {
      "inputs": [
        {
          "internalType": "uint256",
          "name": "_amountIn",
          "type": "uint256"
        },
        {
          "internalType": "uint256",
          "name": "_amountOut",
          "type": "uint256"
        },
        {
          "internalType": "address",
          "name": "_fromToken",
          "type": "address"
        },
        {
          "internalType": "address",
          "name": "_toToken",
          "type": "address"
        },
        {
          "internalType": "address",
          "name": "_to",
          "type": "address"
        }
      ],
      "name": "swap",
      "outputs": [],
      "stateMutability": "nonpayable",
      "type": "function"
    },
    {
      "inputs": [],
      "name": "swapGasEstimate",
      "outputs": [
        {
          "internalType": "uint256",
          "name": "",
          "type": "uint256"
        }
      ],
      "stateMutability": "view",
      "type": "function"
    },
    {
      "inputs": [
        {
          "internalType": "address",
          "name": "newOwner",
          "type": "address"
        }
      ],
      "name": "transferOwnership",
      "outputs": [],
      "stateMutability": "nonpayable",
      "type": "function"
    },
    {
      "stateMutability": "payable",
      "type": "receive"
    }
  ],
  "transactionHash": "0xe8b6b0a6ca67444b3d4a3ad7318caa39b34a18d74e04049837f779f453130428",
  "args": [
    "LiquidityBookAdapter",
    535345,
    "0x7BFd7192E76D950832c77BB412aaE841049D8D9B"
  ],
  "solcInputHash": "3d31bd7e10bf3531f6c263bc3f164c5d",
  "bytecode": "0x60c06040526003805461ffff1916610101179055620927c06004553480156200002757600080fd5b5060405162002837380380620028378339810160408190526200004a9162000455565b8282336200005a60008262000137565b620000867f339759585899103d2ace64958e37e18ccb0504652c81d4a1b8aa80fe2126ab958262000137565b50620000928262000147565b6200009d81620001b0565b5050806001600160a01b031663c45a01556040518163ffffffff1660e01b815260040160206040518083038186803b158015620000d957600080fd5b505afa158015620000ee573d6000803e3d6000fd5b505050506040513d601f19601f8201168201806040525081019062000114919062000431565b6001600160601b0319606091821b811660805291901b1660a052506200059d9050565b620001438282620002ce565b5050565b80516200019b5760405162461bcd60e51b815260206004820152601460248201527f496e76616c69642061646170746572206e616d6500000000000000000000000060448201526064015b60405180910390fd5b8051620001439060029060208401906200036e565b3360008181527fa54247010af6b3693b80aceddfad12e077c5de3571e6243fada502635f0d7d39602052604090205460ff16620002415760405162461bcd60e51b815260206004820152602860248201527f4d61696e7461696e61626c653a2043616c6c6572206973206e6f742061206d6160448201526734b73a30b4b732b960c11b606482015260840162000192565b81620002905760405162461bcd60e51b815260206004820152601460248201527f496e76616c6964206761732d657374696d617465000000000000000000000000604482015260640162000192565b600182905560405182815230907ff43f23b7a28e6f8ce6843a21bd7b48bce778aa913b8c8cf459edf7d770e8d38a9060200160405180910390a25050565b6000828152602081815260408083206001600160a01b038516845290915290205460ff1662000143576000828152602081815260408083206001600160a01b03851684529091529020805460ff191660011790556200032a3390565b6001600160a01b0316816001600160a01b0316837f2f8788117e7eff1d82e926ec794901d17c78024a50270940304540a733656f0d60405160405180910390a45050565b8280546200037c906200054a565b90600052602060002090601f016020900481019282620003a05760008555620003eb565b82601f10620003bb57805160ff1916838001178555620003eb565b82800160010185558215620003eb579182015b82811115620003eb578251825591602001919060010190620003ce565b50620003f9929150620003fd565b5090565b5b80821115620003f95760008155600101620003fe565b80516001600160a01b03811681146200042c57600080fd5b919050565b60006020828403121562000443578081fd5b6200044e8262000414565b9392505050565b6000806000606084860312156200046a578182fd5b83516001600160401b038082111562000481578384fd5b818601915086601f83011262000495578384fd5b815181811115620004aa57620004aa62000587565b604051601f8201601f19908116603f01168101908382118183101715620004d557620004d562000587565b81604052828152602093508984848701011115620004f1578687fd5b8691505b82821015620005145784820184015181830185015290830190620004f5565b828211156200052557868484830101525b8097505050508086015193505050620005416040850162000414565b90509250925092565b600181811c908216806200055f57607f821691505b602082108114156200058157634e487b7160e01b600052602260045260246000fd5b50919050565b634e487b7160e01b600052604160045260246000fd5b60805160601c60a05160601c612260620005d7600039600081816103120152611c260152600081816102a601526116e901526122606000f3fe6080604052600436106101bb5760003560e01c80637ae26773116100ec578063a217fddf1161008a578063eab90da611610064578063eab90da61461053c578063ef99893a1461055c578063f2fde38b1461057c578063f87422541461059c57600080fd5b8063a217fddf146104e7578063d547741f146104fc578063d8baf7cf1461051c57600080fd5b80638bb9c5bf116100c65780638bb9c5bf146104445780638ffbc78d1461046457806391d148541461048357806397efe68c146104c757600080fd5b80637ae26773146103e457806384a33e63146104045780638980f11f1461042457600080fd5b806332fe7b26116101595780634ebb7916116101335780634ebb79161461036e57806367b2634e1461038e57806369cff80d146103ae5780636b453c1f146103c457600080fd5b806332fe7b261461030057806336568abe1461033457806338d967a51461035457600080fd5b806319549170116101955780631954917014610242578063248a9ca3146102645780632dd31000146102945780632f2ff15d146102e057600080fd5b806301ffc9a7146101c757806306fdde03146101fc57806314d4cddb1461021e57600080fd5b366101c257005b600080fd5b3480156101d357600080fd5b506101e76101e2366004611ec8565b6105d0565b60405190151581526020015b60405180910390f35b34801561020857600080fd5b50610211610639565b6040516101f39190612067565b34801561022a57600080fd5b5061023460045481565b6040519081526020016101f3565b34801561024e57600080fd5b5061026261025d366004611e54565b6106c7565b005b34801561027057600080fd5b5061023461027f366004611e8c565b60009081526020819052604090206001015490565b3480156102a057600080fd5b506102c87f000000000000000000000000000000000000000000000000000000000000000081565b6040516001600160a01b0390911681526020016101f3565b3480156102ec57600080fd5b506102626102fb366004611ea4565b610776565b34801561030c57600080fd5b506102c87f000000000000000000000000000000000000000000000000000000000000000081565b34801561034057600080fd5b5061026261034f366004611ea4565b6107a0565b34801561036057600080fd5b506003546101e79060ff1681565b34801561037a57600080fd5b50610262610389366004611e8c565b61082c565b34801561039a57600080fd5b506102626103a9366004611e8c565b610974565b3480156103ba57600080fd5b5061023460015481565b3480156103d057600080fd5b506102626103df366004611cb0565b610a09565b3480156103f057600080fd5b506102626103ff366004611ce8565b610a36565b34801561041057600080fd5b5061026261041f366004611e8c565b610ada565b34801561043057600080fd5b5061026261043f366004611d20565b610bed565b34801561045057600080fd5b5061026261045f366004611e8c565b610d28565b34801561047057600080fd5b506003546101e790610100900460ff1681565b34801561048f57600080fd5b506101e761049e366004611ea4565b6000918252602082815260408084206001600160a01b0393909316845291905290205460ff1690565b3480156104d357600080fd5b506102626104e2366004611e54565b610d33565b3480156104f357600080fd5b50610234600081565b34801561050857600080fd5b50610262610517366004611ea4565b610dd6565b34801561052857600080fd5b50610262610537366004611cb0565b610dfb565b34801561054857600080fd5b50610262610557366004611f6c565b610e25565b34801561056857600080fd5b50610234610577366004611f08565b610fea565b34801561058857600080fd5b50610262610597366004611cb0565b610fff565b3480156105a857600080fd5b506102347f339759585899103d2ace64958e37e18ccb0504652c81d4a1b8aa80fe2126ab9581565b60006001600160e01b031982167f7965db0b00000000000000000000000000000000000000000000000000000000148061063357507f01ffc9a7000000000000000000000000000000000000000000000000000000006001600160e01b03198316145b92915050565b6002805461064690612185565b80601f016020809104026020016040519081016040528092919081815260200182805461067290612185565b80156106bf5780601f10610694576101008083540402835291602001916106bf565b820191906000526020600020905b8154815290600101906020018083116106a257829003601f168201915b505050505081565b3360008181527fa54247010af6b3693b80aceddfad12e077c5de3571e6243fada502635f0d7d39602052604090205460ff1661075b5760405162461bcd60e51b815260206004820152602860248201527f4d61696e7461696e61626c653a2043616c6c6572206973206e6f742061206d6160448201526734b73a30b4b732b960c11b60648201526084015b60405180910390fd5b50600380549115156101000261ff0019909216919091179055565b60008281526020819052604090206001015461079181611016565b61079b8383611020565b505050565b6001600160a01b038116331461081e5760405162461bcd60e51b815260206004820152602f60248201527f416363657373436f6e74726f6c3a2063616e206f6e6c792072656e6f756e636560448201527f20726f6c657320666f722073656c6600000000000000000000000000000000006064820152608401610752565b61082882826110be565b5050565b3360008181527fa54247010af6b3693b80aceddfad12e077c5de3571e6243fada502635f0d7d39602052604090205460ff166108bb5760405162461bcd60e51b815260206004820152602860248201527f4d61696e7461696e61626c653a2043616c6c6572206973206e6f742061206d6160448201526734b73a30b4b732b960c11b6064820152608401610752565b6000821161090b5760405162461bcd60e51b815260206004820152601e60248201527f59616b416461707465723a204e6f7468696e6720746f207265636f76657200006044820152606401610752565b604051339083156108fc029084906000818181858888f19350505050158015610938573d6000803e3d6000fd5b506040518281526000907f8c1256b8896378cd5044f80c202f9772b9d77dc85c8a6eb51967210b09bfaa28906020015b60405180910390a25050565b3360008181527fa54247010af6b3693b80aceddfad12e077c5de3571e6243fada502635f0d7d39602052604090205460ff16610a035760405162461bcd60e51b815260206004820152602860248201527f4d61696e7461696e61626c653a2043616c6c6572206973206e6f742061206d6160448201526734b73a30b4b732b960c11b6064820152608401610752565b50600455565b610a337f339759585899103d2ace64958e37e18ccb0504652c81d4a1b8aa80fe2126ab9582610776565b50565b3360008181527fa54247010af6b3693b80aceddfad12e077c5de3571e6243fada502635f0d7d39602052604090205460ff16610ac55760405162461bcd60e51b815260206004820152602860248201527f4d61696e7461696e61626c653a2043616c6c6572206973206e6f742061206d6160448201526734b73a30b4b732b960c11b6064820152608401610752565b61079b6001600160a01b03841683600061113d565b3360008181527fa54247010af6b3693b80aceddfad12e077c5de3571e6243fada502635f0d7d39602052604090205460ff16610b695760405162461bcd60e51b815260206004820152602860248201527f4d61696e7461696e61626c653a2043616c6c6572206973206e6f742061206d6160448201526734b73a30b4b732b960c11b6064820152608401610752565b81610bb65760405162461bcd60e51b815260206004820152601460248201527f496e76616c6964206761732d657374696d6174650000000000000000000000006044820152606401610752565b600182905560405182815230907ff43f23b7a28e6f8ce6843a21bd7b48bce778aa913b8c8cf459edf7d770e8d38a90602001610968565b3360008181527fa54247010af6b3693b80aceddfad12e077c5de3571e6243fada502635f0d7d39602052604090205460ff16610c7c5760405162461bcd60e51b815260206004820152602860248201527f4d61696e7461696e61626c653a2043616c6c6572206973206e6f742061206d6160448201526734b73a30b4b732b960c11b6064820152608401610752565b60008211610ccc5760405162461bcd60e51b815260206004820152601e60248201527f59616b416461707465723a204e6f7468696e6720746f207265636f76657200006044820152606401610752565b610ce06001600160a01b03841633846112e2565b826001600160a01b03167f8c1256b8896378cd5044f80c202f9772b9d77dc85c8a6eb51967210b09bfaa2883604051610d1b91815260200190565b60405180910390a2505050565b3361082882826107a0565b3360008181527fa54247010af6b3693b80aceddfad12e077c5de3571e6243fada502635f0d7d39602052604090205460ff16610dc25760405162461bcd60e51b815260206004820152602860248201527f4d61696e7461696e61626c653a2043616c6c6572206973206e6f742061206d6160448201526734b73a30b4b732b960c11b6064820152608401610752565b506003805460ff1916911515919091179055565b600082815260208190526040902060010154610df181611016565b61079b83836110be565b610a337f339759585899103d2ace64958e37e18ccb0504652c81d4a1b8aa80fe2126ab9582610dd6565b6040516370a0823160e01b81526001600160a01b038281166004830152600091908416906370a082319060240160206040518083038186803b158015610e6a57600080fd5b505afa158015610e7e573d6000803e3d6000fd5b505050506040513d601f19601f82011682018060405250810190610ea29190611ef0565b9050610eb18686868686611312565b6040516370a0823160e01b81526001600160a01b03838116600483015260009183918616906370a082319060240160206040518083038186803b158015610ef757600080fd5b505afa158015610f0b573d6000803e3d6000fd5b505050506040513d601f19601f82011682018060405250810190610f2f9190611ef0565b610f39919061212b565b905085811015610f8b5760405162461bcd60e51b815260206004820152601760248201527f496e73756666696369656e7420616d6f756e742d6f75740000000000000000006044820152606401610752565b836001600160a01b0316856001600160a01b03167fe2bdbc6b7225eb0a972ac943c485a6cc05f7c6811838bce8903f23200fb744fa8989604051610fd9929190918252602082015260400190565b60405180910390a350505050505050565b6000610ff78484846114c8565b949350505050565b3361100b600083610776565b6108286000826107a0565b610a3381336114e0565b6000828152602081815260408083206001600160a01b038516845290915290205460ff16610828576000828152602081815260408083206001600160a01b03851684529091529020805460ff1916600117905561107a3390565b6001600160a01b0316816001600160a01b0316837f2f8788117e7eff1d82e926ec794901d17c78024a50270940304540a733656f0d60405160405180910390a45050565b6000828152602081815260408083206001600160a01b038516845290915290205460ff1615610828576000828152602081815260408083206001600160a01b0385168085529252808320805460ff1916905551339285917ff6391f5c32d9c69d2a47ea670b442974b53935d1edc7fd64eb21e047a839171b9190a45050565b8015806111df57506040517fdd62ed3e0000000000000000000000000000000000000000000000000000000081523060048201526001600160a01b03838116602483015284169063dd62ed3e9060440160206040518083038186803b1580156111a557600080fd5b505afa1580156111b9573d6000803e3d6000fd5b505050506040513d601f19601f820116820180604052508101906111dd9190611ef0565b155b6112515760405162461bcd60e51b815260206004820152603660248201527f5361666545524332303a20617070726f76652066726f6d206e6f6e2d7a65726f60448201527f20746f206e6f6e2d7a65726f20616c6c6f77616e6365000000000000000000006064820152608401610752565b6040516001600160a01b03831660248201526044810182905261079b9084907f095ea7b300000000000000000000000000000000000000000000000000000000906064015b60408051601f198184030181529190526020810180517bffffffffffffffffffffffffffffffffffffffffffffffffffffffff166001600160e01b03199093169290921790915261155e565b6040516001600160a01b03831660248201526044810182905261079b90849063a9059cbb60e01b90606401611296565b60008060006113228887876116a0565b9250925092508683101561139e5760405162461bcd60e51b815260206004820152602a60248201527f4c42416461707465723a20696e73756666696369656e7420616d6f756e744f7560448201527f74207265636569766564000000000000000000000000000000000000000000006064820152608401610752565b60405163a9059cbb60e01b81526001600160a01b038381166004830152602482018a905287169063a9059cbb90604401602060405180830381600087803b1580156113e857600080fd5b505af11580156113fc573d6000803e3d6000fd5b505050506040513d601f19601f820116820180604052508101906114209190611e70565b506040517f53c059a000000000000000000000000000000000000000000000000000000000815281151560048201526001600160a01b0385811660248301528316906353c059a0906044016040805180830381600087803b15801561148457600080fd5b505af1158015611498573d6000803e3d6000fd5b505050506040513d601f19601f820116820180604052508101906114bc9190611f49565b50505050505050505050565b60006114d58484846116a0565b509095945050505050565b6000828152602081815260408083206001600160a01b038516845290915290205460ff166108285761151c816001600160a01b03166014611960565b611527836020611960565b604051602001611538929190611fe6565b60408051601f198184030181529082905262461bcd60e51b825261075291600401612067565b600080836001600160a01b0316836040516115799190611fca565b6000604051808303816000865af19150503d80600081146115b6576040519150601f19603f3d011682016040523d82523d6000602084013e6115bb565b606091505b50915091508161160d5760405162461bcd60e51b815260206004820181905260248201527f5361666545524332303a206c6f772d6c6576656c2063616c6c206661696c65646044820152606401610752565b80511561169a57808060200190518101906116289190611e70565b61169a5760405162461bcd60e51b815260206004820152602a60248201527f5361666545524332303a204552433230206f7065726174696f6e20646964206e60448201527f6f742073756363656564000000000000000000000000000000000000000000006064820152608401610752565b50505050565b6040517f6622e0d70000000000000000000000000000000000000000000000000000000081526001600160a01b03838116600483015282811660248301526000918291829182917f00000000000000000000000000000000000000000000000000000000000000001690636622e0d79060440160006040518083038186803b15801561172b57600080fd5b505afa15801561173f573d6000803e3d6000fd5b505050506040513d6000823e601f3d908101601f191682016040526117679190810190611d4b565b90506000815111801561177a5750600087115b156119565760005b8151811015611954578181815181106117ab57634e487b7160e01b600052603260045260246000fd5b6020026020010151606001511580156117c7575060035460ff16155b156117d157611944565b8181815181106117f157634e487b7160e01b600052603260045260246000fd5b6020026020010151604001511580156118125750600354610100900460ff16155b1561181c57611944565b856001600160a01b031682828151811061184657634e487b7160e01b600052603260045260246000fd5b6020026020010151602001516001600160a01b031663b7d19fc46040518163ffffffff1660e01b815260040160206040518083038186803b15801561188a57600080fd5b505afa15801561189e573d6000803e3d6000fd5b505050506040513d601f19601f820116820180604052508101906118c29190611ccc565b6001600160a01b031614925060006119068383815181106118f357634e487b7160e01b600052603260045260246000fd5b6020026020010151602001518a86611b8e565b9050858111156119425780955082828151811061193357634e487b7160e01b600052603260045260246000fd5b60200260200101516020015194505b505b61194d816121c0565b9050611782565b505b5093509350939050565b6060600061196f83600261210c565b61197a9060026120f4565b67ffffffffffffffff8111156119a057634e487b7160e01b600052604160045260246000fd5b6040519080825280601f01601f1916602001820160405280156119ca576020820181803683370190505b5090507f300000000000000000000000000000000000000000000000000000000000000081600081518110611a0f57634e487b7160e01b600052603260045260246000fd5b60200101906001600160f81b031916908160001a9053507f780000000000000000000000000000000000000000000000000000000000000081600181518110611a6857634e487b7160e01b600052603260045260246000fd5b60200101906001600160f81b031916908160001a9053506000611a8c84600261210c565b611a979060016120f4565b90505b6001811115611b38577f303132333435363738396162636465660000000000000000000000000000000085600f1660108110611ae657634e487b7160e01b600052603260045260246000fd5b1a60f81b828281518110611b0a57634e487b7160e01b600052603260045260246000fd5b60200101906001600160f81b031916908160001a90535060049490941c93611b318161216e565b9050611a9a565b508315611b875760405162461bcd60e51b815260206004820181905260248201527f537472696e67733a20686578206c656e67746820696e73756666696369656e746044820152606401610752565b9392505050565b6040516001600160a01b0384166024820152604481018390528115156064820152600090819060840160408051601f198184030181529181526020820180517bffffffffffffffffffffffffffffffffffffffffffffffffffffffff167f2004b72400000000000000000000000000000000000000000000000000000000179052600454905191925060009182916001600160a01b037f00000000000000000000000000000000000000000000000000000000000000001691611c52908690611fca565b6000604051808303818686fa925050503d8060008114611c8e576040519150601f19603f3d011682016040523d82523d6000602084013e611c93565b606091505b50915091508115611ca657602081015193505b5050509392505050565b600060208284031215611cc1578081fd5b8135611b8781612207565b600060208284031215611cdd578081fd5b8151611b8781612207565b60008060408385031215611cfa578081fd5b8235611d0581612207565b91506020830135611d1581612207565b809150509250929050565b60008060408385031215611d32578182fd5b8235611d3d81612207565b946020939093013593505050565b60006020808385031215611d5d578182fd5b825167ffffffffffffffff80821115611d74578384fd5b818501915085601f830112611d87578384fd5b815181811115611d9957611d996121f1565b611da7848260051b016120c3565b8181528481019250838501600783901b85018601891015611dc6578687fd5b8694505b82851015611e4857608080828b031215611de2578788fd5b611dea61209a565b825162ffffff81168114611dfc57898afd5b815282880151611e0b81612207565b81890152604083810151611e1e8161221c565b90820152606083810151611e318161221c565b908201528552600195909501949386019301611dca565b50979650505050505050565b600060208284031215611e65578081fd5b8135611b878161221c565b600060208284031215611e81578081fd5b8151611b878161221c565b600060208284031215611e9d578081fd5b5035919050565b60008060408385031215611eb6578182fd5b823591506020830135611d1581612207565b600060208284031215611ed9578081fd5b81356001600160e01b031981168114611b87578182fd5b600060208284031215611f01578081fd5b5051919050565b600080600060608486031215611f1c578081fd5b833592506020840135611f2e81612207565b91506040840135611f3e81612207565b809150509250925092565b60008060408385031215611f5b578182fd5b505080516020909101519092909150565b600080600080600060a08688031215611f83578283fd5b85359450602086013593506040860135611f9c81612207565b92506060860135611fac81612207565b91506080860135611fbc81612207565b809150509295509295909350565b60008251611fdc818460208701612142565b9190910192915050565b7f416363657373436f6e74726f6c3a206163636f756e742000000000000000000081526000835161201e816017850160208801612142565b7f206973206d697373696e6720726f6c6520000000000000000000000000000000601791840191820152835161205b816028840160208801612142565b01602801949350505050565b6020815260008251806020840152612086816040850160208701612142565b601f01601f19169190910160400192915050565b6040516080810167ffffffffffffffff811182821017156120bd576120bd6121f1565b60405290565b604051601f8201601f1916810167ffffffffffffffff811182821017156120ec576120ec6121f1565b604052919050565b60008219821115612107576121076121db565b500190565b6000816000190483118215151615612126576121266121db565b500290565b60008282101561213d5761213d6121db565b500390565b60005b8381101561215d578181015183820152602001612145565b8381111561169a5750506000910152565b60008161217d5761217d6121db565b506000190190565b600181811c9082168061219957607f821691505b602082108114156121ba57634e487b7160e01b600052602260045260246000fd5b50919050565b60006000198214156121d4576121d46121db565b5060010190565b634e487b7160e01b600052601160045260246000fd5b634e487b7160e01b600052604160045260246000fd5b6001600160a01b0381168114610a3357600080fd5b8015158114610a3357600080fdfea2646970667358221220307370f918e1d458aee3222ddfeb78fc4800645d4197714eaa5ba3ebf4b4798864736f6c63430008040033",
  "devdoc": {
    "kind": "dev",
    "methods": {
      "getRoleAdmin(bytes32)": {
        "details": "Returns the admin role that controls `role`. See {grantRole} and {revokeRole}. To change a role's admin, use {_setRoleAdmin}."
      },
      "grantRole(bytes32,address)": {
        "details": "Grants `role` to `account`. If `account` had not been already granted `role`, emits a {RoleGranted} event. Requirements: - the caller must have ``role``'s admin role. May emit a {RoleGranted} event."
      },
      "hasRole(bytes32,address)": {
        "details": "Returns `true` if `account` has been granted `role`."
      },
      "renounceRole(bytes32,address)": {
        "details": "Revokes `role` from the calling account. Roles are often managed via {grantRole} and {revokeRole}: this function's purpose is to provide a mechanism for accounts to lose their privileges if they are compromised (such as when a trusted device is misplaced). If the calling account had been revoked `role`, emits a {RoleRevoked} event. Requirements: - the caller must be `account`. May emit a {RoleRevoked} event."
      },
      "revokeRole(bytes32,address)": {
        "details": "Revokes `role` from `account`. If `account` had been granted `role`, emits a {RoleRevoked} event. Requirements: - the caller must have ``role``'s admin role. May emit a {RoleRevoked} event."
      },
      "supportsInterface(bytes4)": {
        "details": "See {IERC165-supportsInterface}."
      }
    },
    "version": 1
  },
  "userdoc": {
    "kind": "user",
    "methods": {},
    "version": 1
  },
  "storageLayout": {
    "storage": [
      {
        "astId": 24,
        "contract": "src/contracts/adapters/LBAdapter.sol:LBAdapter",
        "label": "_roles",
        "offset": 0,
        "slot": "0",
        "type": "t_mapping(t_bytes32,t_struct(RoleData)19_storage)"
      },
      {
        "astId": 1451,
        "contract": "src/contracts/adapters/LBAdapter.sol:LBAdapter",
        "label": "swapGasEstimate",
        "offset": 0,
        "slot": "1",
        "type": "t_uint256"
      },
      {
        "astId": 1453,
        "contract": "src/contracts/adapters/LBAdapter.sol:LBAdapter",
        "label": "name",
        "offset": 0,
        "slot": "2",
        "type": "t_string_storage"
      },
      {
        "astId": 11564,
        "contract": "src/contracts/adapters/LBAdapter.sol:LBAdapter",
        "label": "allowIgnoredPairs",
        "offset": 0,
        "slot": "3",
        "type": "t_bool"
      },
      {
        "astId": 11567,
        "contract": "src/contracts/adapters/LBAdapter.sol:LBAdapter",
        "label": "allowExternalPairs",
        "offset": 1,
        "slot": "3",
        "type": "t_bool"
      },
      {
        "astId": 11570,
        "contract": "src/contracts/adapters/LBAdapter.sol:LBAdapter",
        "label": "quoteGasLimit",
        "offset": 0,
        "slot": "4",
        "type": "t_uint256"
      }
    ],
    "types": {
      "t_address": {
        "encoding": "inplace",
        "label": "address",
        "numberOfBytes": "20"
      },
      "t_bool": {
        "encoding": "inplace",
        "label": "bool",
        "numberOfBytes": "1"
      },
      "t_bytes32": {
        "encoding": "inplace",
        "label": "bytes32",
        "numberOfBytes": "32"
      },
      "t_mapping(t_address,t_bool)": {
        "encoding": "mapping",
        "key": "t_address",
        "label": "mapping(address => bool)",
        "numberOfBytes": "32",
        "value": "t_bool"
      },
      "t_mapping(t_bytes32,t_struct(RoleData)19_storage)": {
        "encoding": "mapping",
        "key": "t_bytes32",
        "label": "mapping(bytes32 => struct AccessControl.RoleData)",
        "numberOfBytes": "32",
        "value": "t_struct(RoleData)19_storage"
      },
      "t_string_storage": {
        "encoding": "bytes",
        "label": "string",
        "numberOfBytes": "32"
      },
      "t_struct(RoleData)19_storage": {
        "encoding": "inplace",
        "label": "struct AccessControl.RoleData",
        "members": [
          {
            "astId": 16,
            "contract": "src/contracts/adapters/LBAdapter.sol:LBAdapter",
            "label": "members",
            "offset": 0,
            "slot": "0",
            "type": "t_mapping(t_address,t_bool)"
          },
          {
            "astId": 18,
            "contract": "src/contracts/adapters/LBAdapter.sol:LBAdapter",
            "label": "adminRole",
            "offset": 0,
            "slot": "1",
            "type": "t_bytes32"
          }
        ],
        "numberOfBytes": "64"
      },
      "t_uint256": {
        "encoding": "inplace",
        "label": "uint256",
        "numberOfBytes": "32"
      }
    }
  }
}