{
  "address": "0xaBFa5a371b9CD6D03278725fBa3649cF469b1F7C",
  "abi": [
    {
      "inputs": [
        {
          "internalType": "string",
          "name": "_name",
          "type": "string"
        },
        {
          "internalType": "address",
          "name": "_pool",
          "type": "address"
        },
        {
          "internalType": "uint256",
          "name": "_swapGasEstimate",
          "type": "uint256"
        }
      ],
      "stateMutability": "nonpayable",
      "type": "constructor"
    },
    {
      "anonymous": false,
      "inputs": [
        {
          "indexed": true,
          "internalType": "address",
          "name": "_asset",
          "type": "address"
        },
        {
          "indexed": false,
          "internalType": "uint256",
          "name": "amount",
          "type": "uint256"
        }
      ],
      "name": "Recovered",
      "type": "event"
    },
    {
      "anonymous": false,
      "inputs": [
        {
          "indexed": true,
          "internalType": "bytes32",
          "name": "role",
          "type": "bytes32"
        },
        {
          "indexed": true,
          "internalType": "bytes32",
          "name": "previousAdminRole",
          "type": "bytes32"
        },
        {
          "indexed": true,
          "internalType": "bytes32",
          "name": "newAdminRole",
          "type": "bytes32"
        }
      ],
      "name": "RoleAdminChanged",
      "type": "event"
    },
    {
      "anonymous": false,
      "inputs": [
        {
          "indexed": true,
          "internalType": "bytes32",
          "name": "role",
          "type": "bytes32"
        },
        {
          "indexed": true,
          "internalType": "address",
          "name": "account",
          "type": "address"
        },
        {
          "indexed": true,
          "internalType": "address",
          "name": "sender",
          "type": "address"
        }
      ],
      "name": "RoleGranted",
      "type": "event"
    },
    {
      "anonymous": false,
      "inputs": [
        {
          "indexed": true,
          "internalType": "bytes32",
          "name": "role",
          "type": "bytes32"
        },
        {
          "indexed": true,
          "internalType": "address",
          "name": "account",
          "type": "address"
        },
        {
          "indexed": true,
          "internalType": "address",
          "name": "sender",
          "type": "address"
        }
      ],
      "name": "RoleRevoked",
      "type": "event"
    },
    {
      "anonymous": false,
      "inputs": [
        {
          "indexed": true,
          "internalType": "address",
          "name": "_adapter",
          "type": "address"
        },
        {
          "indexed": false,
          "internalType": "uint256",
          "name": "_newEstimate",
          "type": "uint256"
        }
      ],
      "name": "UpdatedGasEstimate",
      "type": "event"
    },
    {
      "anonymous": false,
      "inputs": [
        {
          "indexed": true,
          "internalType": "address",
          "name": "_tokenFrom",
          "type": "address"
        },
        {
          "indexed": true,
          "internalType": "address",
          "name": "_tokenTo",
          "type": "address"
        },
        {
          "indexed": false,
          "internalType": "uint256",
          "name": "_amountIn",
          "type": "uint256"
        },
        {
          "indexed": false,
          "internalType": "uint256",
          "name": "_amountOut",
          "type": "uint256"
        }
      ],
      "name": "YakAdapterSwap",
      "type": "event"
    },
    {
      "inputs": [],
      "name": "DEFAULT_ADMIN_ROLE",
      "outputs": [
        {
          "internalType": "bytes32",
          "name": "",
          "type": "bytes32"
        }
      ],
      "stateMutability": "view",
      "type": "function"
    },
    {
      "inputs": [],
      "name": "MAINTAINER_ROLE",
      "outputs": [
        {
          "internalType": "bytes32",
          "name": "",
          "type": "bytes32"
        }
      ],
      "stateMutability": "view",
      "type": "function"
    },
    {
      "inputs": [
        {
          "internalType": "address",
          "name": "addedMaintainer",
          "type": "address"
        }
      ],
      "name": "addMaintainer",
      "outputs": [],
      "stateMutability": "nonpayable",
      "type": "function"
    },
    {
      "inputs": [],
      "name": "feeDenominator",
      "outputs": [
        {
          "internalType": "uint256",
          "name": "",
          "type": "uint256"
        }
      ],
      "stateMutability": "view",
      "type": "function"
    },
    {
      "inputs": [
        {
          "internalType": "bytes32",
          "name": "role",
          "type": "bytes32"
        }
      ],
      "name": "getRoleAdmin",
      "outputs": [
        {
          "internalType": "bytes32",
          "name": "",
          "type": "bytes32"
        }
      ],
      "stateMutability": "view",
      "type": "function"
    },
    {
      "inputs": [
        {
          "internalType": "bytes32",
          "name": "role",
          "type": "bytes32"
        },
        {
          "internalType": "address",
          "name": "account",
          "type": "address"
        }
      ],
      "name": "grantRole",
      "outputs": [],
      "stateMutability": "nonpayable",
      "type": "function"
    },
    {
      "inputs": [
        {
          "internalType": "bytes32",
          "name": "role",
          "type": "bytes32"
        },
        {
          "internalType": "address",
          "name": "account",
          "type": "address"
        }
      ],
      "name": "hasRole",
      "outputs": [
        {
          "internalType": "bool",
          "name": "",
          "type": "bool"
        }
      ],
      "stateMutability": "view",
      "type": "function"
    },
    {
      "inputs": [
        {
          "internalType": "address",
          "name": "",
          "type": "address"
        }
      ],
      "name": "isPoolToken",
      "outputs": [
        {
          "internalType": "bool",
          "name": "",
          "type": "bool"
        }
      ],
      "stateMutability": "view",
      "type": "function"
    },
    {
      "inputs": [],
      "name": "metaPool",
      "outputs": [
        {
          "internalType": "address",
          "name": "",
          "type": "address"
        }
      ],
      "stateMutability": "view",
      "type": "function"
    },
    {
      "inputs": [],
      "name": "metaTkn",
      "outputs": [
        {
          "internalType": "address",
          "name": "",
          "type": "address"
        }
      ],
      "stateMutability": "view",
      "type": "function"
    },
    {
      "inputs": [],
      "name": "name",
      "outputs": [
        {
          "internalType": "string",
          "name": "",
          "type": "string"
        }
      ],
      "stateMutability": "view",
      "type": "function"
    },
    {
      "inputs": [],
      "name": "pool",
      "outputs": [
        {
          "internalType": "address",
          "name": "",
          "type": "address"
        }
      ],
      "stateMutability": "view",
      "type": "function"
    },
    {
      "inputs": [],
      "name": "poolFeeCompliment",
      "outputs": [
        {
          "internalType": "uint256",
          "name": "",
          "type": "uint256"
        }
      ],
      "stateMutability": "view",
      "type": "function"
    },
    {
      "inputs": [
        {
          "internalType": "uint256",
          "name": "_amountIn",
          "type": "uint256"
        },
        {
          "internalType": "address",
          "name": "_tokenIn",
          "type": "address"
        },
        {
          "internalType": "address",
          "name": "_tokenOut",
          "type": "address"
        }
      ],
      "name": "query",
      "outputs": [
        {
          "internalType": "uint256",
          "name": "",
          "type": "uint256"
        }
      ],
      "stateMutability": "view",
      "type": "function"
    },
    {
      "inputs": [
        {
          "internalType": "uint256",
          "name": "_amount",
          "type": "uint256"
        }
      ],
      "name": "recoverAVAX",
      "outputs": [],
      "stateMutability": "nonpayable",
      "type": "function"
    },
    {
      "inputs": [
        {
          "internalType": "address",
          "name": "_tokenAddress",
          "type": "address"
        },
        {
          "internalType": "uint256",
          "name": "_tokenAmount",
          "type": "uint256"
        }
      ],
      "name": "recoverERC20",
      "outputs": [],
      "stateMutability": "nonpayable",
      "type": "function"
    },
    {
      "inputs": [
        {
          "internalType": "address",
          "name": "removedMaintainer",
          "type": "address"
        }
      ],
      "name": "removeMaintainer",
      "outputs": [],
      "stateMutability": "nonpayable",
      "type": "function"
    },
    {
      "inputs": [
        {
          "internalType": "bytes32",
          "name": "role",
          "type": "bytes32"
        },
        {
          "internalType": "address",
          "name": "account",
          "type": "address"
        }
      ],
      "name": "renounceRole",
      "outputs": [],
      "stateMutability": "nonpayable",
      "type": "function"
    },
    {
      "inputs": [
        {
          "internalType": "bytes32",
          "name": "role",
          "type": "bytes32"
        }
      ],
      "name": "renounceRole",
      "outputs": [],
      "stateMutability": "nonpayable",
      "type": "function"
    },
    {
      "inputs": [
        {
          "internalType": "address",
          "name": "_token",
          "type": "address"
        },
        {
          "internalType": "address",
          "name": "_spender",
          "type": "address"
        }
      ],
      "name": "revokeAllowance",
      "outputs": [],
      "stateMutability": "nonpayable",
      "type": "function"
    },
    {
      "inputs": [
        {
          "internalType": "bytes32",
          "name": "role",
          "type": "bytes32"
        },
        {
          "internalType": "address",
          "name": "account",
          "type": "address"
        }
      ],
      "name": "revokeRole",
      "outputs": [],
      "stateMutability": "nonpayable",
      "type": "function"
    },
    {
      "inputs": [
        {
          "internalType": "uint256",
          "name": "_estimate",
          "type": "uint256"
        }
      ],
      "name": "setSwapGasEstimate",
      "outputs": [],
      "stateMutability": "nonpayable",
      "type": "function"
    },
    {
      "inputs": [
        {
          "internalType": "bytes4",
          "name": "interfaceId",
          "type": "bytes4"
        }
      ],
      "name": "supportsInterface",
      "outputs": [
        {
          "internalType": "bool",
          "name": "",
          "type": "bool"
        }
      ],
      "stateMutability": "view",
      "type": "function"
    },
    {
      "inputs": [
        {
          "internalType": "uint256",
          "name": "_amountIn",
          "type": "uint256"
        },
        {
          "internalType": "uint256",
          "name": "_amountOut",
          "type": "uint256"
        },
        {
          "internalType": "address",
          "name": "_fromToken",
          "type": "address"
        },
        {
          "internalType": "address",
          "name": "_toToken",
          "type": "address"
        },
        {
          "internalType": "address",
          "name": "_to",
          "type": "address"
        }
      ],
      "name": "swap",
      "outputs": [],
      "stateMutability": "nonpayable",
      "type": "function"
    },
    {
      "inputs": [],
      "name": "swapGasEstimate",
      "outputs": [
        {
          "internalType": "uint256",
          "name": "",
          "type": "uint256"
        }
      ],
      "stateMutability": "view",
      "type": "function"
    },
    {
      "inputs": [
        {
          "internalType": "address",
          "name": "",
          "type": "address"
        }
      ],
      "name": "tokenIndex",
      "outputs": [
        {
          "internalType": "uint8",
          "name": "",
          "type": "uint8"
        }
      ],
      "stateMutability": "view",
      "type": "function"
    },
    {
      "inputs": [
        {
          "internalType": "address",
          "name": "newOwner",
          "type": "address"
        }
      ],
      "name": "transferOwnership",
      "outputs": [],
      "stateMutability": "nonpayable",
      "type": "function"
    },
    {
      "stateMutability": "payable",
      "type": "receive"
    }
  ],
  "transactionHash": "0x926b90767b9bbe66337d3f2b2b14722b1857e287dba06b38cfd7ed452566168d",
  "args": [
    "SaddleMetaArbUsdV2Adapter",
    "0x5dD186f8809147F96D3ffC4508F3C82694E58c9c",
    625000
  ],
  "solcInputHash": "3d31bd7e10bf3531f6c263bc3f164c5d",
  "bytecode": "0x60806040523480156200001157600080fd5b50604051620028ee380380620028ee8339810160408190526200003491620009b6565b828133620000446000826200014e565b620000707f339759585899103d2ace64958e37e18ccb0504652c81d4a1b8aa80fe2126ab95826200014e565b506200007c826200015e565b6200008781620001c7565b5050600880546001600160a01b0319166001600160a01b03841690811790915560408051632d74d4e960e01b81529051632d74d4e9916004808201926020929091908290030181600087803b158015620000e057600080fd5b505af1158015620000f5573d6000803e3d6000fd5b505050506040513d601f19601f820116820180604052508101906200011b919062000970565b600680546001600160a01b0319166001600160a01b039290921691909117905562000145620002e5565b50505062000ba2565b6200015a8282620004b6565b5050565b8051620001b25760405162461bcd60e51b815260206004820152601460248201527f496e76616c69642061646170746572206e616d6500000000000000000000000060448201526064015b60405180910390fd5b80516200015a906002906020840190620008ad565b3360008181527fa54247010af6b3693b80aceddfad12e077c5de3571e6243fada502635f0d7d39602052604090205460ff16620002585760405162461bcd60e51b815260206004820152602860248201527f4d61696e7461696e61626c653a2043616c6c6572206973206e6f742061206d6160448201526734b73a30b4b732b960c11b6064820152608401620001a9565b81620002a75760405162461bcd60e51b815260206004820152601460248201527f496e76616c6964206761732d657374696d6174650000000000000000000000006044820152606401620001a9565b600182905560405182815230907ff43f23b7a28e6f8ce6843a21bd7b48bce778aa913b8c8cf459edf7d770e8d38a9060200160405180910390a25050565b60085460405162415c3360e91b8152600060048201526001600160a01b03909116906382b866009060240160206040518083038186803b1580156200032957600080fd5b505afa1580156200033e573d6000803e3d6000fd5b505050506040513d601f19601f8201168201806040525081019062000364919062000970565b600780546001600160a01b0319166001600160a01b03929092169182179055620003919060001962000556565b6007546001600160a01b03166000908152600460205260408120805460ff191690555b60065460405162415c3360e91b815260ff831660048201526001600160a01b03909116906382b866009060240160206040518083038186803b158015620003fa57600080fd5b505afa9250505080156200042d575060408051601f3d908101601f191682019092526200042a9181019062000970565b60015b620004355750565b620004438160001962000556565b6001600160a01b0381166000908152600360205260409020805460ff191660019081179091556200047690839062000abf565b6001600160a01b03919091166000908152600460205260409020805460ff191660ff90921691909117905580620004ad8162000b53565b915050620003b4565b6000828152602081815260408083206001600160a01b038516845290915290205460ff166200015a576000828152602081815260408083206001600160a01b03851684529091529020805460ff19166001179055620005123390565b6001600160a01b0316816001600160a01b0316837f2f8788117e7eff1d82e926ec794901d17c78024a50270940304540a733656f0d60405160405180910390a45050565b600854604051636eb1769f60e11b81523060048201526001600160a01b03918216602482015260009184169063dd62ed3e9060440160206040518083038186803b158015620005a457600080fd5b505afa158015620005b9573d6000803e3d6000fd5b505050506040513d601f19601f82011682018060405250810190620005df919062000a88565b905081811015620006145760085462000614906001600160a01b03858116911660001962000619602090811b62000e1517901c565b505050565b801580620006a75750604051636eb1769f60e11b81523060048201526001600160a01b03838116602483015284169063dd62ed3e9060440160206040518083038186803b1580156200066a57600080fd5b505afa1580156200067f573d6000803e3d6000fd5b505050506040513d601f19601f82011682018060405250810190620006a5919062000a88565b155b6200071b5760405162461bcd60e51b815260206004820152603660248201527f5361666545524332303a20617070726f76652066726f6d206e6f6e2d7a65726f60448201527f20746f206e6f6e2d7a65726f20616c6c6f77616e6365000000000000000000006064820152608401620001a9565b604080516001600160a01b038416602482015260448082018490528251808303909101815260649091019091526020810180516001600160e01b0390811663095ea7b360e01b17909152620006149185916200077316565b600080836001600160a01b03168360405162000790919062000aa1565b6000604051808303816000865af19150503d8060008114620007cf576040519150601f19603f3d011682016040523d82523d6000602084013e620007d4565b606091505b509150915081620008285760405162461bcd60e51b815260206004820181905260248201527f5361666545524332303a206c6f772d6c6576656c2063616c6c206661696c65646044820152606401620001a9565b805115620008a7578080602001905181019062000846919062000994565b620008a75760405162461bcd60e51b815260206004820152602a60248201527f5361666545524332303a204552433230206f7065726174696f6e20646964206e6044820152691bdd081cdd58d8d9595960b21b6064820152608401620001a9565b50505050565b828054620008bb9062000b16565b90600052602060002090601f016020900481019282620008df57600085556200092a565b82601f10620008fa57805160ff19168380011785556200092a565b828001600101855582156200092a579182015b828111156200092a5782518255916020019190600101906200090d565b50620009389291506200093c565b5090565b5b808211156200093857600081556001016200093d565b80516001600160a01b03811681146200096b57600080fd5b919050565b60006020828403121562000982578081fd5b6200098d8262000953565b9392505050565b600060208284031215620009a6578081fd5b815180151581146200098d578182fd5b600080600060608486031215620009cb578182fd5b83516001600160401b0380821115620009e2578384fd5b818601915086601f830112620009f6578384fd5b81518181111562000a0b5762000a0b62000b8c565b604051601f8201601f19908116603f0116810190838211818310171562000a365762000a3662000b8c565b8160405282815289602084870101111562000a4f578687fd5b62000a6283602083016020880162000ae7565b809750505050505062000a786020850162000953565b9150604084015190509250925092565b60006020828403121562000a9a578081fd5b5051919050565b6000825162000ab581846020870162000ae7565b9190910192915050565b600060ff821660ff84168060ff0382111562000adf5762000adf62000b76565b019392505050565b60005b8381101562000b0457818101518382015260200162000aea565b83811115620008a75750506000910152565b600181811c9082168062000b2b57607f821691505b6020821081141562000b4d57634e487b7160e01b600052602260045260246000fd5b50919050565b600060ff821660ff81141562000b6d5762000b6d62000b76565b60010192915050565b634e487b7160e01b600052601160045260246000fd5b634e487b7160e01b600052604160045260246000fd5b611d3c8062000bb26000396000f3fe6080604052600436106101b05760003560e01c80637ae26773116100ec578063d8baf7cf1161008a578063ef99893a11610064578063ef99893a1461051b578063f2fde38b1461053b578063f45dc4781461055b578063f87422541461057b57600080fd5b8063d8baf7cf146104ab578063de260f37146104cb578063eab90da6146104fb57600080fd5b80638bb9c5bf116100c65780638bb9c5bf1461041257806391d1485414610432578063a217fddf14610476578063d547741f1461048b57600080fd5b80637ae26773146103b257806384a33e63146103d25780638980f11f146103f257600080fd5b80632f2ff15d116101595780634ebb7916116101335780634ebb79161461033c5780635acb5da91461035c57806369cff80d1461037c5780636b453c1f1461039257600080fd5b80632f2ff15d146102b857806336568abe146102da578063427f91a6146102fa57600080fd5b8063180b0d7e1161018a578063180b0d7e1461024b578063248a9ca3146102725780632580d365146102a257600080fd5b806301ffc9a7146101bc57806306fdde03146101f157806316f0115b1461021357600080fd5b366101b757005b600080fd5b3480156101c857600080fd5b506101dc6101d7366004611a63565b6105af565b60405190151581526020015b60405180910390f35b3480156101fd57600080fd5b50610206610618565b6040516101e89190611bd1565b34801561021f57600080fd5b50600854610233906001600160a01b031681565b6040516001600160a01b0390911681526020016101e8565b34801561025757600080fd5b506102646402540be40081565b6040519081526020016101e8565b34801561027e57600080fd5b5061026461028d366004611a29565b60009081526020819052604090206001015490565b3480156102ae57600080fd5b5061026460055481565b3480156102c457600080fd5b506102d86102d3366004611a41565b6106a6565b005b3480156102e657600080fd5b506102d86102f5366004611a41565b6106d0565b34801561030657600080fd5b5061032a610315366004611994565b60046020526000908152604090205460ff1681565b60405160ff90911681526020016101e8565b34801561034857600080fd5b506102d8610357366004611a29565b610761565b34801561036857600080fd5b50600654610233906001600160a01b031681565b34801561038857600080fd5b5061026460015481565b34801561039e57600080fd5b506102d86103ad366004611994565b6108a9565b3480156103be57600080fd5b506102d86103cd3660046119ae565b6108d6565b3480156103de57600080fd5b506102d86103ed366004611a29565b61097a565b3480156103fe57600080fd5b506102d861040d3660046119e0565b610a8d565b34801561041e57600080fd5b506102d861042d366004611a29565b610bc8565b34801561043e57600080fd5b506101dc61044d366004611a41565b6000918252602082815260408084206001600160a01b0393909316845291905290205460ff1690565b34801561048257600080fd5b50610264600081565b34801561049757600080fd5b506102d86104a6366004611a41565b610bd3565b3480156104b757600080fd5b506102d86104c6366004611994565b610bf8565b3480156104d757600080fd5b506101dc6104e6366004611994565b60036020526000908152604090205460ff1681565b34801561050757600080fd5b506102d8610516366004611ade565b610c22565b34801561052757600080fd5b50610264610536366004611aa3565b610de7565b34801561054757600080fd5b506102d8610556366004611994565b610dfe565b34801561056757600080fd5b50600754610233906001600160a01b031681565b34801561058757600080fd5b506102647f339759585899103d2ace64958e37e18ccb0504652c81d4a1b8aa80fe2126ab9581565b60006001600160e01b031982167f7965db0b00000000000000000000000000000000000000000000000000000000148061061257507f01ffc9a7000000000000000000000000000000000000000000000000000000006001600160e01b03198316145b92915050565b6002805461062590611cb5565b80601f016020809104026020016040519081016040528092919081815260200182805461065190611cb5565b801561069e5780601f106106735761010080835404028352916020019161069e565b820191906000526020600020905b81548152906001019060200180831161068157829003601f168201915b505050505081565b6000828152602081905260409020600101546106c181610fba565b6106cb8383610fc4565b505050565b6001600160a01b03811633146107535760405162461bcd60e51b815260206004820152602f60248201527f416363657373436f6e74726f6c3a2063616e206f6e6c792072656e6f756e636560448201527f20726f6c657320666f722073656c66000000000000000000000000000000000060648201526084015b60405180910390fd5b61075d8282611062565b5050565b3360008181527fa54247010af6b3693b80aceddfad12e077c5de3571e6243fada502635f0d7d39602052604090205460ff166107f05760405162461bcd60e51b815260206004820152602860248201527f4d61696e7461696e61626c653a2043616c6c6572206973206e6f742061206d6160448201526734b73a30b4b732b960c11b606482015260840161074a565b600082116108405760405162461bcd60e51b815260206004820152601e60248201527f59616b416461707465723a204e6f7468696e6720746f207265636f7665720000604482015260640161074a565b604051339083156108fc029084906000818181858888f1935050505015801561086d573d6000803e3d6000fd5b506040518281526000907f8c1256b8896378cd5044f80c202f9772b9d77dc85c8a6eb51967210b09bfaa28906020015b60405180910390a25050565b6108d37f339759585899103d2ace64958e37e18ccb0504652c81d4a1b8aa80fe2126ab95826106a6565b50565b3360008181527fa54247010af6b3693b80aceddfad12e077c5de3571e6243fada502635f0d7d39602052604090205460ff166109655760405162461bcd60e51b815260206004820152602860248201527f4d61696e7461696e61626c653a2043616c6c6572206973206e6f742061206d6160448201526734b73a30b4b732b960c11b606482015260840161074a565b6106cb6001600160a01b038416836000610e15565b3360008181527fa54247010af6b3693b80aceddfad12e077c5de3571e6243fada502635f0d7d39602052604090205460ff16610a095760405162461bcd60e51b815260206004820152602860248201527f4d61696e7461696e61626c653a2043616c6c6572206973206e6f742061206d6160448201526734b73a30b4b732b960c11b606482015260840161074a565b81610a565760405162461bcd60e51b815260206004820152601460248201527f496e76616c6964206761732d657374696d617465000000000000000000000000604482015260640161074a565b600182905560405182815230907ff43f23b7a28e6f8ce6843a21bd7b48bce778aa913b8c8cf459edf7d770e8d38a9060200161089d565b3360008181527fa54247010af6b3693b80aceddfad12e077c5de3571e6243fada502635f0d7d39602052604090205460ff16610b1c5760405162461bcd60e51b815260206004820152602860248201527f4d61696e7461696e61626c653a2043616c6c6572206973206e6f742061206d6160448201526734b73a30b4b732b960c11b606482015260840161074a565b60008211610b6c5760405162461bcd60e51b815260206004820152601e60248201527f59616b416461707465723a204e6f7468696e6720746f207265636f7665720000604482015260640161074a565b610b806001600160a01b03841633846110e1565b826001600160a01b03167f8c1256b8896378cd5044f80c202f9772b9d77dc85c8a6eb51967210b09bfaa2883604051610bbb91815260200190565b60405180910390a2505050565b3361075d82826106d0565b600082815260208190526040902060010154610bee81610fba565b6106cb8383611062565b6108d37f339759585899103d2ace64958e37e18ccb0504652c81d4a1b8aa80fe2126ab9582610bd3565b6040516370a0823160e01b81526001600160a01b038281166004830152600091908416906370a082319060240160206040518083038186803b158015610c6757600080fd5b505afa158015610c7b573d6000803e3d6000fd5b505050506040513d601f19601f82011682018060405250810190610c9f9190611a8b565b9050610cae868686868661112a565b6040516370a0823160e01b81526001600160a01b03838116600483015260009183918616906370a082319060240160206040518083038186803b158015610cf457600080fd5b505afa158015610d08573d6000803e3d6000fd5b505050506040513d601f19601f82011682018060405250810190610d2c9190611a8b565b610d369190611c5b565b905085811015610d885760405162461bcd60e51b815260206004820152601760248201527f496e73756666696369656e7420616d6f756e742d6f7574000000000000000000604482015260640161074a565b836001600160a01b0316856001600160a01b03167fe2bdbc6b7225eb0a972ac943c485a6cc05f7c6811838bce8903f23200fb744fa8989604051610dd6929190918252602082015260400190565b60405180910390a350505050505050565b6000610df4848484611290565b90505b9392505050565b33610e0a6000836106a6565b61075d6000826106d0565b801580610eb757506040517fdd62ed3e0000000000000000000000000000000000000000000000000000000081523060048201526001600160a01b03838116602483015284169063dd62ed3e9060440160206040518083038186803b158015610e7d57600080fd5b505afa158015610e91573d6000803e3d6000fd5b505050506040513d601f19601f82011682018060405250810190610eb59190611a8b565b155b610f295760405162461bcd60e51b815260206004820152603660248201527f5361666545524332303a20617070726f76652066726f6d206e6f6e2d7a65726f60448201527f20746f206e6f6e2d7a65726f20616c6c6f77616e636500000000000000000000606482015260840161074a565b6040516001600160a01b0383166024820152604481018290526106cb9084907f095ea7b300000000000000000000000000000000000000000000000000000000906064015b60408051601f198184030181529190526020810180517bffffffffffffffffffffffffffffffffffffffffffffffffffffffff166001600160e01b0319909316929092179091526112be565b6108d38133611400565b6000828152602081815260408083206001600160a01b038516845290915290205460ff1661075d576000828152602081815260408083206001600160a01b03851684529091529020805460ff1916600117905561101e3390565b6001600160a01b0316816001600160a01b0316837f2f8788117e7eff1d82e926ec794901d17c78024a50270940304540a733656f0d60405160405180910390a45050565b6000828152602081815260408083206001600160a01b038516845290915290205460ff161561075d576000828152602081815260408083206001600160a01b0385168085529252808320805460ff1916905551339285917ff6391f5c32d9c69d2a47ea670b442974b53935d1edc7fd64eb21e047a839171b9190a45050565b6040516001600160a01b0383166024820152604481018290526106cb9084907fa9059cbb0000000000000000000000000000000000000000000000000000000090606401610f6e565b6008546001600160a01b038481166000908152600460208190526040808320548785168452928190205490517f78e0fae800000000000000000000000000000000000000000000000000000000815260ff9384169281019290925291909116602482015260448101889052606481018790524260848201529116906378e0fae89060a401602060405180830381600087803b1580156111c857600080fd5b505af11580156111dc573d6000803e3d6000fd5b505050506040513d601f19601f820116820180604052508101906112009190611a8b565b506040516370a0823160e01b81523060048201526000906001600160a01b038416906370a082319060240160206040518083038186803b15801561124357600080fd5b505afa158015611257573d6000803e3d6000fd5b505050506040513d601f19601f8201168201806040525081019061127b9190611a8b565b905061128883828461147e565b505050505050565b600061129d8484846114a2565b80156112ae57506112ac6114bf565b155b15610df757610df48484846115e6565b600080836001600160a01b0316836040516112d99190611b34565b6000604051808303816000865af19150503d8060008114611316576040519150601f19603f3d011682016040523d82523d6000602084013e61131b565b606091505b50915091508161136d5760405162461bcd60e51b815260206004820181905260248201527f5361666545524332303a206c6f772d6c6576656c2063616c6c206661696c6564604482015260640161074a565b8051156113fa57808060200190518101906113889190611a09565b6113fa5760405162461bcd60e51b815260206004820152602a60248201527f5361666545524332303a204552433230206f7065726174696f6e20646964206e60448201527f6f74207375636365656400000000000000000000000000000000000000000000606482015260840161074a565b50505050565b6000828152602081815260408083206001600160a01b038516845290915290205460ff1661075d5761143c816001600160a01b031660146116c0565b6114478360206116c0565b604051602001611458929190611b50565b60408051601f198184030181529082905262461bcd60e51b825261074a91600401611bd1565b306001600160a01b038216146106cb576106cb6001600160a01b03841682846110e1565b60006114ae83836118e7565b8015610df457505050901515919050565b600854604080517f5c975abb00000000000000000000000000000000000000000000000000000000815290516000926001600160a01b031691635c975abb916004808301926020929190829003018186803b15801561151d57600080fd5b505afa158015611531573d6000803e3d6000fd5b505050506040513d601f19601f820116820180604052508101906115559190611a09565b806115e15750600660009054906101000a90046001600160a01b03166001600160a01b0316635c975abb6040518163ffffffff1660e01b815260040160206040518083038186803b1580156115a957600080fd5b505afa1580156115bd573d6000803e3d6000fd5b505050506040513d601f19601f820116820180604052508101906115e19190611a09565b905090565b6008546001600160a01b0383811660009081526004602081905260408083205486851684528184205491517f75d8e3e400000000000000000000000000000000000000000000000000000000815260ff9182169381019390935216602482015260448101879052909291909116906375d8e3e49060640160206040518083038186803b15801561167557600080fd5b505afa9250505080156116a5575060408051601f3d908101601f191682019092526116a291810190611a8b565b60015b6116ae57610df7565b6116b78161195d565b95945050505050565b606060006116cf836002611c3c565b6116da906002611c04565b67ffffffffffffffff81111561170057634e487b7160e01b600052604160045260246000fd5b6040519080825280601f01601f19166020018201604052801561172a576020820181803683370190505b5090507f30000000000000000000000000000000000000000000000000000000000000008160008151811061176f57634e487b7160e01b600052603260045260246000fd5b60200101906001600160f81b031916908160001a9053507f7800000000000000000000000000000000000000000000000000000000000000816001815181106117c857634e487b7160e01b600052603260045260246000fd5b60200101906001600160f81b031916908160001a90535060006117ec846002611c3c565b6117f7906001611c04565b90505b6001811115611898577f303132333435363738396162636465660000000000000000000000000000000085600f166010811061184657634e487b7160e01b600052603260045260246000fd5b1a60f81b82828151811061186a57634e487b7160e01b600052603260045260246000fd5b60200101906001600160f81b031916908160001a90535060049490941c9361189181611c9e565b90506117fa565b508315610df75760405162461bcd60e51b815260206004820181905260248201527f537472696e67733a20686578206c656e67746820696e73756666696369656e74604482015260640161074a565b6007546000906001600160a01b03848116911614801561191f57506001600160a01b03821660009081526003602052604090205460ff165b80610df757506007546001600160a01b038381169116148015610df7575050506001600160a01b031660009081526003602052604090205460ff1690565b600061271061196e8361270e611c3c565b6106129190611c1c565b80356001600160a01b038116811461198f57600080fd5b919050565b6000602082840312156119a5578081fd5b610df782611978565b600080604083850312156119c0578081fd5b6119c983611978565b91506119d760208401611978565b90509250929050565b600080604083850312156119f2578182fd5b6119fb83611978565b946020939093013593505050565b600060208284031215611a1a578081fd5b81518015158114610df7578182fd5b600060208284031215611a3a578081fd5b5035919050565b60008060408385031215611a53578182fd5b823591506119d760208401611978565b600060208284031215611a74578081fd5b81356001600160e01b031981168114610df7578182fd5b600060208284031215611a9c578081fd5b5051919050565b600080600060608486031215611ab7578081fd5b83359250611ac760208501611978565b9150611ad560408501611978565b90509250925092565b600080600080600060a08688031215611af5578081fd5b8535945060208601359350611b0c60408701611978565b9250611b1a60608701611978565b9150611b2860808701611978565b90509295509295909350565b60008251611b46818460208701611c72565b9190910192915050565b7f416363657373436f6e74726f6c3a206163636f756e7420000000000000000000815260008351611b88816017850160208801611c72565b7f206973206d697373696e6720726f6c65200000000000000000000000000000006017918401918201528351611bc5816028840160208801611c72565b01602801949350505050565b6020815260008251806020840152611bf0816040850160208701611c72565b601f01601f19169190910160400192915050565b60008219821115611c1757611c17611cf0565b500190565b600082611c3757634e487b7160e01b81526012600452602481fd5b500490565b6000816000190483118215151615611c5657611c56611cf0565b500290565b600082821015611c6d57611c6d611cf0565b500390565b60005b83811015611c8d578181015183820152602001611c75565b838111156113fa5750506000910152565b600081611cad57611cad611cf0565b506000190190565b600181811c90821680611cc957607f821691505b60208210811415611cea57634e487b7160e01b600052602260045260246000fd5b50919050565b634e487b7160e01b600052601160045260246000fdfea2646970667358221220e29808f5325769e7f78cdd1e8609665cef042916c3e71a0200409ec2eecb09ab64736f6c63430008040033",
  "devdoc": {
    "kind": "dev",
    "methods": {
      "getRoleAdmin(bytes32)": {
        "details": "Returns the admin role that controls `role`. See {grantRole} and {revokeRole}. To change a role's admin, use {_setRoleAdmin}."
      },
      "grantRole(bytes32,address)": {
        "details": "Grants `role` to `account`. If `account` had not been already granted `role`, emits a {RoleGranted} event. Requirements: - the caller must have ``role``'s admin role. May emit a {RoleGranted} event."
      },
      "hasRole(bytes32,address)": {
        "details": "Returns `true` if `account` has been granted `role`."
      },
      "renounceRole(bytes32,address)": {
        "details": "Revokes `role` from the calling account. Roles are often managed via {grantRole} and {revokeRole}: this function's purpose is to provide a mechanism for accounts to lose their privileges if they are compromised (such as when a trusted device is misplaced). If the calling account had been revoked `role`, emits a {RoleRevoked} event. Requirements: - the caller must be `account`. May emit a {RoleRevoked} event."
      },
      "revokeRole(bytes32,address)": {
        "details": "Revokes `role` from `account`. If `account` had been granted `role`, emits a {RoleRevoked} event. Requirements: - the caller must have ``role``'s admin role. May emit a {RoleRevoked} event."
      },
      "supportsInterface(bytes4)": {
        "details": "See {IERC165-supportsInterface}."
      }
    },
    "version": 1
  },
  "userdoc": {
    "kind": "user",
    "methods": {},
    "version": 1
  },
  "storageLayout": {
    "storage": [
      {
        "astId": 24,
        "contract": "src/contracts/adapters/SaddleMetaAdapter.sol:SaddleMetaAdapter",
        "label": "_roles",
        "offset": 0,
        "slot": "0",
        "type": "t_mapping(t_bytes32,t_struct(RoleData)19_storage)"
      },
      {
        "astId": 1451,
        "contract": "src/contracts/adapters/SaddleMetaAdapter.sol:SaddleMetaAdapter",
        "label": "swapGasEstimate",
        "offset": 0,
        "slot": "1",
        "type": "t_uint256"
      },
      {
        "astId": 1453,
        "contract": "src/contracts/adapters/SaddleMetaAdapter.sol:SaddleMetaAdapter",
        "label": "name",
        "offset": 0,
        "slot": "2",
        "type": "t_string_storage"
      },
      {
        "astId": 13014,
        "contract": "src/contracts/adapters/SaddleMetaAdapter.sol:SaddleMetaAdapter",
        "label": "isPoolToken",
        "offset": 0,
        "slot": "3",
        "type": "t_mapping(t_address,t_bool)"
      },
      {
        "astId": 13018,
        "contract": "src/contracts/adapters/SaddleMetaAdapter.sol:SaddleMetaAdapter",
        "label": "tokenIndex",
        "offset": 0,
        "slot": "4",
        "type": "t_mapping(t_address,t_uint8)"
      },
      {
        "astId": 13020,
        "contract": "src/contracts/adapters/SaddleMetaAdapter.sol:SaddleMetaAdapter",
        "label": "poolFeeCompliment",
        "offset": 0,
        "slot": "5",
        "type": "t_uint256"
      },
      {
        "astId": 13022,
        "contract": "src/contracts/adapters/SaddleMetaAdapter.sol:SaddleMetaAdapter",
        "label": "metaPool",
        "offset": 0,
        "slot": "6",
        "type": "t_address"
      },
      {
        "astId": 13024,
        "contract": "src/contracts/adapters/SaddleMetaAdapter.sol:SaddleMetaAdapter",
        "label": "metaTkn",
        "offset": 0,
        "slot": "7",
        "type": "t_address"
      },
      {
        "astId": 13026,
        "contract": "src/contracts/adapters/SaddleMetaAdapter.sol:SaddleMetaAdapter",
        "label": "pool",
        "offset": 0,
        "slot": "8",
        "type": "t_address"
      }
    ],
    "types": {
      "t_address": {
        "encoding": "inplace",
        "label": "address",
        "numberOfBytes": "20"
      },
      "t_bool": {
        "encoding": "inplace",
        "label": "bool",
        "numberOfBytes": "1"
      },
      "t_bytes32": {
        "encoding": "inplace",
        "label": "bytes32",
        "numberOfBytes": "32"
      },
      "t_mapping(t_address,t_bool)": {
        "encoding": "mapping",
        "key": "t_address",
        "label": "mapping(address => bool)",
        "numberOfBytes": "32",
        "value": "t_bool"
      },
      "t_mapping(t_address,t_uint8)": {
        "encoding": "mapping",
        "key": "t_address",
        "label": "mapping(address => uint8)",
        "numberOfBytes": "32",
        "value": "t_uint8"
      },
      "t_mapping(t_bytes32,t_struct(RoleData)19_storage)": {
        "encoding": "mapping",
        "key": "t_bytes32",
        "label": "mapping(bytes32 => struct AccessControl.RoleData)",
        "numberOfBytes": "32",
        "value": "t_struct(RoleData)19_storage"
      },
      "t_string_storage": {
        "encoding": "bytes",
        "label": "string",
        "numberOfBytes": "32"
      },
      "t_struct(RoleData)19_storage": {
        "encoding": "inplace",
        "label": "struct AccessControl.RoleData",
        "members": [
          {
            "astId": 16,
            "contract": "src/contracts/adapters/SaddleMetaAdapter.sol:SaddleMetaAdapter",
            "label": "members",
            "offset": 0,
            "slot": "0",
            "type": "t_mapping(t_address,t_bool)"
          },
          {
            "astId": 18,
            "contract": "src/contracts/adapters/SaddleMetaAdapter.sol:SaddleMetaAdapter",
            "label": "adminRole",
            "offset": 0,
            "slot": "1",
            "type": "t_bytes32"
          }
        ],
        "numberOfBytes": "64"
      },
      "t_uint256": {
        "encoding": "inplace",
        "label": "uint256",
        "numberOfBytes": "32"
      },
      "t_uint8": {
        "encoding": "inplace",
        "label": "uint8",
        "numberOfBytes": "1"
      }
    }
  }
}